:02000004FF00FB
:28000000010800F000006208C05D89FD0400FFFFFFFF400600E05B206A7020020A0000300000001000000010DB
:F93000000AFB0000020D009DF8380021463A4600F042FA044696F88000AAF7CFBA000000F0C1FBBDE8F08100F01DFCBDE8F08100F04EFEBDE8F08103490968002901D00249086093F7FABE4022200060016500BDE8F04700F09ABF01F016F8BDE8F08301F027F84FF000084FF7F1BF0AB0BDE8F14F01F0A7B8000002F096F8F8BD02F046F938BDF0BC02F0B5BB000010B563F720BE000003B502F0FFFBBDE8034076F72EB804490968002903D04FF4CA0C75F763BFF0BD40222000204602F007FE18B900212046E8F714B938BD000005D00F2F03D00C2F08DCA8F7A1BA20463946424602F013FFBDE8FF9FA8F7A4BA03F056F9BDE8F09F03F054FABDE88B
:F930F900F08F03F0980AFB00F7020D00FCBDE8F0873946304603F060FD04A93046CFF71CBF03F066FD10BD03F092FD10BD03F0E8FD70BD000003F0AEFF70BD0000BDE8F08102B40146300A26706070022902BC01D1E5F710B910220498E4F781FD0146201D9EF701FDE5F712B904F078BB10B495F77FFD10BC207693F7FFBF00009EF777FE204605F0E0F9E6F72BBB05F025FB10BD05F070FB10BD000040F20140A4F840002046C6F7F5BE000005F0E0FCBDE8F08706F07FFB05B0BDE8FF8F06F0F4FCBDE8F09FBDE8704006F0FDBD0000BDE8F04107F04CB807F0E1F8BDE8FC8707F028F970BD07F0ADF970BD07F08DFBBDE8F08709F0EEF810BD09F01E
:F931F20004F910BD09F054F9BDE80AFB00EE030D00F081204609F06BFAD0F739BB000009F070FA36F755BB09F09FFABBF7E2BC0A98A072BBF75EF90546BBF7DFBB000009F03CFB0546E6F7DBBB000009F0A0FBA87505F11704EFF7D4BA00000AF019FB70BD000029460AF09FFBE98BE4F792BA0AF0ACFBBDE8F05F9EF7D2BF05480449801D00F0E3BD0449044800F0DFBD000065020D000F100B00EB1B0D00510B0B000149024800F0D2BDF5270D00D1C3090010B50246B0F80100C0F3090300F47C40040A0020202C0BD1162B05D02B2B1CD1104604F017FB17E0104604F0E9FA13E0FC2C12D1B3F5AA7F07D0A3F580739D3B0BD1104600F040FA06E032
:F932EB00074B1B78002B03D0104600F0C8FC010AFB00E5040D002010BDAFF25F00024908607047000028372000381820009FF767B89FF7D1B89FF7ADB808B5ADF80000ADF80210012168469EF7E3FF08BD9FF730B841898089081A70471548C06FC0B2704730B5134C0023226F28B10925B1FBF5F1E46FA14216D2052030BD03EBC30192F822404454148C0144A1F801409489A1F80340D489A1F805405489A1F807405B1C5269DBB2002AE8D1002030BD99F779BCCC6420003448418821F02001418001210170418841F0100141804FF0FF3141602E49C16170472E4800682E490880704710B5022400B90024BFF75FFD2046BDE8104008F0D6BF10B56B
:F933E4004FF44814206800F00F0000F0AAFDFFF7E6FF23480AFB00DC050D00007810B94020C4F84C01FFF7CDFF21491F48C1F8980102F01BF808F00CF9AFF24B001D49486002F0CEFB04F0B9FE04F04CFCBDE8104002F062BA70B5174D184C3EF7FAF808B13EF72FF82246002128469EF7E6FBAFF26D001249086013491248086013490320086000F07AF80AF0B5FAFFF74CFFBDE8704002F02EBA643520000DD70A00D8FC310022272000E9502100E92F0D00C4AF2000601D2000D46C21005004000068512100787A21001C242000D41C20000300084603D010F8011B917370477F21917370472DE9F043002405460E46224FA04627E0641C71084FEA13
:F934DD003500401971414B084FEA30024FEA121040EA0370801843EB130AFB00D3060D00114FEA102545EA0165281841EB11214FEA104545EA0145281841EB11414FEAD00040EA41704FEAD101451C64B241F100063A68521B78EB0603D2D30A3C4FFA84F9002401E0641C64B257F82420A81A76EB0801F7D309EB8900C4EB400040B2BDE8F08300002C742600F0B511490F480F4E486100200836012756F83040620951F8223004F01F0407FA04F52B4341F8223006EBC00252684B6942F0010203EB40035242401C1A800428E6D3F0BDD06A210084AF20000EB50A486A460C2100685AF785FC0C280AD106490822091D68469EF7A7FA002802D1034999
:F935D600029808600EBDE9E7F86A2100F45021000188A1F51042053A26D1817813290AFB00CA070D0005D1817A332920D9332181721DE00B2909D1B0F80510B1F52A7F16D340F2A721A0F8051011E017290FD10849097861B108490978022908D1084A0649C2F824120621C170064900200870012070475C1120005E1120003FE00000C4AF2000EC1B20002DE9F0470646012086F830000C468888012195F7F9FB050001D1022037E0D5F8FC004FF00C09400701D548462FE02189E0886289B4F80C80B5F85CC0062925D3FC4B1B681B070AD5FB4B1B7803EB4307C7EBC313F94F07EBC303834216D3B0F52F4F13D8814211D8C3070FD1C9070DD14FF45D
:F936CF000041884509D242B18A4206D2BCF1000F07D000EB4200604503D312203070BDE8F087E80AFB00C1080D00694F46C0F3C400082800D10027377096F8310030B9208839464BF7E3FF002086F83000002FE9D1B5F8F000214640F40040A5F8F0002846BDE8F047DB4A4EF788B970B50546012085F830008888012195F790FB040001D102200DE0E069C0F3C4000A2807D194F8B5000421B1EBD00F01D1400702D50C20287070BD002028700146204674F749FD34F8F00F20F40040208070BD70B50546CE78012085F830000C468888012195F765FBC169C1F3C4010A2906D1B0F8F000000402D40C20287070BD012E06D0022EFAD121462846BDE8D6
:F937C8007040B6E721462846BDE8704046E730B4B349D1F8F810002955D1B2490A78022A53D3B249B04B09780AFB00B8090D00062A194413D20278C2F3C3020E2A01D3052204E00A2A01D3032200E0012291F8A4301A44FE2A2DD281F8A4202AE00B2A07D291F8F420FE2A24D2521C81F8F42020E0A14BA14C1B680C2A10D1A04D2A7842B191F85422FE2A04D2521C81F854220021297073B12168491C21600AE091F8F420FE2A02D2521C81F8F42013B16168491C61609349096800290AD00968002907D0007830BCC0F3C300AFF72EBF30BC084730BC70472DE9F0418B48016840684FF0080095F731FE884C894F94F8AC1800F0FF083A7AC1F3C3018C
:F938C100D4F8A008914225D1B4F8AE18FA88C1F3C90191421ED1D2047A4E150CB268001D521CB26072692A44726146F74A0AFB00AF0A0D00FB0004000C09D03169491C3161F1690144F161B169281A084404E0F068401CF060B0692844B0614BF74AF8404699F718FC05464AF775FF3968681A80B24FF47A7148434FF44861B0FBF1F086B2D4F8A00894F780FFB888B04210D82321FF204BF7C5FB06000AD00720B07020225949F01C9EF7A6FF30464BF72BFB3D60002084F87208BDE8F0812DE9F04781460C460025012693F73DFB08B9072562E0534960790978884200D808B912255AE0C8F731FA07464F48006840040BD53846C8F745FA38B1207907
:F939BA0018B900213846C8F758FA0C250026F87A012801D0042807D103F06FF920B12079012801D10C253AE08EB33846C8F72FFA21790AFB00A60B0D008842F6D03846C8F727FA0028F1D1384602F0EDFD012803D1394800680028E8D16079C9F76BFA064621793846C8F7B5F93846C8F713FA4FF0FF08012826D13846C8F70EFA58B1012093F747FC7064FF2807D100213846C8F7A0F90D2506E0C6F844801DB921793846C8F7DAFA002189F8301015B9207900280CD0E31C2946BDE8F04701224FF654504BF716BE706C93F7C6FCE4E73FE670B505460C4693F7BDFA08B9072006E01349A07A0978884200D810B91220287070BD23E0581820007C20FA
:F93AB300200080F3FFFFB9250D00C4AF2000C2142000E4DE2000BE13200094182000D8AC2000BC13200030182000288B310000102000CFAC2000490AFB009D0C0D001E2000F0372000307F200099F73EF8054699F73EF8A07AC8F785F90646A07A211D03F0FCF80121304603F0F6F82846BDE8704099F730B870B505460C4693F771FA10B907202870BAE7774994F824000A781221904203D810B120791F2801D92970ADE799F712F8054699F712F894F8240093F7D4FF217980F8F810227912B1611D9EF7A7FE2846BDE8704099F704B870B505460C4693F745FA10B9072028708EE7614994F824000A781221904203D810B120791F2801D9297081E722
:F93BAC0098F7E6FF054698F7E6FF94F8240093F79CFF217980F8F810227912B1611D9EF77BFE2846BDE8704098F7D8BF2DE9F04105460C4693F718FA08B907200AFB00940D0D0013E04B49607E09781226884200D808B92E70C4E6C8F70BF90746C8F728F918B93846C8F722F910B10C202870B7E6A0882028EDD3E188B1F5804FE9D88842E7D8E17D4907E4D0A17E0429E1D8217A022901D0032901D1A028DAD398F79BFF054698F79BFF217A3846C8F70FF9617A384603F057F8607A18B1607E04F10A0104E0002093F734FC0146607E03F04CF8E17D3846C8F7FCF8A08820F001013846C8F7F8F8E08820F001013846C8F7F4F8207A012801D0042837
:F93CA5000AD1217C384603F03CF804F11101384603F039F8002100E0217E3846C8F7E6F82846BDE8F04198F760BF70B5044600F10806C8780D46062818D2DFE800F01703070AFB008B0E0D000B0F132046FFF778FF11E02046FFF748FF0DE02046FFF718FF09E02046FFF7C8FE05E02046FFF741FE01E012202070E878B0710120E070CBE6491E20002DE9F04198F72CFF074698F72CFF3748BAF7AAFA002863D0354C208820B93548BAF7A2FA00285BD000F0F1F9002857D13148BAF799FA002852D03048007801284ED82F48BAF790FA50B12A48BAF78CFA30B12C48BAF788FA10B14AF790FF3FE020884FF6FF7548B190F772F930B10168A94203D21B
:F93D9E00A1B34AF7E1FE31E02148BAF773FA68B31E480068001F00F11804807B99F7DAF94108206899F75CF9401E6FF07C41194E4FF44614884219D205E0A84203D1D4F88400BE2809D30AFB00820F0D0099F7D0FD014630888142F3D1D4F88410BE29EFD83088A84202D199F7C3FD308000204AF731FD3846BDE8F04198F7C1BE000008132000A00F20006C0F200010132000CC1A2000F812200000132000B019200008B5009B421A23F4784303F5704323F0404343F08053121F03F100430093884202D843F4806001E023F48060C0F38021C1F1010161F3DB60C0F3C06161F35D70C2F3093161F30900C2F34A0161F31A40009008BD38B5124C024618
:F93E97002068802800D1FEE721F0010022F001052946FFF7C8FF00906946284622685AF7B4FC2068401C206038BD13B5064C01A92268802A00D1FEE75AF7A7FC2068401C20601CBD0000046B21002D0AFB0079100D00E9F0414FF000040600884617462546204628D00FB91E4809E01E48007808B11D4804E041F7D0F94FF47A71484386420FD0B0FBF6F404F001006D1C6408FF2CF9D8072D00D814B90725FF2401E000B9641E44EA05210FB9002001E04FF40040014341F480504FF44D118A6BB8F1000F05D149F2FF739A4302438A6304E0074B1A4042EA00408863BDE8F0415BF778BB40420F004445200000366E01FFFF00684FF44813196821F43C
:F93F900077610143196098F705BE70B506464FF448100068504D00F477640020A8633046A0F794FEAFF21D00A863052E13D2DFE806F00306090C0F004FF400600CE04FF4116009E04FF4226006E04FF4336003E00AFB0070110D004FF4446000E02046A04201D0FFF7CCFF012070BD2DE9FE4F8146DDF830A098F7CBFD009098F7CBFD4FF0FF35280AB9F1050F63D2DFE809F003060A0E1200064639270EE06FF47F0631270AE06FF47F46292706E06FF0FF06212702E02E4605461927DFF8A8803A46D8F804100291D8F800000190ECF714FEC4B24FF0000BBAF1000F23D04FF44810006800F00F01494502D94846A0F770FEFF2C01D2641CE4B2404631
:F9408900C246D8F80080D0F8049008EA050809EA0609204659463A46BAF7B4F840EA080041EA0901CAE9000117E00CB1641EE4B2C246DDE9018908EA050809EA0609204659463A46BAF79EF840EA080041EA0901CAE900010C0AFB0067120D00B9A0F743FE0098BDE8FE4F98F75FBD0000C4AF2000001B200001494020086070474C01320010B544780CB9154810BD1549096811B188470028F8D1134800EBC40010BD38B50020114C451E20602346012229460F48009543F73FFB0023012229460B4895F798FB21680843206038BD10B54FF78AF905490968084300D0012010BDE45226008C16200090592600086B2100D89720002DE9F0410C461546C3
:F9418200B0F58A7F54D901264FF0020804F10807B0F58B7F1CD0A0F5807017382FD0042846D1E878A0B3012842D004283DD1C7210E204AF7B1FF58B30021417186702A88A0F80320EA78827184F83010194A20E00721384695F706FB95F90AFB005E130D00030001F0A3F9B871C0F30720E670012801D11F2002E0022801D13020207084F8308015E00721384695F7EFFA01F00CFAB871E670F3E70EE032F8113000EB4104491C09B2A4F807306029F5DB4AF7E9FE0120BDE8F0810020FBE7A42B20002DE9F14F86B006980699B0F9080004900698D1F89010B0F906B0D0F8840000EB810002900698D0F87CA0D0F8800001900020F4E300FB0BF0C700BD
:F9427B000020E9E306980399D0F890400398A03444430744069800EB8103D3F888101031C3F888100698D0F89000814202DCD3F888004EE0029901EB840101F51F72A1EB800101F50F71082051F8045942F8045951F8045942F8045951F8045942F8040AFB0055140D005951F8045942F8045951F8045942F8045951F8045942F8045951F8045942F8045951F8045942F8045951F8045942F8045951F8045942F8045951F8045942F8045951F8045942F8045951F8045942F8045951F8045942F8045951F8045942F8045951F8045942F80459401EBDD50020C3F888000299201A01EB800421460198ECF7F9F8206ED4F860120844C517FF4A0021A0FB41
:F9437400026305FB023200FB012CD4F88000D4F80022801AF94AC517A0FB026305FB023200FB01208444D4F8E000D4F8E0211044F34AC517A0FB026305FB023200FB01208444D4F80001D4F88021801AED4AC317A0FB026503FB025200FB01208444D4F86001E94A0AFB004C150D00C517A0FB026305FB023200FB012060448012404200F30F000AEB470210806268E1484FEAE275A2FB006305FB003302FB013CD4F87C22A2FB00654FEAE27303FB005002FB0108626ED8484FEAE275A2FB006305FB003302FB013202EB0C09D4F81C22A2FB00654FEAE27303FB005002FB010000EB080CD4F88420CD484FEAE275A2FB006305FB003302FB013202EB75
:F9446D000908D4F8FC21DFF820E3A2FB00654FEAE27303FB005002FB01008444D4F8E420C1484FEAE275A2FB006305FB003302FB01329044D4F89C21A2FB00654FEAE27303FB005002FB01008444D4F80401A0FB0E654FEAE07303FB0E5200FB012000EB0809D4F87C01A0FB0E0AFB0043160D00634FEAE07505FB0E3200FB012000EB0C08D4F86401AB4A4FEAE075A0FB026305FB023300FB013000EB090CD4F81C01A0FB02634FEAE07505FB023200FB0120D4F88421A14D404482FB05329444D4F8FC2082FB053202EB0008D4F8E4019B4A4FEAE075A0FB026305FB023300FB01308444D4F89C00A0FB02654FEAE07303FB025200FB0120D4F8042208
:F9456600914D404482FB05329444E26F82FB053202EB0008D4F864028C4A4FEAE075A0FB026305FB023300FB01308444E069A0FB02654FEAE07303FB025200FB01204FEAAC22C2F10002404402F30F0307EB0B050AEB45024FEAA0201380C0F1000000F30F02CBEBCB0000EB07030AEB43000AFB003A170D000280A068774A4FEAE075A0FB026305FB023300FB0138D4F87802A0FB02634FEAE07505FB023200FB012CA26E6E484FEAE275A2FB006305FB003302FB01329044D4F81822A2FB00654FEAE27303FB005002FB01008444D4F8882063484FEAE273A2FB006503FB005302FB01329044D4F8F821A2FB00654FEAE27303FB005002FB0100844463
:F9465F00D4F8E82059484FEAE275A2FB006305FB003302FB01329044D4F89821A2FB00654FEAE27303FB005002FB01008444D4F808214E484FEAE275A2FB006305FB003302FB013202EB0809D4F87821A2FB00654FEAE27303FB005002FB010000EB0C08D4F86801434A4FEAE075A0FB026305FB0233000AFB0031180D00FB013000EB090CD4F81801A0FB02634FEAE07505FB023200FB0120D4F88821384D404482FB05329444D4F8F82082FB053202EB0008D4F8E801334A4FEAE075A0FB026305FB023300FB01308444D4F89800A0FB02654FEAE07303FB025200FB0120D4F80822294D404482FB05329444A26F82FB053202EB0008D4F86802244AB8
:F94758004FEAE075A0FB026305FB023300FB01308444A069A0FB02634FEAE07505FB023200FB01204FEAAC224044C2F1000231E06AEC41004873B900EFECA7017A30B408756CCF127321050048EF4400961B0701BA3E22019A3E9F0A6F229C12912831F924F4F50193678DFFE7723A00713F0B00755B4100CAB356010AFB0028190D00FFD05F00B6597D0CFA350412FC95FFFA538613020EF1C9FFF460300007EB4B0302F30F020AEB43034FEAA0201A80C0F1000000F30F020BEB4B00864607EB40030AEB43000280E0684FEAE073FF4AA0FB026503FB025300FB0138D4F87402A0FB02634FEAE07505FB023200FB012CE26EF7484FEAE275A2FB00639A
:F948510005FB003302FB013202EB0809D4F81422A2FB00654FEAE27303FB005002FB010000EB0C08D4F88C00EC4A4FEAE075A0FB026305FB023300FB013000EB090CD4F8F401A0FB02634FEAE07505FB023200FB0120D4F8EC20E14D404482FB05329444D4F8942182FB053202EB0008D4F80C01DC4A4FEAE075A0FB026305FB020AFB001F1A0D003300FB01308444D4F87401A0FB02654FEAE07303FB025200FB01208044D4F86C01D14A4FEAE075A0FB026305FB023300FB01308444D4F81401DFF83C93A0FB02634FEAE07505FB023200FB0120D4F88C21C64D404482FB05329444D4F8F42082FB053202EB0008D4F8EC01C14A4FEAE075A0FB0263EB
:F9494A0005FB023300FB01308444D4F89400A0FB02654FEAE07303FB025200FB0120D4F80C32B74A404483FB02539C44636F83FB023202EB0008D4F86C02A0FB09654FEAE07303FB095200FB012084446069A0FB09634FEAE07505FB093200FB01204FEAAC224044C2F100020EEB070302F30F020AEB43034FEAA0201A80C0F1000000F30F020AFB00161B0D000BEB8B0038440AEB400002802069D4F8702210449C4A4FEAE073A0FB026503FB025200FB012C206FD4F810221044964A4FEAE075A0FB026305FB023200FB01208444D4F89000D4F8F0211044904A4FEAE075A0FB026305FB023200FB012000EB0C02D4F8F000D4F890311844894B80FBEE
:F94A4300033000EB0203D4F81001D4F870211044854A4FEAE074A0FB026504FB025200FB012018444FEAA020C0F1000000F30F0107EB8B020AEB42000180019800F120000190039800F1010003905845FFF612AC0598401C049905908842FFF606AC07B0BDE8F08F2DE9F14F86B006980699B0F906B0B0F9080004900698D1F89010D0F8840000EB8100030AFB000D1C0D00900698C06F02900698D0F880000190002005E200FB0BF087000020FAE10698574400EB8A03D3F88810D0F890400831C3F888100698A034D0F8900004FB0AF4814202DCD3F888002EE0039901EB840202F59E71A2EB800202F58E72082052F8045941F8045952F8045941F8EB
:F94B3C00045952F8045941F8045952F8045941F8045952F8045941F8045952F8045941F8045952F8045941F8045952F8045941F80459401EDDD50020C3F888000399201A01EB800421460198EBF7AAFC206BD4F83011394A0144A1FB0263CD1705FB0232002001FB002C216CD4F80021891A334ACD17A1FB026305FB023201FB00218C44216FD4F8F0200A442D49D5170AFB00041D0D00A2FB016305FB013102FB00118C44D4F88010D4F8C0208A1A2749D517A2FB016305FB013102FB00118C44D4F8B010234ACD17A1FB026305FB023201FB00216144C912494201F30F02029901EB47010A8061681B4A4FEAE175A1FB026305FB023301FB003CD4F80B
:F94C35003C114FEAE1732AE000007D2C1200B6F834008BB3A10173EB5EFF6FB13B0EF0CE0E117E6EA8FC1F2909021324FAFF625A250089FF1A00D28F1D004C22E0015D4320FEF921C70FC8BC7D00459F65012CEE4F03D21E5B11F21FAC25E6941100A1FB026503FB025201FB0029616B984A4FEAE175A1FB026305FB023301FB003101EB0C08D4F80C11DFF850E2A1FB02654FEAE10AFB00FB1D0D007303FB025201FB002101EB090C616C8C4A4FEAE175A1FB026305FB023301FB00318844D4F8FC10A1FB02654FEAE17303FB025201FB00218C44616F824A4FEAE175A1FB026305FB023301FB00318844D4F8CC10A1FB02654FEAE17303FB025201FB75
:F94D2E0000218C44D4F88410A1FB0E654FEAE17303FB0E5201FB0022D4F8BC1002EB0809A1FB0E654FEAE17303FB0E5201FB002101EB0C08D4F8B4106C4A4FEAE175A1FB026305FB023301FB003101EB090CD4F88C10A1FB02634FEAE17505FB023201FB0021D4F8C430624A414483FB02539C44E36F83FB023202EB0108D4F8F4105D4A4FEAE175A1FB026305FB023301FB00318C44E16CA1FB0AFB00F21E0D0002634FEAE17505FB023201FB0021D4F80431534A414483FB02539C44E36B83FB023202EB0108D4F834114E4A4FEAE175A1FB026305FB023301FB00318C44E168A1FB02654FEAE17303FB025201FB00214FEAEC22029D4144C2F100022E
:F94E270007EB0B0302F30F0205EB43034FEAE1211A80C1F1000101F30F020BEB4B0101EB0703029901EB43010A80A168D4F838211144364A4FEAE173A1FB026503FB025201FB002CA16BD4F808211144314A4FEAE175A1FB026305FB023201FB00218C44A26CD4F8F81011442B4A4FEAE175A1FB026305FB023201FB002101EB0C02A16FD4F8C8301944244B81FB033101EB0203D4F88810D4F8B8201144200AFB00E91F0D004A4FEAE174A1FB026504FB025201FB002018444FEAE020C0F1000000F30F01029807EB4B0200EB42000180019800F1100001900AF1010082465845FFF601AE0598401C049905908842FFF6F5ADD5E5E4887F00A3BA9D02D7
:F94F2000BCF2C800905CF51851F2122437AF0FF640EE1E04D5B99BFF03945900D3E230009B233D004133B203D4914FFC46CA911F3649F020087070470A210A2800D301463248017070473148007870472DE9F04104460D4616463CF775FA10B10220BDE8F0813CF769FA07463CF77CFB3246294620465DF777F8044638465CF7A7FF0120012CECD10020EAE72DE9F04104460D4616463CF757FA08B10220E0E73CF74CFA0AFB00E0200D0007463CF75FFB3246294620465DF763F8044638465CF78AFF0120012CCFD10020CDE72DE9FC4704460E4617469846DDF828903CF737FA10B10220BDE8FC873CF72BFA05463CF73EFB0123CDE9009343463A4650
:F9501900314620465CF7F8FF044628465CF765FF0120012CE8D10020E6E7941E20002DE9FC414FF448161D4FF56A4FF0FF346FF0004120466EF731FD214620466EF72DFD4FF4001000210246CDE9000115480260019A42601448017056F7ABFF306DC0070FD000E02546F46AAC42FBD1022C02D80E48007810B140F20521B162306DC007FCD13A68442109A069F70AFA0B48094901600A49416066F79CFEFEE70000DC50210000E1000AFB00D7210D00E0251A2000480F200077646F672E630000ADDEDDBA7C5121005AF001A52DE9F04757F7A0F93C480068400702D53C493B480860DFF8F0904FF4C806D9F80000741020B139480068C6F8840006E0A9
:F9511200D4F81C04800702D435480068F065354D286820B1406880472868C068804797F771FD824697F771FD4FF40011A046C4F8C0102D4F386800B180472C48007800F00300022802D198F7BBFB11E0284C206820F440702060206840F42070206098F7B4FB206820F460702060786800B180470024F465286810B1D8F8C01041611D4800231A462021006858F789FC1A4800780028FDD1504697F73BFD286860B18068804728680069804728680AFB00CE220D00C068804728680069804728680476D9F80000002803D0BDE8F04757F70AB9BDE8F0873C1A20000501060020153200841A20008C1A2000A41A2000401A20000C6B2100E8502100486166
:F9520B00330098512100221A200010B5044600685BF720FBA08C092120F01000A08420685BF744FB204681F7C3FEB4F8B230B4F86410022200204AF7F6FAB4F8F000C00B94F8B50020F0F80002D000F1200001E000F1180084F8B500C0B2800705D52046BDE810400D2172F753BD2046BDE81040032172F78CBF10B504460068FFF7C5FF204693F7C2FA002010BDF8B5914E914D0446062972D00EDC012918D1E069000416D4206894F78AF94BF705FF80B1700AFB00C5230D006D70B10C2126E0092909D10023009368681821007BC0F30002204692F7CDFDF8BD94F8B50040F0010084F8B5000020A4F8B000A4F8B200206894F768F98AF7FEF984F879
:F9530400B400B4F8BC0048B1B4F8AA10884205D212212046BDE8F84073F774B9E06920F0F8005030E06120468BF7C0F948B90D21204673F767F9E06920F0F8004030E061F8BDB4F8F000C00B14D0082093F74AFA0028F5D004600421017114F8B51F21F0F801083121700146AFF2E700BDE8F84059F754BAA08C40F01000A084E0690004E08C03D540F0100002E00CE020F01000E084204673F757F814F8B50F20F0F80008302070F8BD0422802120464EF70EF928B169680AFB00BC240D000346097BC1F3000213E0E069C0F3C401082909D1000413D4206894F7FCF84BF777FE68B1706D58B168680C23007BC0F30002204601B0BDE8F040172192F7D5
:F953FD0086BD2046BDE8F84073F754B838B5044638481029406850D2DFE801F04F31314F4F4F3C121C084F4F4F264F3700230093007B1821C0F30002204692F723FD07E0007BE18CC0F30000C1F30011884216D1002115E0017BE28CC1F30001C2F3001291420CD1817B0BE004F1B404607840F002006070A08FA4F1B404C00BE8D138BD2046BDE8384072F72BBF2046BDE8384081F718BFB4F8F000C00B0ED00021204672F71EFFB4F8F00020F40040A4F8F0002046BDE8384073F79D0AFB00B3250D00BA1F21E0E7C269C2F3C4020A2A03D1042201214CF7A6BBCA88A0F8A8200A89A0F8AA204A89A0F8AC208989A0F8AE10012173F7F3B9B89F2000B1
:F954F6006414200015490860704770B5456A0C46022909D111490A685AB111490978890707D50021904704E01CB9BDE8704081F7FABF2868214602692846BDE87040104710B52C2207490848CCF7BDF9074906480860AFF24901016110BD0000146B21004C6C2100A4502600D46C2100641320005548406800B10047544A107801281DD1534954480B7803604B7843608B788360CB78C3600B790361497981624E490B78C3624B7803638B784363CB7883630B79C363497941654FF00000107070470AFB00AA260D002DE9FE4F044640480169002029B1204688470190BDF804006EE0404E8DF80900002C61D014F1110F5EDD112C5CDA3E49DFF8F0C09A
:F955EF003C4F91F9003031469CF800203878DFF8E890DFF8E8A0DFF8E88009784FF0010B1D1BA2B904EB840242F35D02104499F80020904203DB9AF80020904200DD10463970307088F800508CF800B026E098F90020954222D04FF47A7C03FB0CF3009305FB0CF302FB0CF257F75CFE3178C0B2884204D1002C01DD401C00E0401E99F80020904203DB9AF80020904202DD8DF809B003E03970307088F800501A4930780968086019490978012906D118490968086002E002208DF8090030788DF80800BDF8080AFB00A1270D0000BDE8FE8F0348406900B100471048007870476802210095332000A833200088026000B033200098332000963320001A
:F956E800973320009B332000993320009A3320009C332000A03320009D332000A4332000712D20002DE9F04104460D4616463FF71BFE354945F2226209684AF644438F0742F611311ED59C4203D08C4201D094420DD140F2B9112960B3FBF4F14143484200EB800000F1806000F2B91040E04FF47A61B4FBF1F14FF08062A2EBD0002960084435E0A0F51247183F34D10020B4F5FA5F26D0B4F57A5F01D1012021E0B4F5FA4F01D102201CE09C4201D1032018E0A4F53B43803B01D1042012E08C4201D105200EE0A4F538510AFB0098280D00E03901D1062008E0A4F5BA41C03901D1072002E0944200D108200A4951F820102960094951F82000306080
:F957E100BDE8F081610029600649484300EB440000F18060F3E7D41C2000447F2600687F260018FCFFFF23494FF47A700880224801682248CA0736D001234FF4C802C2F88C30490709D51E49C0F82015D0F8101541F08061C0F810150FE01A4900F5A4600160816841F400218160816821F0FE0101F102018160A0F5A460D0F820051249086052F8840F1149096840EA5100106010680F49086000214FF44810C161C1690129FCD170470B49C0F8201541F23401C0F828157047281A20003C1A20000010320001010600D9033EFE881A200AFB008F290D0000A41A20008C1A2000C003840110B50C4602281AD0142803D0152805D0162808D1204692F70B
:F958DA00B5FF09E02046BDE810405CF737BF08490A6832B1214690472046BDE8104006F0D6BD0449C9792046BDE8104093F710B8D4172000181E200030B40278C2F3C303427A092B05D04378C3F34004837D9C4203D042F00102427212E0114C4D0305D422F0010242720822227009E042F00102427283F0010282750522227000220276084A12683AB10278C2F3C302082A02D1054B01221A700222427130BCD1F76BBBC2142000E08A3100D21120000A49082009784A060FD407208A060CD40620CA0609D405208A0706D404204A0703D40320C9070AFB00862A0D0000D1022070470D14200000214FF4CA0001642649C0F8BC11012101642549C0F878
:F959D300BC11022101642349C0F8BC1170472249012008724872704721480078012801D173F7EEBE70471D480078002801D073F77FBF7047AFF21D011A488161AFF2170181627047164A174912780968002A0ED001224FF4CA038240986B10439863986B104011B1491E012901D00028F4D070470B490978002909D04FF4CA039A6B01218140114202D0986B084398637047000102030405060708090A0B7841200040222000D82220008022200037B584B00C0015461FD0062058F714F8DDF81100002300BA20F0FF0040F0120002909DF81000009303900521600AFB007D2B0D001D012302AA58F70AF801230093601D00232A46214658F702F858F7F7
:F95ACC0057F907B030BD2DE9F74F84B00E46154658F726F8DFF8F8A2BE4C9AF80000C00702D058F7ADF90DE02078C00603D5502057F7DEFF06E0062057F7DAFF58F76EF88007FBD52078410644D5800704988024B0FBF4F104FB1100C0F18007B74200D93746F01BB0FBF4F104FB110BDFF8A8928846D9F800002A4600280498394602D0FFF79AFF01E058F722F904983D4438444F4604900EE038682A4600280498214602D0FFF789FF01E058F711F90498254420440490B8F101008046ECD238682A4600280498594602D0FFF776FF32E058F7FEF82FE002208DF8080000240AFB00742C0D0025E0062057F786FF9DF812008DF809009DF811008DF865
:F95BC5000A009DF810008DF80B0015F8010B8DF80C000498401C049058F707F88007FBD50123052102AA0846009357F771FF57F7FCFFC007FBD1641CB442D7D3042057F75EFF9AF80000C00701D058F705F958F7EFF8304607B0BDE8F08F2DE9F74783B00C4690468A4657F782FF6D48DFF8B89100788006D9F8000006D510B106260C2742E005260B273FE010B1052613273BE00426032738E0C6F1FE00A04201D9254600E0054601A98DF804705520314401F8010CD9F8000080B19DF80F008DF805009DF80E008DF806009DF80D008DF807009DF80C008DF808000BE09DF80E008DF8050AFB006B2D0D00009DF80D008DF806009DF80C008DF80700C7
:F95CBE0043462A4601A9304657F715FF0398A8442844641B0390002CC4D158F790F8504606B0BDE8F087AFF2BF0043490860AFF20D2042490860704773B5414E84B030780D46C00703D157F7F3FF00286BD057F715FF364C2078C00701D058F79FF8062057F7D4FE71780A2907D10498354900BA20F0FF0091F8C21039E02E48314A43684BB3B5F5802F39D80068D0B1DC208DF808009DF813008DF809009DF812008DF80A009DF811008DF80B009DF810008DF80C000123052102AA0846009357F7AFFE23E0049801EBC10100BA02EB410120F0FF00497B0BE0B5F5805F0CD8049801EBC10102EB41010AFB00622E0D0000BA097B20F0FF00084357F770
:F95DB70092FE09E0B5F5004FE2D901EBC10002EB4000C07B57F781FE57F715FFC007FBD12078C00701D058F725F8042057F775FE58F70CF806B070BD0000141A2000EB502100186B21009C512100181A200000512100BC66260008B5052100910549096829B96A461721E7F78EFB012008BD002008BDA46C21001F4800787047F0B51D4CC2F347032370047B4FF0000CB4EB520F00D90373002228E00B7886689D0802EB4203012404EB430435550D788668C5F3400506F813504D78866802272D0907EB4307F55511F8015F86680327C5F3C00507EB4303F5548368491C1B5D5B1E3E2B02D34FF0120C03E0521C030AFB00592F0D007B9342D3DC604673
:F95EB000F0BD0000206B210070B504461C4D92F7D1FFA1686962E168A962218A2986618A6986C169C1F3C401E7F708FF012070BD2DE9F04781460D4616461F461420DDF8208092F7A3FC04000FD00622494620469CF75EFDA560E6602782A4F812802146BDE8F047074858F7ADBCBDE8F08708B500231A4619460093FFF7DAFF08BD000098E42000692F0D0070B5044690F8CE0088B000EBC00101EB4010D349096801EBC005E088B4F81811884222D3B4F81A1188421ED82089A18B88421AD16089E18B884216D1B4F8220110B9B4F8201149B1B4F84810B4F8202191420AD1B4F84A10814206D115F8830F40F00800287000200AFB0050300D004EE084
:F95FA90095F8830002AE20F0080085F883000F208DF80800B4F81801ADF80900B4F81A01ADF80B00A08BADF80D00E08BADF80F00B4F81A21B4F8181194F8CE00731CA5F7B8FA9DF8111019B9ADF80900ADF80B000146731C01AA2046A5F746FA9DF8110084F81C01BDF81200A4F81E01002006EB400104EB40028989401CA2F828110628F5D394F8CE00182202A9D5F7DCF900280CD115F8830F40F008002870072084F81D0194F8CE100820C4F705F808B070BD2DE9FC4155680446103517460C2947D1687884F8B9006888A4F8BA00A888A4F8BC00206B40F480702063800501D4206B07E000212046DAF79AFD206B20F40070206341060A0AFB0047E2
:F960A200310D00D4000519D42046A5F7E3FA94F8CE002021D5F72BFA10E094F8CE00D5F717FAB4F8400020F01000A4F840002046C3F7D4FF206B20F04000206394F8B900082804D3002221460820B7F7CBFAB4F8BA000F2802D12046A5F7A5FAC5E00F29FCD194F8CD00012828D1B4F84000410503D4B4F84210490520D520F00100A4F84000B4F8420020F00100A4F84200B4F8400020F48060A4F84000B4F8420020F48060A4F84200206B800707D523212046DAF78EFC206B20F002002063B4F8400038B1400502D50F2223218BE00F222A2188E0B4F8420040F201463042F6D16D1C29462046A4F739FE002877D194F8CD00012806D001AA29462066
:F9619B00460AFB003E320D00A5F7CFF8002879D029462046A4F756FE18B13E498968890665D52988A4F818116988A4F81A11A988A183E988E183297A84F81C11B5F80910A4F81E11002105EB410204EB4103B2F80B20491CA3F828210629F4D3002184F81D1168B129462046DAF791FC28B101460F222046A4F7C1FE31E0A4F840602EE0A4F84060206B40F00200206394F8CD00012808D1EB880093AB886A8829882046A5F7B2F91BE096F724FD064696F724FDB4F84A20B4F848102046B4F78AF82888A4F844006888A4F84600A888A083E888E083304696F713FD2046A4F778FF94F8CE002021D5F74AF906E00EE00AE00F221A212046A4F781FE78BF
:F962940068BDE8FC41000AFB0035330D0021A4F738BD0F222021F3E70F220146F0E700008C372000D0BC200030B48D4800238D4C416901201A4694F8A94009E091F83A501DB18D6D0DB15B1CDBB2521CD2B260319442F3D823B98449D1F8C41001B9002030BC0421B0F728B970477CB511F8012B401EC3B2E92A3ED1012B3CD911F8010B5B1E0A46D9B2032815D1092933D30DF10501002012F8013B401C01F801390628F8DB71485178D0F8C43092F90220002B21D068461EE002281DD104291BD310785178947800EB012080B292F903509AF7F1FB644991F8A91088420CD0604900EB4000496901EB4010836D002B03D02A462146801D98477CBD2DE1
:F9638D00E9F04186B0DDE90C780C460AFB002C340D0015461E46D00804D041F6A87006B0BDE8F0811422002101A89BF7DAFC0B208DF8040001208DF805008DF80850200A8DF809608DF806408DF80A708DF807008DF80B800121AFF2E10033F784FDAFF2EB0301AA08214FF6E940B9F7F6F9D6E72DE9FC47DDE90A6789461546984602219AF77BFB040003D141F6AA70BDE8FC87B9F1000F03D01FB941F6A870F6E70027A765FFF748FFA0F5F851A639EED0F3B208F0FF02CDE900232188EBB24A460120FFF7A1FFE2E72DE9FC4104000D462948089916461F4600D10021C0F8C410FFF72AFFA0F5F851A63909D0FBB2F2B2CDE90023EBB2224600210238
:F964860020FFF784FFBDE8FC818021B0F75FB81B0AFB0023350D0049C1F8CC00704730B585B004460D461422002168469BF760FC03208DF800008DF8014001468DF8025000236A464FF62350B9F78EF905B030BD10B586B004461422002101A89BF748FC01208DF804008DF80540002301AA02214FF62350B9F778F906B010BD08562000A85F200038B920002DE9F05FDFF81C94054690F8286090F82E00DFF81484D9F80070002428B1D8F8000095F82A10847B8173002082F79DF8FE494FF4461B0843CBF86C0BD6F779FED6F7B1FE95F82E0010B1D8F80000847395F82E0091F75BFB824695F82E0091F762FB044637B197F82F0018B107F13008010D
:F9657F00260AE0022E01D0032E00D1B61E314605F11C00C5F70AFB001A360D00E1FC80460622414609F104009CF723FA89F80A60D8F80010D946CBF8741BB8F80410CBF8781B9AF8F8201AB15146DE48CBF703FE9AF8F8100122891D002081F760FD804695F82700DFF864A3012801D0042826D101220C21002081F752FD40F0010457B197F82E0038B1B96AC9F8B01BF96A89B2C9F8B41B0AE0296AC9F8B01B696A89B2C9F8B41B95F82600012801D144F08004D9F86C1B41F00801C9F86C1B3DE0C34B90B994F8F8201AB121461846CBF7C3FD94F8F8100122891D002081F720FD40F0040148EA014428E0022824D194F8F8201AB121461846CBF7AEEC
:F9667800FD9AF8120094F8F810002848F0060701F106014FF001024FF0000AFB0011370D000008D081F702FD40F00A0047EA0044D7F73DFD08E081F7F9FC40F0040047EA004401E048F00204012E01D144F040144E46C9F8684B04F00F00062808D19AF8120024F00F0418B124F4702040F480244FF47F4000EA1420E1B20843C6F8840BA87B002181F703FE286C81F76FFCE86BC6F8F00B9248008AC6F80403BDE8F05F82F7ECBCC07A70472DE9F14F864890B04FF00108C1464FF0000B109D0468D8F7F9F84FF446110C90D1F8ACAB854802680D92406880B20E9095F827208248012A01D1007800E04078A874D1F8986BC6F3801001460F900DA881B5
:F9677100F7FEFE0B90CAF34100032875D17948C6F3C0110268099240680A906C4806F00AFB0008380D000F07827A8A4206D106220DF12601001D9BF76CFA08B14FF000080C9800286CD00B98002869D0B8F1000F66D0D8F7C0F8002862D0F4B395F82700012801D004283CD194F83600012857D194F82E0050B106220DA904F128009BF748FA18B9022084F82E0049E082F767FAA8BB002105A80A460B468C4680E80E109DF837008DF814009DF838008DF815009DF839008DF8160001AA05A904F1080082F74FF903220DA901A89BF722FAB0B906220DA904F1280000E002E09CF7D7F8D0E70DA8D8F7F8F848B90DA8D8F713FE38B9B1B220233E4A10C7
:F9686A0098C3F7C3FF0FE099E06CB190F83710012909D194F83710012905D1102204F1180118309B0AFB00FF380D00F7F9F9109C5FEA0A7004F11C040ED52046C5F7FBFA40B10DA93046C6F726F981465FEA000B61D001E04FF00008052F5CD12046A246C5F767FB00285DD0B8F1000F5AD05046C5F7E1FA800702D5B9F1000F1ED19EF774FFC0B10DA90F989EF771FF0446401C48D05046C5F7CFFA80070FD506AA07A920469EF760FF88B307A9069881F7F8FDFF2837D002E0B9F1000F33D02846C6F731F9BBF1000F02D010988AF7A3FC2846C5F71AFF95F827000128686C81B216D1012015E0D41A21002C3720004001000D00083700C01E210000F8
:F969630009370008BD2000000A370060372000040A37000AE00320C3F790FB06E0092F04D10C48807C08B1D7F70AFB00F6390D0084FC0A48006800060BD5052F03D0032F01D0092F05D1B1B20123054A1098C3F727FF11B0BDE8F08F0000C01E210004382000000A3700282177489AF780B8764910B5884201D1002010BD744A00211368744A12780CE001EB410404EB011403EB8404844201F1010101D1C8B210BDC9B29142F0D3052010BD2DE9F0410646FFF7DEFF674905460978884245D86248614F3C3000EB451457F8350048B33046CBF77AFC28B35D4890F82700012820D00220E074F07BE073B07BA07307EBC5004168B06996F7B0FB20F001FC
:F96A5C0000A06125772046CBF761FCB0B9534920468CF7C7FF322020740020A074607420468CF73FFF0CE02046CBF750FC000AFB00ED3A0D00280ED02046BDE8F0418DF779B920468FF732F9207F012157F83020BDE8F0411047BDE8F08110B50446007D0121032801D004280ED100290CD0207F384951F83020002A06D0002190472046BDE810408DF79BB810BD00207047182192F70EBF324B1B78984201D9002070472C4B43F8301040F27121B2FBF1F103EBC00021F0010141600120704770B50446B0F848502848006840050ED4ADF72DFB2649B0FBF1F04FF47A71484340F27121B0FBF1F020F0010005440220E074A069284420F07840A0612075
:F96B5500468FF7D7F82046BDE8704057E7024641EA00201149283151F82220002A03D04FF0005170F7B5B87047042806D80B4B283343F80AFB00E43B0D002010AFF22901AFE700207047064B0A462833AFF2390118600020ECE7024B28331960AFF24901E6E7006D2100381B210064372000491E200028AC0D001437200075D145172DE9F04781466448884680684FF0150410F400774FF0010601D021240A2621463E2048F727FB050079D0E11EE81C92F787FEAE7085F80380484690F79AFB04005BD0A08DA88094F8CD00A8710026D4F85C01002F69D094F8521000284ED004F14C00074681F7ACFCB0B1D4F85C0190F82E10022910D1807906228040
:F96C4E001CE871D4F85C1105F108009BF7DFFE0622394605F114009BF7D9FE0DE094F85210E9710622394605F108009BF7CFFE062105F1140092F7460AFB00DB3C0D00FE94F85300022801D003280CD1D4F85C0190F82F1039B100F13001062205F10E009BF7B8FE04E0062105F10E0092F72EFEE18869832189A9836189E98394F8CD00A0B985F8206046E0E971062204F14C0105F108009BF79EFE062105F10E0092F715FE062105F11400E0E739E0607C410985F820102FE0B0B194F8521004F14C0081F744FC78B1D4F85C0190F82E10022909D10146062205F108009BF77BFED4F85C01807908E0062204F14C0105F108009BF770FE94F85200E88D
:F96D470071E088E881208928826089688294F8CD0008B92E7502E0607C400928752846BDE8F047D9F7E4BCBDE8F087D0BC2000012805D1002903D10249002081F80AFB00D23D0D00180270470000085620007CB50446D7F7E0FD3C4E002568B1207B022801D0032808D16846D3F7B1FEC0B26946D7F794FE306000E035602046C5F77EF810B10420D6F770F9A07CC6F7B6F9A07C00EB80012E48006800EB4100C18819B94FF6FF7101817CBD05817CBD70B500250446C573807CC6F7E5F92046C5F75EF808B190F721FC214AA07C126800EB80004FF6FF7102EB400001811B48056070BD30B51B4A002112680846D37B012B04D1D27A012A01D101203053
:F96E4000BD164A1368164A14780EE001EB410202EB011203EB82021C32D57B012D02D1D27A012AEBD0491CC9B2A142EED330BD01737047084A00EB8000126802EB400006229B0AFB00C93E0D00F7D2BD817270470622001D9BF7CCBDD41A2100683720002C37200064372000491E200090F85A10002905D1002301461A4618466CF721BF70477FB50D46164603246CF7A5FFE8B18DF800608DF80250F1B249B900218DF80110D0F86C016A4607216DF73FFC0CE0032180F8761190F877118DF80110D0F86C016A4607216DF75DFC0024204604B070BD70B504460D466CF774FFD4F86C1101B1891CE46E2B46A446BDE87040062260477CB501AB00930D85
:F96F3900464B7A8A1D044603216CF779FF78B9002409E0281980796CF762FF18B12A4616216CF717FF641C687AA042F2DC7CBD9DF80410297068702A46072120466DF725FC7CBD704770470AFB00C03F0D0000207047704710B5012199F7E3FD002800D0C06D10BDF8B506000D464FF6FF740BD03046CDF798F8C8B190F8E41030469AF768FBA04212D000E0FE208DF80000000A8DF801008DF8025000236A4603214FF62640B8F72EFC08B90120F8BD0020F8BD000010B533F787F8BDE8104062F7DDBE33F707B910B5A6F75DF8BDE8104062F7D4BEA6F78EB833F778BCB8F758BE70B500240D4601280AD100221146A6F74AF862F7C3FE04000AD12979
:F970320046012002E020B92946002033F7A7FC01E040F20714204670BD40F20110704770B505460E4600F047F9040016D066600420A081A07B4549012201EB8000016A2846A6F743F962F79CFEA0F5800AFB00B7400D007105460B3905D0204662F78EFE01E04FF48275284670BD38B504460D4632F73CFF4278017802F0E003807803EB012189B200F0FC0002F01F02042D21D004DC012D10D0022D39D114E0082D2FD00A2D34D16178207801F01F02618800F0FC0021F01F0113E02078627800F0FC0002F01F020CE0638823F01F0363809BB2194305E0638823F01F0363809BB299438DF8020001F0E00010448DF80100080A8DF80000684632F7DB7C
:F9712B00FE62F745FE38BD2078627800F0FC0002F01F02DBE740F2091038BD10B5044632F7E8FE017889B209026180427802F0E00211446180817801F0FC012170407800F01F006070002010BD0449FF2801D081F80AFB00AE410D00280091F8280070470000E810210010B50A79032A09D84B791B2B00D92AB17B2B01D9032A01D3FB2B02D91221017010BD184A136823F00303136013680C7904F0030443EA04031360134B4A791A70124B1A844A794FEAC20202F170025A844A799A844A794FEAC20202F17002DA840B4A497911804FEAC1020A4B02F170021A80094B198009490A804FF00101C17010BD000014873100AA372000A03621003C6B21D8
:F9722400003E6B2100406B2100426B210070B505460C46806CB5F704FE95F8C81004F19804890701D0D83000E09830B4FBF0F070BD70B50446857C114801220078A074002120468EF754FFA574A26CB2F8C2108B1E834200DC880AFB00A5420D001EE17B21B9B2F84A10814200DC084640F2712141432046FFF7CEFF00B901200249088270BD0000A037200040D4200010B5002242F604219EF7A7F9C0B210BD10B50A4642F6A6219EF79FF9C0B210BD70B51F4C06460025E07B38B1A089022804D1A26812B13146012090476D1CEDB21034022DF0D370BD40F21110704770B5134C0025E07B58B91022002120469AF763FD0120E073A57300202060206B
:F9731D004670BD6D1CEDB21034022DECD3002070BD08490022CB7B23B18B89834201D101207047521CD2B21031022AF3D3002070470000E8102100B7F7CDB932F782BB32F72ABC32F70ABC32F724BBCBF788B9CBF7DCBF38B51C46049B00930AFB009C430D002346CCF723F838BD32F7A4BBB7F7A6BBB7F775BA32F76EBBB7F744B832F7D0BA30B5A3B00D466C46694601F0C7F92946204632F7FFF9040001D1CDF786FD204623B030BD10B541F6A77432F70BFA204610BDCCF732B857488068704710B534F70BFC08B1002010BD41F6A67010BDF5E708B50022009205228DF800208DF801008DF8021000236A4603214FF65450B8F723FAC0B208BD2D31
:F9741600E9F04F87B0DDE911A704460D4690469946182101A8DDF858B0109E99F771FB01218DF804108DF80540210A8DF80610290A8DF808108DF809808DF807508DF80A900DF10B000021C1F10502B25C491C00F8012B0629F7DB00F801AB0021C1F1050AFB0093440D0002BA5C491C00F8012B0629F7DB13990170149941701599817080F803B0002301AA18214FF65450B8F7DBF9C0B207B0BDE8F08F2DE9F0418EB006460D461746342101A899F72DFB01AC4FF022081F2D01D826B91DB1A8200EB0BDE8F08102208DF80400641C2022002120469AF77DFC5EB155B1641C8DF80550002003E0315C04F8011B401CA842F9DBC5F11F000755002301FB
:F9750F00AA41464FF65450B8F7A2F9C0B2DAE710B5FFF750FBC0B210BDCCF7A3BA0300104601D0E1F763BAE1F77FBA841D21002DE9FC41F94C15461E4623780027089A2770CDE90023A46833462A46A047BDE8FC81B8F77DB932F7DDBDA5F7BABDA5F767BDA5F77EBD0AFB008A450D0032F71BBD31F7E1BEEB498860AFF2430031F753BF38B51C46049B0093234699F7E9FF38BD9AF712B810B541F6B174012199F7EBFA204610BD31F74BBF2DE9F0410746FC26884641F6A67530469AF7FAFF04000ED03246002120469AF70AFC04F10C00424639469AF7AFFB204632F73BFE05462846BDE8F08138B51C46049B0093234633F704FA38BDB8F725BDB8F0
:F9760800F77FBE70B504460D460846CBF7C4F828B1E1B22846BDE8704038F7B0BA29462046BDE87040B8F771BEB8F79FBE70B504460D46CBF7B0F800282946204603D0BDE8704038F717BBBDE8704033F731BA33F767BA7CB51C46DDE90656089B32B1CDE900632B462246B8F70B0AFB0081460D00FF7CBD2B46224602B0BDE87040B8F7E1BE7CB51C46DDE90656089B32B1CDE900632B46224633F7C3FA7CBD002300932B46224633F758FA7CBD01B1172138F78DBA1CB50C46014606220DF101009AF740FB8DF80040684638F700FB1CBD38F7A5BA41F6A770704730B5A3B00546CCF713FD04001DD00121284699F7C4FF20B10121284631F744FF4829
:F9770100B90221284699F7BAFF38B10221284631F73AFF10B1042023B030BD2046CCF722FD00212846B8F7E9F80622294668469AF70BFB684632F75FF80020ECE741F6A77070477D49C1F8CC007047002241F6A7700A70704770B505460C460246002306214FF60140B8F781F8012C04D128460AFB0078470D00BDE8704005F0B8B82846BDE87040002132F78CBB002803D041F6A371084480B2704710B599F71AFCBDE81040F2E738B50C460021009121706946B8F757F9002812D09DF80010490703D5217841F0010121709DF80010CA0606D523780422890600D402221343237038BD10B595F78FFD55494A68CB68821A9A4206D34860BDE810404FF4
:F977FA00F480109DF762BD10BDAFF22500FDF7F2BE2DE9FF410C4615461E46E84601210A9F99F752FF8DF804009D21000A8DF800108DF80500FD228DF801208DF80640200A0B228DF807008DF802208DF80850280A01228DF809008DF80320414688F80A60300AC8720F73380A4873684695F713FB2046030AFB006F480D00F0DDFF04EB840080006421B0FBF1F03049201AC860AFF2A500FDF7B2FEBDE8FF811CB5012199F716FF9D218DF80010FD218DF8011003218DF804008DF80210000A02218DF805008DF80310684695F7E9FA1CBDCCF758BC2048016841F000410160C1F7AEB810B51C48016821F000410160C1F7A7F819484FF4CA01C8601059
:F978F300BDA5F7E3BB10B50C46012199F74CF998B190F84010217090F8401002290AD10088072191F790FB28B1B0F8F000000401D507202070002010BD042010BD32F789BA10B520B1FFF750FB08B1002010BD042010BD246B2100A85F2000582220000300041910B501460020FFF73EFB08B10020EEE70420ECE770B50AFB0066490D000122344C062811D2DFE800F0030C0C0C0C0C0B7A03B101232370CB8802EB1322CA8003E00B8802EB13220A80626872B190470546607840B1207830B10020274A6070126825490C209047284670BD852070BD20494860AFF25B0033F7B4BC1D49002048600220CEF78DBC08B5009313460A4601460220CEF794CE
:F979EC00FC08BD0146022033F7B3BC0A4601460220CEF7B7BC0A460146022033F7B6BCE0F7F7B901004FF0000002D00846E0F734BA704702004FF0000004D0002902D01046E0F78CBB704701004FF0000002D00846E0F720BD704734F72FB80000346B2100DC6D21005C6B21000E4A00F59C71138CA0F84031538CA0F84231938CA00AFB005D4A0D00F84431D28CA0F84621084A1388A0F848315388A0F84A319388A0F84C31D288CA82E7F7F3B80000A03621003C6B210010B50446B1F803008FF7B7FC88B16549097801F00802016B4B0403D590F8AC301B0700D53AB990F8CD2022B10C2020700CE00220FBE741F480610163B0F8421041F00801A05A
:F97AE500F84210C2F724FB012084F8300010BD10B500F108020446C8780123921D091DD7F700FC20700620E07010BD2DE9FC4706460D46B1F803008FF77DFC04004FF0020975D0206B010476D520F400402063B5F80F30B5F80D20CDE90023B5F80B30B5F80920B5F80710B5F80500B2F71CFC122100285ED0B5F80500A4F82401B5F80700A4F80AFB00544B0D002601B4F81801B5F80520904200D810468046B4F81A71B5F80700874200D30746B84545D894F8CD0000BB95F7D3F8824695F7D3F8B5F80F20B5F80D102046B2F739FCA4F84480A4F84670504695F7C8F8B5F80900A083B5F80B00E083206B40F0020020632046A3F723FB09E0B5F80B26
:F97BDE00300093B5F809303A4641462046A3F735FD3078122818D194F8CE00D3F7D9FCB4F840000F2220F4806080B220F00100A4F840003B212046A3F719FA0FE00CE001E03170E8E70C20307094F8CD0030B994F8CE00D3F7BDFC01E086F80090B5F80310F18186F80390BDE8FC87000008BD20002DE9F0438DB00446D3F746F994F8500000287DD094F84F0AFB004B4C0D000008B1012878D1A66D0BA8D2F781FF804694F85100F0B90BAB42462146204600F0BDFB002813D006220BA906F14C009AF7F9FE86F8528042460BA92046E6F7E8FA0028DAD08B48012100688170C1700DB0BDE8F083D6F780FE002870D0D6F786FE0028FAD0002741460BF4
:F97CD700A880F797FC4FF00209002864D094F82A00012816D10BA8D6F7F5FE18B90BA8D7F710FC30B1C179FF297AD00127C6F85C0176E0B4F842100423754A2046C2F7B8FD6EE0D6F85C51002D6AD095F82E0040B1062205F128010BA899F7F1FF08B901275EE095F8360001285AD181F70EF8002856D1002107A80A460B46884680E80E019DF82F000DF12C088DF81C000AFB00424D0D0000E0A0E09DF830008DF81D009DF831008DF81E0003AA07A905F1080080F7F1FE0322414603A899F7C4FF98BB06220BA905F128009AF77BFE85F82E90E879FF28C7D0D5F707F9C4E773E094F82A00D6F85C5101280BD102220BA94046D5F73EFAFF2804D00BE4
:F97DD000A94046D6F7BEFE05468DB1A97941450ED106220BA9284699F799FF40B9002085F82E00E8790127FF2801D0D5F7E0F894F84F0001284AD1002F48D038490DF12607D6F85C510822091D09A8CAF72FFA34480068C0F3C011384680F7F2FBB0B395F82F0030B1062205F13001384699F76EFF60B395F83700012828D180F78DFF28BB002105A80A460B460E464EC09DF829008D0AFB00394E0D00F814009DF82A008DF815009DF82B008DF8160001AA05A905F1180080F776FE0322394601A899F749FF38B90622394605F130009AF700FE85F82F9094F82A00012805D1E6F77EF9FF2801D0D5F787F81049A07C8978884202D12046E6F73AF820C3
:F97EC900460DB0BDE8F0430121D2F751BC10B52C2209490948C9F780FD094907480860AFF28721816110BD34372000000A3700988B3100A0372000A0752600EC6D21007837200010B54FF44811E8B1012829D0022844D151F88C0F20F003000860086840F002000860086820F470400860086840F440400860086820F470200860086840F44020086026E051F88C0F20F003000860086840F003000AFB00304F0D0008601A4920200860886018E051F88C0F20F003000860086840F002000860486820F470204860486840F440204860486820F070604860486840F050604860FDF77FF8002010BD042010BDFDF77DB8FDF782B8FDF7A1B838B51C46049D
:F97FC2009B0093234639F714FC38BDFDF779B800008C62330000F0D0BC66F778BC30B4401EC0B2022404EB002030BC33F7CEB830B4401EC0B2022404EB002030BC33F700B97CB514461D46DDE906230646491EC8B20221CDE9002301EB00202B462246314633F718F97CBD33F7ABB8401EC0B2022202EB002005F079BD401EC0B2022303EB0020CEF71FB8401EC0B2022303EB0020CEF75EB8401EC0B20223030AFB0027500D00EB0020CEF7C0B8401EC0B2022202EB002033F749B9401EC0B2022202EB0020CEF713B9401EC0B2022101EB0020CEF7D7B92DE9FC410446CF480026007868B3DDF749FE50B394F8500038B394F84F1009B1012922D1C8A6
:F980BB0048856D6846D2F76BFD074694F85100C8B90622694605F14C009AF7EBFC85F852706B463A46BF49204600F09FF950B13A466946BB48E6F7D3F8060003D0BA490120096888703046BDE8FC812DE9FE4F0026044601253746007C3146BDF735F800902046D2F7F4FEB4F842000822C0F38018AE4901A8CAF7AFF894F84A00DFF8A0A24FF00009012841D0DFF8A4B2022858D003287BD004282AD194F8500008B394F80AFB001E510D004F00042801D00A281BD1DBF80010414517D19E48062201A9001D99F7DCFD80B90126D6F730FC60B1D6F737FC48B1414601A880F74AFA20B101A8D6F7AFFC00B903262046D2F768FD2046D2F7DFFADDF7C650
:F981B400FD10B19AF8000010B994F85610A174002E79D0B4F84210F3B2C6E094F850000028ECD02046FFF760FFD0B98AF8009094F84F00002868D00628FCD00228FAD00128F8D00828DAD12046D2F7A7FD0746D5E794F850000028D1D02046FFF745FF08B10025CBE78AF8009094F84F0008B1062873D194F8510088B97148007870B1002308F0FF0101A8009AC3F792F830B9204689F772F884F85090B0E767E02046D2F77CFD0646940AFB0015520D00F851000028A7D165484FF446190068057AF0073ED0022D01D0032D24D1D6F7B7FB08B3D6F7BEFBF0B1414601A880F7D1F918B101A8D6F736FC03E001A94046D6F769FC78B190F82F1061B102C3
:F982AD006B09F668314A63808E8863086840F04000086018E040E02BE0AD1E3DB94E480268C9F89C2B8088C9F8A00B0CE0012D0AD14A4909F668300A68426389888163016841F0400101600421454884F84A1090F82610C9F8101B3C480025001DD2F74DFCCBF8000051E7FFE7022801D001289AD12046D2F719FD064647E794F85000002891D094F84F0008B106288CD1B4F84000401EA4F8400038E78FB131484079022806D0B4F84200FAB227490AFB000C530D00D5F7DCFF06E0B4F84210FBB2234A2046C2F7A3FA002D03D001212046D2F70EFABDE8FE8F70B505462448007830B14FF4CA00006E2249C0F3400008702148007850B1214C95F84E15
:F983A600002060C0F7D2FB18B1206840F008002060DDF7CAFC002806D01A480068016A2846BDE87040084770BD10B52C2216491748C9F715FB164915480860AFF2C7218161AFF26701016210BD3E372000841B210034372000000A3700446B2100EC3720003037200004512100641E200004382000D81E2100402220003F372000D0372000D43720007837200044752600186E21004C3720002DE9F0474FF44617D7F8400391469A464FF0010800F0010591F82A0AFB0003540D0000012853D18E6D96F85340D6F7C9FA00284CD0D6F7CFFA002848D04946504680F7E1F818B15046D6F746FB03E051464846D6F779FBC6F85C01022C01D0032C35D120F7
:F9849F00B190F82F1009B1303004E004F0010420468FF714F90168C7F8B01B8088C7F8B40B8CB107F66837386835B140F480003860F86940F4804017E040F040003860F86940F0400010E007F66837386835B120F480003860F86920F4804005E020F040003860F86920F04000F8614046BDE8F0870000024A10609180012070470000A86120002EF718B92EF774B92EF774B92EF774B92DF761BD2EF712BB2EF734BB2EF76EB92EF7A8B92EF759BB2EF768BB2EF7A8BA30F70AFB00FA540D00DFBD30F76BBB2EF7BABE2FF731BE30F7FCBD30F744BE054800680089103880B27047024800680089103880B27047C81020002CF758BB2CF78CBB2CF78D1D
:F9859800BB2CF7A2BB2CF7AEBB2CF7DEBB2CF728BC2CF72EBC2CF734BC2CF746BC2CF771BC2CF78EBC2CF7A0BCFEF7CFBC2CF7CCBC2CF7FABC2CF705BD2CF716BD2CF72DBD38B51C46049B009323462CF739FD38BD2CF776BD2CF790BD2CF7A2BD2CF7BCBD2CF7DEBD10B5044638F724FF60040BD506480068002807D005490978022903D1BDE8104038F7E8BE10BD0000601120005E1120007CB514461D46DDE90623CDE900232B462246A6F747FA7CBD36F776BCA6F789BAA6F787BA360AFB00F1550D00F787BCA6F791BAA6F796BA36F7FFBCA6F734BB36F734BD36F757BD36F78CBCFC480068002803D0FB48408E35F71EBC704710B50078132801A4
:F9869100D1FFF7F1FF012010BDF64948617047F4494861704710B508460C46F2490A6812B1904700280FD12078214620F07F002070EE48C0795FF780F9002804D16088BDE8104038F7BEB910BD00B5A3B001788DF800104178827801EB0221ADF80210C178027901EB0221ADF804104179827901EB0221ADF80610C179007ADC4A01EB0020ADF80800126869461F20904723B000BD10B5A4B004468C22002101A899F799FBD34A8DF80440126801A91F20904724B010BD10B501004FF0030423D0881C0AFB00E8560D000A784978052A1BD00F2A08D03E2A1AD110F8012B032A16D1FFF7B7FF13E0042911D101788278C07802EB002080B2A0F50050137A
:F9878A003807D131B10846FFF7CAFF02E0BC49C0780870204610BD0178407801EB00200004000C01D01120BAE7704710B5BAF762FDB448816DBDE810400020084770B50D46044601460622284699F7F5FAA11D05F10800BDE87040842299F7EDBA70B50C46054601460622204699F7E5FAA01D05F10801BDE87040842299F7DDBA2DE9F041A24D0C46EA6800269F49A4B08046002A75D0012300274046B8F10C0F5CD00EDCD8B1022847D00A286BD00B2806D1A868002803D0964912209047AF607CE012281AD0130AFB00DF570D002828D01C2876D1AFF796FD002872D0002031F7DEFF6EE00220A4F75EFC2868002868D18B48006890F85E0040009976
:F9888300F7DFFE28605FE001A92046FFF7AEFFA86818B18C2201A9814832E0EA6801A94046904706462EE001A92046FFF79EFFEA6801A940469047060024D1214601A8FFF784FF1FE002F0E6FFE8B3207AD8BB2079022838D120686946FFF744F898BB9DF8001021712FE06F4801786F4811B92179012901D1077026E00370102221466B4899F760FA304624B0BDE8F08120E0FFE791F84100012810D101F516710878A0718878E0710879207291F82400607291F82600A07291F82700E0728C2200215748AB6099F794FAEA680AFB00D6580D00214640469047DAE741F6AD70D7E710B5044608001146AFF25713494A13604C4BDC6000D0586063F7B81C
:F9897C00FDAFF2E12041490863AFF2CD20486103F059FBAFF237214A48C160AFF2D511404C016002462178474B04F130007BF72CFFA06018B9A16D0120884701E07BF7E6FF002010BD1CB54FF0FF346FF0004120466BF73CF9214620466BF738F94FF400104FF00001CDE9000101463748016001994160364841F2707101604FF003018160FEE710B50446C00701D0BAF710FCA00701D5BAF756FC600703D5BDE81040BAF7A2BB10BD10B5BAF768FBBAF786FB1C492748886527480068002802D0BDE81040004710BD10B5164C2070AFF2270AFB00CD590D00002249214A0860217804F10C009CF73FFF4FF0FF32AFF2610160609CF760FF21781B4A049F
:F98A7500F14C0078F7C2FEA064BDE81040BAF799BB000054112000645E2000A8662000686C2100181E2000501D2000246B21002C622100FC612000506B2100446E2100C4102000346B2100356B2100DC6D2100841D2000581D200000E100E00090320083270700541D2000681D2000601D200010B50A4890F8581000290ED1012180F85810074894F7C6FA06480068A7F7D0FBBDE81040044899F750BC10BDCC6521007BEB04000811200001EC040009B135F7F5BC35F7E3BC35F706BD35F710BD35F71ABD35F7CABD35F706BE70B50446007B0D4640B10AFB00C45A0D0094F86800032804D0284699F7EAFD132070BD294604F1180099F71CFEA06A69F1
:F98B6E00880844A062204663F7CDFEA06A0028EFD0032070BD2DE9F84F89468F49834648681546401C486000211980984605276946584636F763F9002804D115B10098808A10B90120BDE8F88FDFF810A2DAF804001B3884B2A7F78CFB0099CE69E6B17288898A5019884217D8A04215D8B088811806F1080008442A46494699F7F8F80098816A29448162A8F80050708828447080A7F76CFB0020D5E7A7F768FB704900980968826A0989103989B2133901EB41018A4233D8008C032830D8DAF8000099F7EDFC06002AD01220B080A6F806B00098808AA04200D2040AFB00BB5B0D0046A54200D22C4674804FF4A850308006F11A002246494699F7BE78
:F98C6700F831460098FFF76EFF0746009864F74CF90FB1032F09D1B8F80000A1442044A8F80000281B05042D0CBFD1384691E778E735F77ABC4F49C86070472DE9F04100254D4E4D4F19E0C5EBC500716E00EB400001EBC004607878B1A07868B1204663F728FEB4F8981009B140F40030D4F88C2012B108B1217890476D1C386890F86300A842E0DCBDE8F0813DA10020D5E738B51B30ADF800000446ADF802100121684699F733FC314A11C268B1AFF225003049324CC860206890F86300800094F7EEF82949086008B9012038BD216891F863108A00002199F7A7F8002038BD0AFB00B25C0D0030B480B9254A6FF0A704536EC1EBC10202EB420204DD
:F98D6000EBC2021A440223A2F89E300523A2F89C30184A1268002A05D002EB810252F8042C30BC104730BC7047FEB50E469C46AFF2450308A932C9CDE9014300916346314635F72EFB10F0FF0611D10A4824880068694600EB840040F8045C204635F77EFC0C208DF805006946204635F74DFC3046FEBD0000606B2100D06E2100C8102000A8662000385F2000C41020006E6300002DE9F0470546012791F824000C46B846B9464FF0000A08B984F826A0A078012688B1A08830280AD3A5F8700085F86E60B5F8680040F00100A5F868000AE03020A080002706E095F86E0018B1A670B5F8700AFB00A95D0D0000A08094F8200098B1608C28B94FF6FF40
:F98E59007060844FF0000913E085F88C60608CA5F88E00B5F8680040F00400A5F8680007E095F88C0020B184F82060B5F88E006084A17904F1080005F17403A1B1617A02290DD801461822184699F735FE85F87260B5F8680040F00200A5F868000BE066724FF0000807E095F8721021B1A6711822194699F720FE21462846E0F7BAF9022808D1208084F820A084F806A084F802A0BDE8F087012800D000205FB1B9F1000F08D0B8F1000F05D020B1284695F717FE0120EDE726800FB184F802A0B9F1000F01D084F820A0B8F1000F01D084F806A008B184F824A00020DAE72DE9F84F0746FE48DFF8F4930AFB00A05E0D004038051F0090FC48DFF8E897
:F98F5200A3007BDFF8DC83F74C09F104060AF10C0AB84202D13846BDE8F88FDFF8D0B3012F0BF1100B2DD19BF85E0028B1D9F8000020F00101C9F80010002001F099FE002001F088FE206820F001002060206820F002002060206820F004002060206820F008002060206820F010002060D8F8000020F08001C8F80010DD48016841F0800153E0DB48016821F080010160D8F8000040F08000C8F80000206840F001002060206840F002002060206840F0040020604FF0010001F04EFE286840F400502860286840F400502860286840F400502860286840F400502860286820F4005028609BF85E0010B3DAF80000400AFB00975F0D00F07C01CAF80098
:F9904B0010DAF8000040F08000CAF8000000980068C0F30200D0B101281ED0032822D0052805D1306820F47C1000F540303060D9F8000020F0010148460160AF480773BFB99BF8500094F749FC01206BE7306820F47C1000F5F810E9E7306820F47C1000F57020E3E7306820F47C1000F5E020DDE7002057E72DE9F0479E4C9D4F9F4E5C3C083700258046361F307808B145F7A0FD0020FFF730FF8146386868F304003860307848B197494FF4C8200860012094F714FC2068C003F9D4206840F001002060307828B901E005F101052068C003FAD5012094F702FC2068C003F9D54FF44D10876C206820F0010020604846FFF703FF0AFB008E600D0030B8
:F99144007808B145F79DFC3178380A21B91DB94FF0FF30BDE8F08700B2FBE770B50646FFF7B0FF401C4FF0FF350AD03046FFF7A9FF0446401C04D03046FFF7A3FF401C01D1284670BD704B1868A04200DD04469968221A51435A68101A01EB600191FBF0F070BD2DE9F34F664C67485C3CDFF890B1001F4FF000094FF0FF36007883B00BF1080BC846374608B145F729FD5E4D0020686028602068C0F340000190206820F0020020600020FFF7ADFE0290DBF8000020F01F000F30CBF80000002045E0206840F001002060012094F78EFB2068C003F9D5206840F0020020604FF44D10806C216821F002012160216821F001012160000A4845060AFB00BD
:F9923D0085610D00D90FFA89F2296881461144296020E0404506D90FFA88F2296880461144296017E0B04207D2711C03D0296832B21144296006460DE0B84207D2791C03D029683AB211442960074603E0296800B2084428600AF101002F498246103191F85200001D5045B1DC4FF000094FF0FF36049ADBF80000C846374662F30400CBF80000CA468B4652E0206840F001002060012094F730FB2068C003F9D5206840F0020020604FF44D10806C216821F002012160216821F001012160000A484506D90FFA89F269688146114469602DE0404506D90FFA88F2696880461144696024E0B04207D2711C03D0696832B21144696006461AE0B84214D2E2
:F9933600791C0AFB007C620D0003D069683AB211446960074610E0000054613300A0403300404333006C6B21006C06600000013200696800B2084468600AF1010A9BF85200001D5045A7DC0298FFF7EAFD6848007808B145F783FB0199206861F3410020609BF85200296891FBF0F12960696891FBF0F068600398A86005B0BDE8F08F5D4A1168C1F34073834208D060F35D7158481160143090F85110406DF0E67047092802D8C0F111001AE0A0F10A01012902D8C0F10B0013E0A0F110010A2902D8C0F136000CE0A0F11B01022902D8C0F1320005E0A0F11E01012903D8C0F13100C0B27047FF2070472DE9F04F434B8DB003F1040A0AF1040404F1B4
:F9942F0004090C9409F1040AFB0073630D00040B94241D251D2E1D0A94341D04F1040E0EF1040B09940BF104040894241D0794241D04F1040C0CF10408069408F104040594241D0494241D0394241D0294241D01942B4C2B48241D011D647B0A1D002C4CD1274C14342768076060680860A0681060206918606169CAF800100C99A0690860E169C9F800100B99206A08600A99606A0860A06A2860E06A30600999206B0860616BCEF80010A16BCBF800100898E16B016007990020086006990860CCF80000C8F800000599226C0A600499626C0A600399A26C0A600299E26C0A600199086094F85300FFF752FF94F85110606DFFF74DFE0121A4F11000DA
:F995280041730DB044E7686B2100A0400AFB006A640D00330000433300010704D06F490A6842EA00020A607047042802D2B1F5806F01D3002070476A4A52F82000016001207047042804D2664A103A52F8200001607047042809D2001D0122604B8240186809B9904300E01043186070472DE9F04104460E4690461F46042802D30020BDE8F0810125A540284656F7BCF931462046FFF7DFFF5248103850F82400076041462046FFF7C1FF2846FFF7B6FF0120E6E700B5042801D3002000BD494B103B53F820301A60FFF7B0FF012000BD04280FD20830012282404148036823EA020340F8C039002904D050F8C01F41EA0201016070472DE9F047089F12
:F996210004460D4691461E46042802D30020BDE8F00AFB0061650D0087142094F788F9012000FA04F8404656F774F929462046FFF797FF2E48103850F82400066049462046FFF779FF1FB139462046FFF7C6FF4046FFF769FF0120DDE72DE9F041069F04460D4616469846042801D300208EE70120A04056F74EF941462046FFF771FF29462046FFF758FF1948103850F8240006601FB139462046FFF7A0FF012076E710B50446000709D0204656F733F9142094F73EF92046BDE8104035E710BD09B156F728B930E7042801D300207047084951F8200000687047042801D3002070470349103951F8200000687047C040330064AC0D001248016801F0EB
:F9971A00080101600068000701D5002070470120704700B502460AFB0058660D00FFF7F0FF012805D10A48D0F820031070012000BD002000BD10B50022054B03E0845CC3F82043521C8A42F9D310BD0000182335000020350030B50029A3B004464FF00602014601D0643100E01031684698F753FB94F8570002AD8DF80800102204F11901681C98F748FB94F87B008DF81900682204F17C0105F11C0098F73DFB94F86A008DF81A0094F86B008DF81B00062204F16C0105F1140098F72EFBF9486946D0F89C251220904723B030BD2DE9F74FDFF8D09384B0050017464FF000084FF0010105D109F21C6097F737FA60B903E0284697F732FA10B998F7AE
:F998130049FA25B12846CAF7EDFC044616E0E74900200968D9F81046097A0B0AFB004F670D00E0628D120606D594F85020032A02D104F1100503E0401CF4348142F1DC814250D0002C4ED094F850A057B90A2204F12C000599DCF7A1F8608D40F00800608501E084F82C8094F85000032801D184F8508004F12C00002603901638029009EB8600D0F8A03523B11DB1DDE9021228469847761C022EF2DB99F8EC154E46DFF814B341F6A479032932D1002D7ED006222946584698F787FA50BB96F8ED0510F0090F09D140F0080086F8ED0504F11000059A0299B6F7FFFA0320B6F726FA07B0BDE8F08F8DF804808DF805808DF8068000244E4606EB840056
:F9990C00D0F8A03523B11DB1AEA201A928469847641C022CF2DBE6E796F8EC05012869D10AFB0046680D00002D61D006222946584698F750FA00285AD196F8ED05410602D5B6F75BF9D2E727B10020B6F7F5F93B4646E094F8591011F0110F05D1800603D441F0100084F8590094F8590010282AD10320B6F7E1F996F8DB2532B1914B0021123B2846B6F72CFAB0E796F8ED050007ACD4012104F1100097F76CF928B996F8ED0540F0100086F8ED0596F8ED0540F0080086F8ED05284600E01EE0DDE90212B6F790FA92E796F8ED0580068ED42046B6F7E4F9484589D00020B6F7ADF90723DDE9021204F11000B6F7C5F87EE7012200215846A3F70FFDAC
:F99A050078E794F85600A8B1A089A0F57F41FF3988D084F8568000212046FFF7ADFEB4F85400C006060AFB003D690D00D4DDE90212002304F11000B6F7A5F896F8ED05C0070CD0608D800709D5B4F8540020F01000A4F85400A08995F728F84EE7BAF1030F99D11FB1002241F6AD710AE094F85900000790D42046B6F7FEFB81B249458AD000222046B6F746FF37E72DE9F05F83468A461646CAF743FDDFF830910446002799F8EC85A6F120003D46082801D80125C6B2B6F72CF999F8320110B9FF2084F85700062E01D084F85760608D514640F010006085102084F86000024604F1190098F7AEF999F8EC054E4670B106225946384898F776F940B926
:F99AFE0096F8ED05C00701D0012702E00020B6F71EF9012625B100212046FFF734FE07E094F85700072801D008280AFB00346A0D0001D184F8EE60608D000715D4E07D00F01F00052810D07DB984F85660002F22D000231A460121584695F770FE00281AD1BDE8F05FA3F732BFB8F1000F03D0B4F85400C00600D54DB104F11601002304F12C02881FB6F705F8002D04D12046BDE8F05F0021FAE5BDE8F09F2DE9FF4F85B08A4615460598CAF735FB002704463E4698F788F8DFF82080DFF82CB008F5B66104913E31B9460391A4B97DB90598CAF797FB044661E0000008562000C4102000F65B20000000000071E6080088F8275609B08AE6B4F85E00C7
:F99BF7000826504500D00026D8F8D015A160D8F8D015404601F10101C8F8D01594F8591049063ED5804690F8EC0578B304F1100AFB002B6B0D000106220291039898F7DFF838BB98F8ED154046C90727D015B390F8EC1502291ED194F8591021F0400184F85910618D090709D5C0F8C0B5C0F8AC4500220D21049898F757FA07E00120B6F770F8012200210298A3F7DAFB84F8F090B5E703E00121029894F73CF894F8590020F0400084F8590014F8E40F40F00100207084F80C9098F8EC05A4F1E40498B306220599039898F79AF868BB0F2D28D198F8ED054146820625D520F0200081F8ED0594F8590010F0110F0AD10120B6F738F8059809B0BDE8BC
:F99CF000F04F01220021A3F79FBB91F8EC050328C2D0C1F8C0B5C1F8AC45049809B0BDE8F04F00220D2198F703BA0B2DB4D00127B5F7FFFF0AFB00226C0D00EDB377B1B4F85400302120F01000A4F85400608DB140884360850020B6F70BF819E0052D0DD0062D0BD00E2D09D0182D07D0262D05D0292D03D0252D01D0172D11D1B4F8540020F01000A4F85400608D20F01000608504F116012B4604F12C02881FB5F707FF082D05D0222D03D01F2D01D0042D04D1002241F6AB7172E003E0002241F6AD716DE06FB3608DC0062AD594F8560028B184F8569000212046FFF7E6FCB4F8540020F01000A4F8540098F8ED05C00701D0012500E0002504F139
:F99DE900160104F12C02881F00230446B5F7D3FE0020B5F7B1FF002D8FD0204609B0BDE8F04F012193F781BFA4F80CA00121059896F740FF30B1B8F8180AFB00196D0D001019B1C649801D96F7BEFF012300930193534604F12C0204F11601059897F731F8618D0620B04081436185089911B1618D0143618598F8D405032805D1608D022101FA06F10843608584F85890608D000703D594F851000028C1D02046B6F707FA81B2A1F5F850A438B9D00022204609B0BDE8F04FB6F74ABD2DE9F04FA3B007460D469246CAF7B4FA044641F6AD76384696F717FF8146232D01D02A2D04D13846B7F737FA23B025E5DFF874B24FF00008ABF1180BCBF8C885D1
:F99EE200002CF3D09DB9BAF1000F10D0A0890026B842608D02D140F0060007E040F48060608580B2810402D540F40070608555EA0A000BD1A08941F6BA76B842608D0AFB00106E0D0002D120F0040001E020F480606085A089B8420ED104F11000009001208DF8040020680290ADF80C60DBF89C2569460C2090477E4890F8A910494521D0DBF8141009EB490011EB40101AD090F84100022816D1062D03D0052D01D0252D09D1608D062D20F48050608584F87B8001D141F6B9763246514604F16400C8F787FF96E7102084F8600005BBBAF1000F1DD0A089B8421AD194F8EE00B8B12046B7F708FA98B12046B7F7F7F978B1608DC10403D5810401D55D
:F99FDB00800608D584F8EE8094F8EF0018B904F11000B8F7B3FF94F8500002280AD00728D3D184F85080C4F8048004F1100095F7AEF862E784F8508035B141F6B971062D0AD0410AFB00076F0D00F6AD7107E02046B6F73BF981B2A1F5F850A438B8D000222046B6F781FC4BE72DE9FC41002510F8016B0DF10502294610F8013B491C02F801390629F8DB6846CAF7E7F804002ED026B9608D40F00200608521E0394F182E08D10A20B5F779FE01220D21384698F757F80EE0334806226946801F97F7BBFE30B9384698F76AF894F85000012800D0012504F1160133460022881FB5F77CFD002D04D0A28905212046B5F785FDBDE8FC8170B5A4B00546FF
:F9A0D400CAF73BFA0446408DC00602D504F119012EE02846B8F7F6FC1A4E183E96F8EC0530B1062206F2EE51284697F788FE20B38C22002101A897F706FF0622294601A897F7ACFE00208DF80AFB00FE6F0D001D00D6F89C2501A91320904788B99DF80C1003A8FF290CD0411C04F119001022044697F797FE2146284695F7B8FA24B070BD284695F7D9FAF9E720562000A85F2000FC5B20002DE9F0410E4615461F46CAF763F804007ED00DB9202E7BD1102E7AD022DC012E3AD0022E5ED0042E72D11022291D04F19C0097F76CFE287D84F8DA002868C4F8DC0094F87B0040F0040084F87B00608D40F480506085287D0428608D3ED140F400503DE0EF
:F9A1CD00202E7ED0402E51D11022E91D04F1BC0097F74BFEA888A4F8D600A87984F8DB002868C4F8E00094F87B0040F0400084F87B0049E01022294604F18C0097F735FE082205F1100104F1CC0097F72E0AFB00F5700D00FEA87E84F8D800288BA4F8D400E87E84F8D90094F87B0040F0010084F87B00608D40F480506085A87EBDE720F40050608523E01022294604F17C0097F70FFE05F1110106220E4604F16C0097F707FE287C04F86B0F207C40F00200207401E02EE013E0A4F16B044FF00602314604F1100097F7F4FD2046CAF7E7F8002F1FD02046BDE8F0410121FFF788BA1022294604F1AC0097F7E3FD288AA4F8D600E87C84F8D800A87C24
:F9A2C60084F8D90094F87B0040F0100096E7FFE794F87B0040F0200090E7BDE8F0812DE9F0478046A6B0894615460846C9F7A7FFE94F04007DD094F8E40007F2EE5A40F0020084F8E400B8F10D0F0CD2DFE808F0D5070AFB00EC710D004D1311202F5D263C4AD50C0029462046C8F71EFEC8E029462046C8F759FEC3E006260DE0608D052640F400706085286805900622494603A897F795FD55E01826608D40F400706085F3E7608D072640F40070608528788DF81200EAE7608D042640F4007060850622494603A897F77BFD2868059039E0608D192640F4007060850622494603A897F76EFD28788DF812002BE01A26039528E00D26062249465046A5
:F9A3BF0097F761FD012084F8500097F8ED0540F0800087F8ED05BCE70B260220CDF80C908DF81000287808B141F6AE70ADF81200A8788DF8170068788DF81500287800E059E08DF81400E87838B9D7F89C2503A930469047B8F1070AFB00E3720D000F56D1287808B9002601E041F6AD76A87858B104F12C0005901638CDF80C900490D7F89C2503A90F20904736B12878182803D0B4F85E0094F74FFB0622FF21504697F76AFD4FF0000887F8EC8587F8ED858F4897F790FEB6B984F850802046CAF76EFE94F87B0080070DD5002304F17C02CDE9002394F86B2094F86A1004F16C034846C8F7A7FBE87818B931464846E0F7ABFC012231462046B6F79F
:F9A4B80053FA08E0B8F10A0F05D10395D7F89C251A2003A99047002026B0BDE8F0872DE9F041A4B080460E461746C9F7B6FE040036D094F850000125022800D0002531464046E1F7E5FD15B1002084F8500036B194F8610018B994F8D90084F80AFB00DA730D006100606850B14DB116B994F85200A8B1012239462046B6F719FA0FE004F16400019002208DF80800206803905A48ADF81070D0F89C2501A90C20904704F16400B7F7F0FE24B0C8E670B506465248534C90F81052012D02D10020DEF72CFA06223146601C97F788FC601CDEF7D4F9012D04D1BDE870400120DEF71DBA70BD2DE9F041A4B080460F4614468C22002101A897F7C7FC06228D
:F9A5B100414601A897F76DFC3D488DF81D70D0F89C2501A91320904706006ED103AD41F6AE76102F57D011DC012F25D0022F36D0042F62D19DF81D0040075ED5229800262060102205F13C01201D3BE0202F54D0402F52D19DF81D0040064ED5BDF88200A00AFB00D1740D0080229820609DF884000026A071102205F15C01E01D25E09DF81D00C0073CD00026082205F16C0104F1100097F729FCBDF880002083102205F12C0111E09DF81D00800729D59DF81F0020740026062205F1140104F1110097F713FC102205F11C01204697F70DFC0023224639464046C7F75EFF11E09DF81D00C0060DD5BDF8820020829DF88500A07400269DF88400E074CE
:F9A6AA00102205F14C01E3E7304657E7000008562000FC5B20003C592000C44A52F82000018070472DE9FC47C24E00253068002841D0DFF8F88200246F46E0B253F728FF27F81400E2B258F8222037F81400108037F81400B94600B10125641C032CECDB002D28D037680AFB00C8750D0024E0002407EB4400008839F81460064017D0002504F0FF0811E0F0070DD0E9B2404653F7F3FE000707D545EA0410C1B2D7F80620D7F80A00904776086D1C002EEBD1641C032CDDDBD7F80E70002FD8D1BDE8FC8770B527280DD800F00F0405092146284653F776FE28B121462846BDE8704037F795B8FF2070BDA0F12803072B02D8D8B279F701BF00F00F03E9
:F9A7A3000A460009194653F76EBE70B50C46A0F128011546072935D8CEB2600401D5012200E000220021304679F7D4FE2946304679F7E5FE20073BD5E00713D000220121304679F7C7FEA00701D5002200E001220321304679F7BEFE14F00D0F28D0012202210AE0012211463046790AFB00BF760D00F7B3FEA00701D5002200E0012203213046BDE8704079F7A8BE1E280AD16E490A68CB6922F07F4242F0824243F08053CB610A602B462246BDE8704000F00F01000953F730BE70BD70B527280DD800F00F0405092146284653F701FE28B12146284653F7B8FE012070BDFF2070BD70B527280DD800F00F0405092146284653F7EEFD28B12146284606
:F9A89C00BDE8704037F721B8FF2070BD38B50021009127280CD800F00F0405092146284653F7D9FD88B12146284637F704F838BDA0F128046946002079F778FE01209DF80010A0400840E04038BDFF2038BD10B500684049283051F82020C1B23E48C0309047002010BD3C49AFF21B00B8F71DBD0AFB00B6770D003A49091DAFF22700B8F717BD37490831AFF23300B8F711BD34490C31AFF23F00B8F70BBD31491031AFF24B00B8F705BD2E491431AFF25700B8F7FFBC2B491831AFF26300B8F7F9BC28491C31AFF26F00B8F7F3BC01F01F0021F01F0140EA5101214850F82120002A01D0C030104770477CB500236C461D4684E828001A4D272811D866
