:020000040022D8
:10000000F8B5664800F0CEF8654C002525622563FA
:1000100000F05AFD01F08EF910B10120A07001E04E
:1000200000F022FE01F028F801F0B4FD00F0BCFC65
:100030005B4FE5627F1C07F13306207840F001003A
:10004000207001F039FEE07021780D2801F0800168
:1000500021706581F1D00A28EFD03A2812D04C28BF
:1000600013D04D2814D04E2815D0CE2816D05E2897
:1000700017D0E52818D0CC2819D018281AD057281E
:100080001ED050E000F0FAFB16E000F0D0FB13E0C9
:1000900000F0A1FB10E000F019FB0DE000F0E0FA29
:1000A0000AE000F0B5FA07E000F06BFA04E000F0B7
:1000B00036FA01E000F0ADF9A8B3206A18B106E005
:1000C00080202070B9E7608908B1A06A206200F042
:1000D00073F940B300F0D6F828B3E0783A2801D09D
:1000E00040280BD10121684600F093F8D8B160791F
:1000F0009DF80010084410F0FF0F14D1E078572845
:1001000024D03A2821D04C2828D0CE282CD05E28C4
:100110002AD0E52828D0182832D04D288DD0CC28D8
:100120008BD0ED2889D020790022583038701C48B7
:100130000121401C01F0C9FD01B00022BDE8F040E2
:1001400001231146501E00F04CB82E203870144880
:1001500000220121401C01F0B8FD6EE7F07010484C
:10016000012206213430F6E7F070FF2030710C4890
:1001700001220621343001F0A8FDFC2030715CE73B
:10018000F070074801220621343001F09EFD6069BD
:1001900001F06AFD0028C6D065614EE78425220083
:1001A000881F2200854670470047EFF3108072B623
:1001B000704780F310887047F749096849688142A1
:1001C0000ED1F6480121C160F5490A6822F40012F7
:1001D0000A604FF47A4101604FF003018160FEE74D
:1001E000704710B500204FF47A51401C8842FCD370
:1001F00003B90022EB48016821F02201016042F0BE
:1002000001031846FFF7D8FFBDE810401846FFF776
:10021000CBBF70B505460E462EE001F03AFDA0F1C9
:100220003001092901D800010EE0A0F141010529A2
:1002300003D80001A0F55C7006E0A0F1610105297A
:100240001ED80001A0F5AE60C4B201F022FDA0F1FD
:100250003001092901D80C430BE0A0F14101052927
:1002600001D8373804E0A0F16101052908D85738D2
:10027000044305F8014B761E002ECED1012070BD3F
:10028000002070BD10B500F02AFD38B101F056F81D
:1002900020B100F080FF08B1012010BD002010BD8A
:1002A00070B5C14E0024A6F10F050DE0A878315DB0
:1002B0000028A869204402D001F042F801E000F0D3
:1002C0002CFD002804D0641CE8698442EEDB012088
:1002D00070BD30B5002306E0C45CCD5CAC4201D0FB
:1002E000002030BD5B1C9342F6DB012030BD10B511
:1002F000AD4C0F3CA2692AB1E269002A12DB032A45
:1003000010D002E00022C4E90602A74B9954A1696B
:100310001144814212D1521CA4491846FFF7D9FF5B
:1003200050B901E0002010BDE269A049521CC91C6F
:100330009D48FFF7CEFF08B1012000E00020002813
:10034000E06903D0401CE061012010BD002801DD00
:10035000FFF7A6FF4FF0FF30E061E3E770B50D4611
:10036000914E044600F1807101200F3EB1F1807F73
:1003700012D2B07129462046FFF7B9FFD0B9B07844
:1003800029460028204603D0BDE8704000F0D8BFC1
:10039000BDE8704000F0C1BCA4F5A001B1F5801F1C
:1003A00006D2B07129462046BDE8704000F025BF56
:1003B00025702078012070BD38B57B4C44F620654F
:1003C0000F3C1CE02581E0784C281DD001216846B7
:1003D000FFF71FFF002816D060799DF80010084431
:1003E0006071A06AFFF7BAFF00280CD0A06A401C19
:1003F000A0626089401E6081E06A401CE062608902
:100400000028DFD1012038BD01F043FC8DF8000049
:10041000E2E710B501F03DFCFC2824D101F039FCE5
:10042000062820D101F035FC01F033FC01F031FC4D
:100430005D4C0F3C606101F02CFC616941EA0020D9
:10044000606101F026FC616941EA0040606101F0F1
:1004500020FC616941EA006060615549401E8842A4
:1004600001D2012010BD002010BD00B589B0844626
:100470000E208DF8000008208DF8010001208DF875
:100480000200CC208DF80300FC208DF80400002031
:100490008DF805000CF180706B46B0F1807F0ED2B4
:1004A000414A0F3A9278002A0A46014603F10600B3
:1004B00002D000F049FF0CE000F056FC09E0ACF57A
:1004C000A000B0F5801F0ED20A466146981D00F0CC
:1004D000E7FE002805D001220A21684601F0F5FB5D
:1004E000012009B000BD0020FBE710B500F053FE6D
:1004F000002813D0FFF7D4FE00280FD000F0EFFB48
:1005000020B100F01BFF08B1012400E000242648C0
:100510000F38807808B100F01BFF204610BD70B581
:10052000FFF7E3FF002808D001F0B3FBFC2803D15C
:1005300001F0AFFB082801D0002070BD01F0A9FB3D
:10054000044601F0A6FB44EA002401F0A2FB44EAC1
:10055000004401F09EFB44EA006501F09AFB04466A
:1005600001F097FB44EA002401F093FB44EA0044C5
:1005700001F08FFB44EA00612846FFF776FFC0B226
:1005800070BD10B501F085FBFF2803D101F081FBA0
:1005900001280FD0002010BD08ED00E000903200CF
:1005A00000E100E020043600971F2200FE1D22001B
:1005B000FF340C00FA48807820B101F06AFB00F0AB
:1005C000BBFE03E001F065FB00F06DFB0028E2D00C
:1005D0000120E0E710F180720ED3F148002383611F
:1005E0005B1EC361807810B1104600F0AFBE69B9E0
:1005F0004FF4004000F0F8BBA0F5A002B2F5801F58
:1006000004D209B100F0ADBD00F073BE0020704708
:1006100010B501F03EFBFF2803D101F03AFB04289E
:1006200001D00020B7E701F034FBDD4CA06201F0FF
:1006300030FBA16A41EA0020A06201F02AFBA16A16
:1006400041EA0040A06201F024FBA16A41EA006097
:100650000121A062FFF7BEFF00289CD001209AE78D
:1006600010B501F016FBCE4CFF2803D0207948B915
:10067000012006E001F00DFB042805D0207908B91F
:1006800002202071002086E701F003FBA06201F048
:1006900000FBA16A41EA0020A06201F0FAFAA16A17
:1006A00041EA0040A06201F0F4FAA16A41EA006068
:1006B000BC49A062884202D14FF4A000A062002190
:1006C000FFF788FF0028DED0012064E710B5FFF7B0
:1006D0000CFF00280AD001F0DCFAFC2805D101F05B
:1006E000D8FAAF4C0428608101D0002053E701F014
:1006F000D0FAA06201F0CDFAA16A41EA0020A0621E
:1007000001F0C7FAA16A41EA0040A06201F0C1FA13
:10071000A16A012241EA0060A149A0623431E07877
:10072000C8709F480621343001F0CFFA0020A06243
:1007300042680146A2620123206AFFF752FD0120B0
:1007400029E730B50C46C1B00E218DF80010FB2C06
:1007500002D9002041B030BD211D8DF801100121CA
:100760008DF802104D218DF80310FC218DF8041036
:1007700000218DF8051000F180716B46B1F1807F8A
:100780000CD2874822468078002803F1060002D068
:1007900000F0D8FD0CE000F06EFA09E0A0F5A00131
:1007A000B1F5801F07D201462246981D00F06FFD6B
:1007B0000028CFD008E0002104E05D1810F8012BDC
:1007C000AA71491CA142F8D30122A11D684601F07B
:1007D0007CFA0120BEE710B5FFF787FE002808D09D
:1007E00001F057FAFC2803D101F053FA052801D093
:1007F0000020D0E601F04DFA694CA06201F049FA00
:10080000A16A41EA0020A06201F043FAA16A41EA2C
:100810000040A06201F03DFAA16A41EA0060A062D6
:1008200001F037FA0146A06ABDE8104089E710B52B
:1008300001F02FFAFC2805D101F02BFA584C0428BE
:10084000608101D20020A6E601F023FAA06201F047
:1008500020FAA16A41EA0020A06201F01AFAA16A16
:1008600041EA0040A06201F014FAA16A41EA006086
:10087000A0626089001F608101208CE670B5484845
:1008800004212430FFF7C5FC00286ED0444C444DB1
:10089000243420786178A378E27801441344194421
:1008A00069716881B4F80110002A49BAA96271D04F
:1008B0000026022A06D0042A18D0052A2AD0012AA6
:1008C00046D051E0E9BB02284ED135480221243000
:1008D000FFF79FFC002848D0207861786B79421898
:1008E0001A4400036A7140EA011011E049BB022872
:1008F0003AD12B4802212430FFF78BFC28B920780D
:1009000061780844697908446871208840BA000415
:1009100028631BE0A9B9042826D1214804212430EA
:10092000FFF777FC002820D020786178A278014476
:10093000E078024411446A7911446971216809BA66
:1009400000E011E021F0FF01014329636E8121E005
:10095000014309D1124801212430FFF75AFC002835
:1009600003D02078FF2801D0002070BDFFF7BDFD27
:100970000028FAD00A492E20491C00220870084895
:100980000121401C01F0A1F9002201231146501E53
:10099000FFF727FC296BA86A0844A862012070BDF4
:1009A000881F2200EFEEBEFC30B59E4B9E4C00210E
:1009B00008460022C50702D083EA500000E0400844
:1009C000521C082AF6D344F82100491CFF29EFD90C
:1009D00030BD4FF448114FF0050C0968C90401D52A
:1009E0004FF00A0C002305E062461100A2F101025B
:1009F000FBD15B1C8342F7D370478C4900B50320C1
:100A00004860002211461046C0F10F0342FA03F37A
:100A100003F0010383401943401C1028F4DB4FF41A
:100A200048101722026441649620FFF7D2FF8048E5
:100A3000016821F0300141F01001016000BD7D49E5
:100A40000A6842F080020A600A6822F080020A60A6
:100A500076494FF000024A60774B4B610A64774A4F
:100A6000CA60774AB2FBF0F040F0807088604FF4C3
:100A700064108861704770B54FF44E14D4F860016B
:100A8000C00619D445F6C050FFF7D9FFFFF7B5FFF0
:100A90004FF44816306820F00F056A48016841F0AD
:100AA000070101600A20FFF794FF45F48050306091
:100AB0004FF4E13001F0D8F80020C4F83801C4F850
:100AC0003C01C4F8D8026AE75F4930B400200871DD
:100AD00001230B7044F620620A8101F10C024024CC
:100AE0001470302454703124947028320E24147001
:100AF000042454709370FC2313715071534A88700E
:100B000088711070421EC1E906025149087030BC5C
:100B1000B1E74FF48012904209D36FF400114D4BAE
:100B20000144994203D3A0F5A001914206D228B115
:100B3000411C03D0C00701D001207047002070473E
:100B4000464910B5444808603F49087818B144F652
:100B5000206008811FE50889401E0004000C088100
:100B6000F8D139495A20491C002208703648012121
:100B7000401C01F0AAF800220123BDE810401146F4
:100B8000501EFFF72EBB70B5054600244FF4FA66E1
:100B900006E00020401CB042FCD3FFF7D1FF641CEC
:100BA000AC42F6D3FBE64FF44812106800F00F0198
:100BB0004FF44E10D0F86031C3F30113012B24D051
:100BC000D0F8600110F0300F02D04BF6803001E019
:100BD00045F6C0501268D20414D4052913D2DFE8B8
:100BE00001F0030507090B00022106E0032104E0E0
:100BF000042102E0062100E008210844A0F10100E0
:100C000090FBF1F07047012070471068C00401D5D7
:100C1000134870471348405C4FF47A7110FB01F0A1
:100C2000704700002083B8EDF41F2200001032004E
:100C3000608133000401320017100001000002043B
:100C400050C97FBBB8043200881F2200DC1F22007D
:100C5000C41F2200FEDF01000024F40000903200D7
:100C600000770100041E220010B500F0FEF87A495A
:100C70000020087010BD38B50546080A8DF8000040
:100C800014468DF80110A0220221684600F0CEF92A
:100C9000012806D1A0222146284600F0D0F90128DB
:100CA00000D0002038BD08B500F0F7F8012200217F
:100CB0006846FFF7E0FF08BD70B500244FF4FA6501
:100CC00004E0641CAC4201D1002070BDA0220221CE
:100CD000002000F0ABF90328F3D0012070BD3EB531
:100CE0005D4C2178B9B160680223020A8DF80820B2
:100CF0008DF809000122A020CDE9000202AA04F12A
:100D0000080000F04CF903284FF0000002D02070DA
:100D1000FFF7D2FF3EBD01203EBD2DE9F0414E4E12
:100D200004460D463078002740B171680844A0425F
:100D300005D0FFF7D4FF002814D0377074604649FF
:100D4000307808310D54401CC0B2307071680144D5
:100D5000090701D0062804D1FFF7C1FF002801D000
:100D600037700120BDE8F0812DE9FE430746080AEF
:100D70008DF8000015468DF801104FF0FF34A022C9
:100D80000221684600F052F9012802D00020BDE897
:100D9000FE830DF10408DFF8C49019E0082D01D995
:100DA000082000E02846C6B2A022314601A800F083
:100DB00046F9002041464A4607E00B5C6340DBB23F
:100DC000401C52F8233083EA1424B042F5D3AD1B03
:100DD000002DE3D1E0433870010A7970010CB9703D
:100DE000000EF8700120D2E72DE9F84F0546FF21EB
:100DF0000020FFF792FF012444F62066184F4FF0C1
:100E0000FF08A1464FF0CE0A20E02046641C0021D6
:100E1000FFF783FF00281CD0600600D13E80A005AC
:100E200014D1012200216846FFF725FF002810D0C9
:100E30009DF8000060B18DF800808DF801908DF86C
:100E400002A001220321684600F03FFFAC42DCD340
:100E50000120BDE8F88F0000C41F2200F41F22000B
:100E6000901F2200401EFDD270477948816921F011
:100E7000770181610168774A01EA0201764A41EA15
:100E8000020101604FF459114FF00000C86173492D
:100E900048704FF010000870704770490A7822F0CF
:100EA000300202430A70704710B54FF45911C869F7
:100EB000C0B2820717D50022CA61400701D50320BE
:100EC00010BD664AD07860B10020536806E001EB9F
:100ED000800494F830411C54401CC0B2D478A04225
:100EE000F5D3012010BD002010BD10B5002404E092
:100EF000641C600701D1FFF723FEFFF7D5FF002830
:100F0000F6D010BD10B54FF45910C069C00705D018
:100F1000FFF7EBFF514988700120487010BDF0B514
:100F20004FF45916DDE9054C4FF0000EC6F81CE0F1
:100F3000346053B1002406E0155D06EB8407641CA1
:100F400087F83050E4B29C42F6D35FEA0C02DFF837
:100F50000CC105D0CA18D4B28CF803E0002213E00B
:100F6000CCF804008CF803100C4601207BB143EA56
:100F70000110C4B203200AE0D718855C06EB87078E
:100F8000521C87F83050D2B28A42F5D300209CF828
:100F9000001074610843B0610120F061F0BD2DE9DB
:100FA000F04380462DED028B83B00D4616461F465A
:100FB0009DED0C8ADDF83490FFF7A4FF2EE00821A8
:100FC000B9F1010F02D1C7F10800C1B28D4200D2C0
:100FD000E9B28DED008A0C463B4632464046CDF8DC
:100FE0000490FFF79CFFFFF780FF012819D1281B11
:100FF000A04485B297B1781EC0B2315C2144C9B219
:101000003154A1420AD207E0401EC0B2315C491CF3
:1010100011F0FF01315401D10028F5D1002DCED1BE
:10102000012003B0BDEC028BBDE8F0831CB50123A9
:10103000CDE9002300231A46FFF7B1FF1CBD1CB504
:101040000023CDE900231A46FFF7A9FF1CBD0000CD
:1010500074003200FFFFC0C000000A0AD41F220043
:10106000AE4A002002F1300152F8203041F8203021
:10107000401C0B28F8D370470020A84910B5034640
:1010800060310B54401C2028FBD3A44900204FF0B2
:10109000004201F1300441F8202044F82020401C97
:1010A0000B28F8D308689E4C401C0860237000F0A1
:1010B00032FDA0606060BDE8104000F05CBD10B57E
:1010C000C0F31300042200F065FCC0B210BD2DE98E
:1010D000FC41064691480F46914A8169491C81614D
:1010E0003868127820F00305291A091D8CB231687E
:1010F0000B19934201D9521A94B2DFF82082A84208
:1011000008F1800801D1042C09D001A92846FFF775
:10111000D6FF002823D0002001A9C4460DE001EB32
:10112000080000680CE032680CEB0003D25C3B68FE
:1011300003F003030344401CCA54A042F3D30198B4
:101140000090C5F313000422694600F003FC002858
:1011500005D030682D1D204430603D600120BDE881
:10116000FC8110B50446C0F3130000F076FB80B19B
:101170000020C4F3073100280AD0684A01F00704B0
:10118000603202EBD10201211378A1400B431370AE
:1011900010BD0120EDE77CB5604901248868401C42
:1011A00088606049884201D1FFF75AFF5C4D0026F4
:1011B0000096686801902978E1B1A968411A090B85
:1011C000FF2917D8554A01F00703603202EBD1021C
:1011D0000121127899400A4208D1FFF7C2FF04E0CA
:1011E00044B101A96846FFF772FF044629780098C8
:1011F0008842F5D32E7020467CBD484A10B553680E
:101200005B1C5360464B1A7822B15C6814448442DC
:101210000BD100E05860414880308154521CD0B25C
:10122000187059680844000503D1FFF7B4FF00287F
:1012300000D0012010BD70B505460E4602EB4200FD
:10124000394901E0401E0ED00A6A1207FAD405247B
:1012500000F03BFA002806D001E0641E04D02868A4
:10126000B042FAD1012070BD002070BD70B50446B7
:101270000D4600F034FA2C488461C561016A090703
:10128000FCD429462046BDE870406422D3E70346DB
:1012900010B5C1F31300194600F07CFBC0B210BDBD
:1012A0002DE9F04106461E480D46174600784FF0DE
:1012B000FF3408B1FFF76FFF00F007FA002816D0DF
:1012C00000201A4908E015F8012B6240D2B2401CF8
:1012D00051F8222082EA1424B842F4D3E04330705B
:1012E000010A7170010CB170000EF0700120BDE8B0
:1012F000F08110B50E49002000F0E7FA58B1002047
:10130000002807D0054B0021FF2260335A54491CA6
:101310002029FBD310BD0120F2E700008825220020
:10132000DC1F22000200008000404000F41F220069
:10133000FCFF0F000020704701207047012070471C
:101340000020704700207047002070470020704741
:10135000012070475A2801D25A2002E07D2800D986
:101360007D204FF4C8014A6D5A3822F03F020243F3
:101370004A657047F9490A6802430A607047F749AD
:101380000A6882430A607047F44A916821F00301B9
:10139000014391607047F14A9168000721F0F00124
:1013A00041EA106090607047EC488168806870473F
:1013B000EA48816880687047E84A91684FF0E063C6
:1013C00021F0E06103EA0060084390607047E34A5F
:1013D00091684FF0405321F0405103EA00700843F8
:1013E00090607047DD4A916C00F0070021F0070122
:1013F000084390647047D949886C20F00F008864D6
:101400007047D64AD16CC0F30D0001F0C0210843EB
:10141000D0647047D14A106521F07840506570471C
:10142000CE4A9065D1657047CC4A106651667047C8
:10143000CA49C0B2C8607047C849C0B208617047A5
:10144000C64900F0030008627047C44A9169C1F3BD
:10145000130141EA005090617047D0F800C09940F4
:101460002CEA020C41EA0C01016070474FF40020A5
:1014700085E7BA4A116821F00F01014311607047F6
:10148000B74A09B1506003E05068401E506001D077
:1014900000207047012070472DE9F043052802D94C
:1014A0000020BDE8F08300EB4001AE4DAB4E01EBF8
:1014B0000014243655F824100023FF223046FFF78D
:1014C000CCFF05EB840408234FF47F42304661686B
:1014D000FFF7C3FF10234FF47F023046A168FFF7E8
:1014E000BCFF4FF07F4518232A463046E168FFF7DE
:1014F000B4FF4FF6FF78361D00234246304621697F
:10150000FFF7ABFF14232A1130466169FFF7A5FFEF
:1015100040F6FF79361D00234A463046A169FFF7A1
:101520009CFF0C234FF470423046E169FFF795FFB2
:101530004FEA094710233A463046216AFFF78DFFEC
:10154000361D00234A463046616AFFF786FF0C23AA
:101550002A133046A16AFFF780FF0023824A301D1C
:10156000E16AFFF77AFF7D4E00233836EA433046C2
:10157000216BFFF772FF18232A463046616BFFF795
:101580006CFF00235A1E301DA16BFFF766FF734DE1
:101590000023403542462846E16BFFF75EFF1023EB
:1015A0003A462846216CFFF758FF00234A46281D7B
:1015B000616CFFF752FF6948002341F6FF724C301F
:1015C000A16CFFF74AFF01206BE7654967488A680D
:1015D000904201D101207047886065490A6842F451
:1015E00000220A600A6842F008020A605B498A68C1
:1015F00042F001028A6045F6C0525E49904206DC24
:10160000B0EBA2000FD0B0EBA20007D108E0A1F52B
:10161000BA41C03906D0A1F53B418039042002E02F
:10162000012000E0032037E710B54D4C2078012859
:1016300026D07820FFF78EFEFFF7C7FF4FF400207B
:10164000FFF79DFE454B5868000312D40B20FFF7AF
:1016500010FF494C01212046FFF712FF04E0002152
:101660002046FFF70DFF10B958680003F7D50D208D
:1016700001E0207808B9FFF7FCFE5868C0F3C040CD
:1016800010BD374810B5007801281BD00820FFF79F
:10169000F0FE394C01212046FFF7F2FE2F4B04E00B
:1016A00000212046FFF7ECFE10B958688007F7D1FB
:1016B0000020FFF7DEFE7820FFF74CFE5868800719
:1016C00001D0002010BD012010BD00B5FFF7ACFF18
:1016D000002803D00120FFF7CCFE012000BD00B59B
:1016E000FFF7A2FF002806D00220FFF7C2FE1B4929
:1016F00000200862012000BD70B50446154628444C
:101700000E46B0F5801F02D94FF0FF3070BD55B1C5
:10171000FFF7DBFF50B12A4604F5A001304600F088
:10172000F7FA002070BD6FF0090070BD6FF0030084
:1017300070BD70B504460E461546800702D06FF0A6
:10174000010070BDA80702D06FF0020070BD6019E3
:10175000B0F5801F12D94FF0FF3070BD004040003F
:10176000E81F22000C1E2200FFFF0F00007701007F
:10177000B804320040190100004C1D0055B1FFF7BC
:10178000A4FF50B12A4604F5A001304600F0C0FA8B
:101790000020E2E76FF00900DFE76FF00300DCE70D
:1017A0002DE9F04106460C461546800703D06FF040
:1017B0000100BDE8F081A80702D06FF00200F8E751
:1017C0007019B0F5801F02D94FF0FF30F1E755B125
:1017D000FEF7EBFC8046FFF782FF38B10023DFF80D
:1017E000A4C3E94F26E06FF00900E2E74046FEF7A8
:1017F000E0FC6FF00400DCE7F018B861E1782068E5
:1018000061F31F60F86101216046FFF739FE0CE0CB
:1018100000216046FFF734FE38B1FFF756FF40461F
:10182000FEF7C7FC6FF00600C3E7386A0007EFD485
:101830001B1D241DAB42DFD3FFF747FF4046FEF7D9
:10184000B8FC0020B5E700B5FFF7EEFE002803D096
:101850000320FFF70EFE012000BD70B50446000511
:1018600002D06FF0070078E7B4F5801F02D94FF07F
:10187000FF3072E7FEF799FCC34D06466C61FFF737
:10188000E2FF28B1BF4B01211846FFF7F9FD12E036
:101890003046FEF78EFC6FF005005EE7002118462B
:1018A000FFF7EEFD38B1FFF710FF3046FEF781FC81
:1018B0006FF0060051E768684007EFD4FFF705FFB7
:1018C0003046FEF776FC002047E770B5044609B1C4
:1018D000651809E06FF009003FE72046FFF7BDFFFC
:1018E0000028F9D104F58054AC42F6D3002034E747
:1018F00070B5A648007801280FD0FFF795FE78B1A3
:10190000FEF753FC04460C20FFF7B3FD01219D4870
:10191000FFF7B6FD9E4D9C4B12E06FF00A001CE7EE
:101920006FF0080019E700212846FFF7A9FD38B13C
:10193000FFF7CBFE2046FEF73CFC6FF006000CE7FD
:1019400058684007EFD4FFF7C0FE2046FEF731FC91
:10195000002002E72DE9F0418C4E04460025307846
:101960000F469046012802D1FEF71FFC054642466D
:1019700039462046FFF714FF04463078012804D189
:10198000FFF7A3FE2846FEF714FC0CB1002010E779
:1019900001200EE710B5FFF7AFFE08B1002010BD23
:1019A000012010BD2DE9F041784E04460025307825
:1019B0000F46012802D1FEF7F8FB054639462046BE
:1019C000FFF783FF04463078012804D1FFF77DFE3E
:1019D0002846FEF7EEFB0CB10020EAE60120E8E61F
:1019E0000844B0F5805F02D94FF0FF307047002007
:1019F00070472DE9F0410E46054614461146FFF7A3
:101A0000EFFF08B10020D4E6FEF7CFFB0746102019
:101A1000FFF7B0FC224631462846FFF7C1FE40B131
:101A200000241020FFF7ABFC58480078012802D0B2
:101A300003E00124F5E7FFF748FE3846FEF7B9FB5F
:101A40002046B6E62DE9F0410E46054614461146FD
:101A5000FFF7C6FF08B10020ABE6FEF7A6FB07467E
:101A60001020FFF787FC224631462846FFF744FE48
:101A700040B100241020FFF782FC3846FEF799FBA6
:101A8000204696E60124F5E72DE9F0410E4605468D
:101A900014461146FFF7A4FF08B1002089E6FEF7BF
:101AA00084FB07462020FFF765FC22463146284686
:101AB000FFF722FE40B100242020FFF760FC3846EB
:101AC000FEF777FB204674E60124F5E770B504467F
:101AD0000D46FFF785FF08B100203EE6FEF765FBE7
:101AE00006461020FFF746FC29462046FFF7EDFE8C
:101AF00040B100241020FFF742FC24480078012860
:101B000002D003E00124F5E7FFF7DFFD3046FEF7E2
:101B100050FB204621E64FF4A00070471CB5082278
:101B2000694640F60460FFF7AFFF0098C10716480A
:101B300005D10099C1F3470141F48071C160019959
:101B4000C90705D10199C1F3470141F480710161D1
:101B50001CBD10B54020FFF70DFC0C480021816032
:101B6000007808B1012010BDFFF72FFD0446FFF7F4
:101B7000ACFD204010BD00B5FFF7EBFF034A00218C
:101B8000117000BD004C1D0000404000E81F220005
:101B9000003075005B48016841F040010160016858
:101BA00041F020010160016841F0020101605549E6
:101BB000002010310860704730B5534CA04201D866
:101BC000240100E0514CB4FBF0F010280CDBC417EA
:101BD00000EB1474251124F00F04041B186820F086
:101BE000080040F0800006E005461868002420F058
:101BF000800040F008001860C5F58070106004EBAC
:101C0000D4704010221A42EA0010086030BD3D49ED
:101C1000086820F023020A6070471EB5394C22681C
:101C200001F0230122F023020A4300926B4602AA2C
:101C300001A9FFF7C1FF334902981C390860091F49
:101C400001980860009820601EBD4FF448110122E1
:101C5000C1F8BC202C4B984201D8022000E00120A2
:101C600041F8B40F4A6070478446264810B5001DFD
:101C70000168C1F381010229FAD1FFF7C8FF0446C8
:101C80006046FFF7E2FF21466046FFF7C6FF0120EE
:101C900010BD70B51B4901200C31086008254FF4B8
:101CA0005814FEF74DFFC4F88450D4F884000007A0
:101CB000F7D4E069C0B270BD10B5FFF7EAFF0128A4
:101CC00002D1BDE81040E4E710BD30B502244FF466
:101CD0005813C3F88440D3F88450AD07F9D52AB11E
:101CE0000425DD6102E010F8012BDA610A00A1F1A0
:101CF000010189B2F7D1C3F88440D3F8840080078A
:101D0000F9D530BD2004360060E31600006CDC021B
:101D1000032A40F2308010F0030C00F0158011F817
:101D2000013BBCF1020F624498BF11F801CB00F8EF
:101D3000013B38BF11F8013BA2F1040298BF00F843
:101D400001CB38BF00F8013B11F0030300F0258000
:101D5000083AC0F0088051F8043B083A51F804CB27
:101D6000A0E80810F5E7121D5CBF51F8043B40F8ED
:101D7000043BAFF30080D20724BF11F8013B11F8F8
:101D800001CB48BF11F8012B24BF00F8013B00F83C
:101D900001CB48BF00F8012B704710B5203AC0F0C6
:101DA0000B80B1E81850203AA0E81850B1E818505C
:101DB000A0E81850BFF4F5AF5FEA027C24BFB1E899
:101DC0001850A0E8185044BF18C918C0BDE810400A
:101DD0005FEA827C24BF51F8043B40F8043B08BF13
:101DE0007047D20728BF31F8023B48BF11F8012BDA
:101DF00028BF20F8023B48BF00F8012B70470108BC
:101E000000010600302018100C060401020000003A
:101E10000A0000001E0000001E000000600200001A
:101E20005A0000002A000000010000003C000000F1
:101E30003C0000000674010008D10100A0D501009B
:101E4000010000000020000030040000320000000B
:101E5000200000000705000004000000130000003F
:101E60003C0000003C000000C0040000B300000083
:101E7000540000000200000077000000770000001E
:101E80000CE802000FA2030040AB030002000000B8
:101E9000004000005F0800006400000040000000F7
:101EA0000E0500000700000025000000770000007C
:101EB000770000008009000065010000A800000014
:101EC00003000000EE000000EE00000018D0050046
:101ED0001E44070080560700030000000080000039
:101EE000BE100000C8000000800000001C050000BB
:101EF0000D00000049000000EE000000EE000000B0
:101F0000FF120000CA0200004F010000050000009F
:101F1000DC010000DC01000030A00B003C880E005A
:101F2000FFAC0E0005000000FFFF00007B21000059
:101F300090010000FF000000370500001A000000BB
:101F400092000000FF000000FF000000FE250000DE
:101F5000940500009E0200000A000000B803000083
:101F6000B8030000FFFF0F00FFFF0F00FE591D0028
:101F70000A000000FEFF0100F642000020030000FE
:101F8000FE0100006E0A00000000000000000000DA
:101F90000000000000000000000000000000000041
:101FA0000000000000000000000000000000000031
:101FB0000000000000000000000000000000000021
:101FC0000000000000000000000000000000000011
:101FD0000000000000000000000000000000000001
:101FE00000000000000000000000000000000000F1
:041FF00000000000ED
:0400000500220001D4
:00000001FF
