:02000004000DED
:1002000070B54FF45410416B41F0180141631F4821
:1002100000F040F81E4D00242C622C6300F078FCA6
:1002200001F0AAF810B10120A87001E000F052FD21
:1002300000F060FD01F076FF00F055FC4FF448102F
:10024000EC62016841F48051016000F069FB2969AA
:100250000446012918D0022902D0012001F0AFF88C
:10026000002CF2D00A495820491C00220870084886
:100270000121401C02F009F8BDE870400022012372
:100280001146501E00F010B80020E7E7CC2A0D0000
:10029000D4240D00854670470047EFF3108072B6F6
:1002A000704780F31088704700204FF47A51401C4B
:1002B0008842FCD303B90022FE48016821F02201E4
:1002C000016042F00100FFF7E7BF30B400F1807435
:1002D0000123F94AB4F1807F08D25371927812B1A8
:1002E00030BC01F0D2B830BC00F0F7BC00F1806443
:1002F000B4F1407F03D2537130BC00F03FBF0170B6
:10030000007830BC0120704770B504460D462EE0E1
:1003100001F092FFA0F13001092901D800010EE09F
:10032000A0F14101052903D80001A0F55C7006E0A9
:10033000A0F1610105291ED80001A0F5AE60C6B28A
:1003400001F07AFFA0F13001092901D80E430BE03A
:10035000A0F14101052901D8373804E0A0F161017D
:10036000052908D85738064304F8016B6D1E002D87
:10037000CED1012070BD002070BD38B5CE4C44F602
:1003800020651CE0E580E0784C281DD001216846FE
:10039000FFF7BAFF002816D020799DF80010084416
:1003A0002071A06AFFF791FF00280CD0A06A401CC2
:1003B000A0622089401E2081E06A401CE062208902
:1003C0000028DFD1012038BD01F036FF8DF8000094
:1003D000E2E710B501F030FFFC2805D101F02CFF59
:1003E000B54C0428208101D2002010BD01F024FF6B
:1003F000A06201F021FFA16A41EA0020A06201F0A1
:100400001BFFA16A41EA0040A06201F015FFA16A4A
:1004100041EA0060A0622089001F2081012010BDF8
:1004200010B501F009FFFC2823D101F005FF0628D3
:100430001FD101F001FF01F0FFFE01F0FDFE9E4C17
:10044000606101F0F9FE616941EA0020606101F03C
:10045000F3FE616941EA0040606101F0EDFE61690F
:1004600041EA006060619549401E884201D2012046
:1004700010BD002010BD00B589B00A460E218DF8D0
:10048000001008218DF8011001218DF80210CC21F7
:100490008DF80310FC218DF8041000218DF8051053
:1004A00010F1807113D3844883780DF1060013B1E5
:1004B00001F039F801E000F018FC002805D0012215
:1004C0000A21684601F0E1FE012009B000BD0020CC
:1004D000FBE70120704770B501F0AEFEFC2803D1A8
:1004E00001F0AAFE082801D0002070BD01F0A4FE92
:1004F000044601F0A1FE44EA002401F09DFE44EA16
:10050000004401F099FE44EA006401F095FE0546BE
:1005100001F092FE45EA002501F08EFE45EA004515
:1005200001F08AFE45EA00612046FFF7A4FFC0B251
:1005300070BD10B501F080FEFF2803D101F07CFEF4
:10054000012801D0002010BD5B48807820B101F067
:1005500073FE00F032FF03E001F06EFE00F0BBFB23
:100560000028F0D0012010BD00F180730246B3F1E5
:10057000807F04D302F18062B2F1407F0AD24E48FC
:1005800000228261521EC261807810B1184600F0CC
:10059000B1BE09B1002070474FF4004000F0A7BB86
:1005A00010B501F049FEFF2803D101F045FE0428F3
:1005B00001D0002010BD01F03FFE3F4CA06201F0D1
:1005C0003BFEA16A41EA0020A06201F035FEA16A6B
:1005D00041EA0040A06201F02FFEA16A41EA0060FA
:1005E0000121A062FFF7C0FF0028E3D0012010BD69
:1005F00010B501F021FEFF2803D101F01DFE0428F3
:1006000001D0002010BD01F017FE2B4CA06201F0BC
:1006100013FEA16A41EA0020A06201F00DFEA16A6A
:1006200041EA0040A06201F007FEA16A41EA0060D1
:100630002349A062884202D14FF07C40A062002191
:10064000FFF792FF0028DDD0012010BDB0F5B82FD4
:1006500008D31C4A411E914204D300F18061B1F1DC
:10066000407F06D228B1411C03D0C00701D0012031
:1006700070470020704710B501F0DEFDFC2805D161
:1006800001F0DAFD0C4C0428208101D0002010BDBF
:1006900001F0D2FDA06201F0CFFDA16A41EA002085
:1006A000A06201F0C9FDA16A41EA0040A06201F028
:1006B000C3FD09E020043600D4240D00FF117A00A8
:1006C000EFEEBEFCFEFFFFFBA16A012241EA0060E3
:1006D000A062FA48E178C170062101F0D6FD206AD7
:1006E00000F18071B1F1807F0DD300F18061B1F133
:1006F000407F02D2B0F17C4F05D84068FFF7A6FFDB
:1007000008B1206AA062A06A012300214268A262A7
:10071000206AFFF7C9FD012010BD30B50C46C1B0FD
:100720000E218DF80010FB2C02D9002041B030BD05
:10073000211D8DF8011001218DF802104D218DF839
:100740000310FC218DF8041000218DF8051000F134
:1007500080716B46B1F1807F0DD2D8482246343883
:100760008078002803F1060002D000F0CAFE0CE0F9
:1007700000F0B9FA09E000F18061B1F1407F07D2E1
:1007800001462246981D00F0CAFA0028CED008E0A3
:10079000002104E05D1810F8012BAA71491CA14248
:1007A000F8D30122A11D684601F06FFD0120BDE7CD
:1007B00010B501F041FDFC2803D101F03DFD0528F5
:1007C00001D0002010BD01F037FDBC4C343CA062CC
:1007D00001F032FDA16A41EA0020A06201F02CFD87
:1007E000A16A41EA0040A06201F026FDA16A41EA47
:1007F0000060A06201F020FD0146A06ABDE8104043
:100800008BE770B5AD4804211038FFF77DFD002857
:100810006FD0AA4C103CA4F1240520786178A3780D
:10082000E27801441344194429712881B4F8011075
:10083000002A49BAA9626DD00026022A06D0042AED
:1008400018D0052A2AD0012A46D051E0E9BB022857
:100850004ED19A4802211038FFF756FD002848D0A3
:10086000207861782B7942181A4400032A7140EAF3
:10087000011011E049BB02283AD1904802211038FA
:10088000FFF742FD28B920786178084429790844A7
:100890002871208840BA000428631BE0A9B9042805
:1008A00026D1864804211038FFF72EFD002820D0DD
:1008B00020786178A2780144E078024411442A79D2
:1008C00011442971216809BA00E011E021F0FF010B
:1008D000014329632E811DE0014309D1774801219D
:1008E0001038FFF711FD002803D02078FF2801D031
:1008F000002070BD71492E203339002208706F48E6
:100900000121333801F0C1FC002201231146501EA1
:10091000FFF7CAFC296BA86A0844A862012070BDD1
:10092000F8B5664C343C0225207840F00100207078
:10093000206910B1012806D012E001F090FCE070AF
:100940004C280CD00CE001F093FC002840D001F0C2
:1009500086FCE0704C2802D003202061BBE02561BA
:100960002078002600F08000207026812069534DF9
:10097000032811D0A0B113D0FFF72BFD00286FD0B2
:10098000FFF7FBFC00286CD001202061E078E870C4
:1009900001220621284682E0012000F010FD266198
:1009A000E0780D2842D00A2840D03A2811D04D28AE
:1009B00014D04E2817D0CE281AD05E281DD0E52896
:1009C00020D0CC2823D0182826D057282CD00F2070
:1009D000F8BDFFF716FF10BB0420F8BDFFF7E8FED7
:1009E000E8B90620F8BDFFF746FEC0B90720F8BDFC
:1009F000FFF7FEFD98B90820F8BDFFF7D1FD70B9EB
:100A00000920F8BDFFF795FD48B90A20F8BDFFF7AA
:100A100062FD20B90C20F8BDFFF702FD10B1206A7D
:100A200028B108E00E20F8BD8020207053E0208916
:100A300008B1A06A2062E0783A2801D0402811D19C
:100A400001216846FFF760FC40B120799DF8001055
:100A5000084410F0FF0F05D01320F8BD1220F8BD98
:100A60003DE03EE01549E0783339572812D03A2866
:100A70000FD0CE2816D05E2814D0E52812D0182822
:100A80001ED04D2827D0CC2825D0ED2823D01520E6
:100A9000E5E72E200870094800220121333801F0D3
:100AA000F4FB18E0E870FF202871012206210348BA
:100AB00001F0EBFBFC2028710DE0000008250D0083
:100AC000E870012206217C4801F0DFFB606901F03B
:100AD00079FB10B166610020C1E71420BFE7052053
:100AE000BDE71020BBE730B5744B754C00210846BC
:100AF0000022C50702D083EA500000E04008521CE3
:100B0000082AF6D344F82100491CFF29EFD930BD4B
:100B100069480122343844F620610270C18000F136
:100B20000A0140230B7030234B7031238B702A3124
:100B30000E230B7004234B708A70FC220A71002272
:100B40004A716049827042710A70511EC0E90621E3
:100B5000704730B5002306E0C45CCD5CAC4201D0E8
:100B6000002030BD5B1C9342F6DB012030BD70B528
:100B7000514E0024273EA6F10D050DE0A878315D09
:100B80000028A869204402D000F07FFC01E000F0BA
:100B9000A4F8002804D0641CE8698442EEDB01203C
:100BA00070BD10B5444C343CA2692AB1E269002AF8
:100BB00013DB032A11D002E00022C4E906023E4BF7
:100BC000273B9954A1691144814213D1521C3E49DB
:100BD0001846FFF7BEFF58B901E0002010BDE269DA
:100BE00039493548521CC91C2738FFF7B2FF08B1F4
:100BF000012000E000200028E06903D0401CE061F3
:100C0000012010BD002801DDFFF7B1FF4FF0FF30DC
:100C1000E061E2E710B500F062F820B100F028FAD8
:100C200008B1012010BD002010BD294910B527488A
:100C3000086021493439087818B144F62060C8802A
:100C400010BDC888401E0004000CC880F8D11A49A5
:100C50005A2033390022087017480121333801F037
:100C600014FB00220123BDE810401146501EFFF77F
:100C70001BBB70B5054600244FF4FA6606E0002160
:100C8000491CB142FCD3FFF7D0FF641CAC42F6D341
:100C900070BD10B500F070FB00280CD00649012093
:100CA000343988700021084600F024FBBDE810406C
:100CB000002000F0A1BD10BD08250D002083B8ED77
:100CC0003C250D0013250D00E8220D000024F40042
:100CD00000903200704701207047012070470120CA
:100CE00070470120704701207047012070470120A4
:100CF000704700000020FF4A01461154401C202884
:100D0000FBD3FD48C17041704FF44810FB490167A7
:100D1000416E21F01F0141F01E014166704705E060
:100D200011F8013B521E00F8013BD2B2002AF7D164
:100D30000120704770B500220488F14D13460C80E5
:100D400004880E88A64201D1521C01E00C800022CA
:100D50005B1CAB4201D1002070BD642AF0D301209E
:100D600070BD10B502EB420201F0800301E0521E9B
:100D700011D0048804F08004A342F8D14FF07C43E2
:100D8000F0221A80052201E0521E04D003888B4213
:100D9000FAD1012010BD002010BDDA49AA220A8034
:100DA000D94B55221A8008807047D849AA220A8058
:100DB000D74B55221A80088070474FF07C42F021B3
:100DC0001180CD494978012904D0022903D0032993
:100DD00001D0FEE7E9E7E0E730B505460C46A02084
:100DE000FFF7EBFFC4482C804278012A05D0022A85
:100DF00005D0032A03D0002030BD142201E04FF4B7
:100E0000B47221462846BDE83040AAE7F0B5BA4C96
:100E10006078002868D14FF07C452888698841F2C5
:100E200034222A8045F278636B802B88934204D168
:100E3000288069800420607056E09020FFF7B5FF9D
:100E400028880126BF2818D19020FFF7AEFF6888B8
:100E50004FF49E71B1EB501F0DD0C91EB1EB501F66
:100E600009D040F29B21B1EB501F04D04FF49D718B
:100E7000B1EB501F01D1667036E09020FFF78DFF77
:100E80002888002701281AD19020FFF786FF68885C
:100E900040F215120221B2EB501F01D1617022E025
:100EA0004FF48B72B2EB501F04D16170A670994859
:100EB000A06019E04FF48972B2EB501FEED0902081
:100EC000FFF76BFFB5F80002F0262E801C280DD12D
:100ED0009020FFF762FF68882E80A0F50851BA398C
:100EE00004D103206070A7700120F0BD0020F0BD88
:100EF0002DE9F0430446FFF789FF002875D07E4FA7
:100F00007878042813D0C4F30B00261A06F1806504
:100F10002C0BFF2C0BDC8020FFF74FFF7878AA22E8
:100F20005521012804D0022806D0032804D09DE0D2
:100F3000764B1A80764A02E0724B1A80724A118010
:100F40003021B8460127DFF8ACC131804FF6FF7978
:100F5000012813D146F2A81249463046FFF701FF97
:100F600060B1E01704EB50700CEBE00120F00700DB
:100F70000A78201A87403A430A7074E098F8010012
:100F80004146022801D0032870D18A7852B1D8F89E
:100F900008108E422DD30425E11704EB917121F046
:100FA00003011BE0B5F5803F06D31025E11704EBE4
:100FB000117121F00F0111E0B5F5004F06D308259E
:100FC000E11704EB517121F0070107E0B5F5804FFF
:100FD0000CD304EBD471022521F00101611A641ACB
:100FE00002280FD0032826D040E03DE0042500244D
:100FF000F6E7A1F580429642EBD2A1F540418E4240
:10100000DDD2D2E7444A49463046FFF7AAFE78B916
:101010002CE0E01704EB50720CEBE20022F0070228
:10102000A21A017807FA02F21143641C01706D1EC6
:10103000002DEED117E0394A49463046FFF791FEC0
:1010400078B913E0E01704EB50720CEBE20022F0E9
:101050000702A21A017807FA02F21143641C017018
:101060006D1E002DEED10120BDE8F0830020FBE7CE
:1010700078B5214E0024F07810B31E4DC107A5F1BC
:1010800020050FD071680844401E6946FFF752FEE4
:10109000002816D0BDF800000124010AF078295478
:1010A000401CF070FFF7B2FE00280AD070780128CB
:1010B00008D0022806D0032804D0042847D05BE0DB
:1010C000012078BD706800F18061090BFF2953D8B9
:1010D000084A01F0070302EBD1020121127899407E
:1010E0000A4223D1FFF704FF0028EAD03178FF201D
:1010F000B9B115E0F02A0D0010250D0002030A0A0F
:10110000C0270900AA0A00FC540500FCAAAA00FC9A
:10111000545500FC00C00FFC80841E00809698008F
:1011200028701CB1F178294401F8010C00240AE070
:1011300028190188ADF8001070682044FFF74CFEB4
:101140000028BED0A41CF0788442F1D311E0002026
:1011500073680BE029180A881918ADF800200A8076
:101160000988BDF80020914206D1801CF1788842A0
:10117000F0D30020F070A3E7002078BD2DE9F841FE
:10118000444E0446444FF0788846002540B17168CB
:101190000844A04215D0FFF76BFF002823D0F5705C
:1011A0003570E0070CD0641E69462046FFF7C2FD8B
:1011B000002818D0BDF8000038700120F0703070A1
:1011C0007460F07807F80080401CC0B2F07071685D
:1011D0000144090501D0202804D1FFF749FF002868
:1011E00001D0F5700120BDE8F881F0B5FFF70EFEE3
:1011F00000284CD0274E7078042849D08020FFF773
:10120000DCFD254D7078AA2155221023FF242035BE
:101210004FF6FF774FF07C4C012804D0022813D002
:10122000032811D034E01D4801801D490A80038045
:101230001C4A39466046FFF794FD50B100202C54FB
:10124000401C2028FBD321E01748018017490A8061
:101250000380707802280BD1154A39466046FFF7A3
:1012600080FD28B100202C54401C2028FBD30DE029
:10127000707803280CD10F4A39466046FFF771FD9C
:1012800030B100202C54401C2028FBD30120F0BD9D
:101290000020F0BD10250D00D02A0D00AAAA00FCE8
:1012A000545500FCA0860100AA0A00FC540500FC6D
:1012B0008096980000E1F505A54A00214FF480636F
:1012C0005054491C9942FBD3704770B505460C46F3
:1012D00000F00EFCB5FBF0F2D00802F0070101228D
:1012E0008A409B49D2B20B5C0CB1134300E093439C
:1012F0000B5470BD10B504469648007808B1002024
:1013000010BD61B100F0F4FB0146204600F005FC81
:101310000028F5D001212046FFF7D7FF09E06FF044
:101320007041204600F0F9FB0028E9D0FF20FFF7CC
:10133000C3FF012010BD2DE9F041064600F0D8FBA7
:10134000B6FBF0F1CC0801F00700814F012181408C
:10135000385DCDB228420CD100F0CAFB411E26EA0E
:1013600001000121FFF7C6FF002803D0385D2843A4
:1013700038550120BDE8F08170B50021744A754CE4
:10138000183A0846217002F10C03A2F5437542F8A1
:10139000201043F8201045F82010401C0328F6D3F5
:1013A0000020FFF789FF00F021F900F007FA10F0A4
:1013B000FF0001D10120207070BD012070472DE990
:1013C000F047644E3178002932D1DFF88C818946AC
:1013D00008F54375A5F10C04A4F5437A01284AD118
:1013E0004F46C6F80890B06855F8201054F8200011
:1013F00081420DD0FFF79FFFB16808EB012254F83E
:10140000210055F82110C3B21A44091A00F0AFFAAE
:10141000B06844F8207045F820704AF82070401CED
:10142000B0600328DFD3B7604FF0FF307760F06023
:10143000BDE8F08755F8201054F8200081420DD007
:10144000FFF779FFB16808EB012254F8210055F845
:101450002110C3B21A44091A00F089FAB06849464B
:1014600044F8209045F8209047F82090401CB06048
:10147000032800D3B160D6E901108142D8D05AF8D0
:10148000201057460129D5D0D2E72DE9F041314D42
:1014900020F07F4488462878210A08B1002069E7B7
:1014A0002C482B4FEA68A7F118074068531C07F136
:1014B0000C0620D08A4212D0A6F54673012243F8CA
:1014C0002020401C6860032801D30020686047F892
:1014D000204046F82040E9602046FFF72CFF1E4AD6
:1014E0006868E3B202EB0022641C02F8038046F84D
:1014F000204001203EE7E96047F8204046F82040C0
:10150000EAE770B5054613480B461446007840B923
:101510002A462146184600F084FAA04201D1012053
:1015200070BD002070BD10B504460A480B46114638
:10153000007808B1002010BD2246184600F0E7FBF5
:10154000C0B210BD10B500F06CF9012010BD000054
:10155000342E0D001C250D001C2B0D0000F0070380
:1015600001229A40F84BC00853F8200000EB82009B
:1015700009B10260704700210160704710B5F24C5C
:10158000C30854F8233003F5806303EB810100F0B6
:10159000070301209840012A0A6802D082430A60AA
:1015A00010BD0243FBE7E949096800F0B0BCE74918
:1015B000096800F0B3BCE549096800F0BBBC7CB524
:1015C000E24D069C2D68CDE9004500F075FC7CBD20
:1015D00038B5DE4C2468009400F0BEFC38BD38B548
:1015E000DA4C2468009400F044FC38BDD8484FF42D
:1015F000C371D64A4180D7491160017821F0FD01BD
:10160000017000214170A0F10801012008707047AD
:101610001CB505208DF8040001226B4601A9104677
:10162000FFF7D6FF9DF800001CBD70B5C84C0546FD
:10163000E41F2078C00603D55020FFF7B4FF06E072
:101640000620FFF7B0FFFFF7E3FF8007FBD5207808
:10165000000703D5FFF7DCFFC007FBD1012000EB3B
:101660000520FFF7A4FF2078000703D5FFF7D0FF80
:10167000C007FBD170BD7FB504004FF09F008DF80F
:1016800000004FF015008DF804004FF0900002901C
:1016900000D103AC0225002623460322694601201F
:1016A000FFF796FF207820B1FF2802D0032004B076
:1016B00070BD2346022201A90120FFF789FFA67011
:1016C000207808B1FF280AD12346022202A904206B
:1016D000FFF77EFFA670207818B1FF2801D0022006
:1016E000E5E7AB20FFF75FFF99490020B1F9021051
:1016F00001E0401C80B28142FBDC6D1E2D042D0CEC
:10170000CAD10020D3E72DE9F843914C207820F08E
:10171000010020706846FFF7AEFF00284AD08A4ECD
:1017200000219DF800309DF801C09DF80250A4F101
:101730000808A4F10709083601EB810216F81270B7
:1017400087421CD106EB420257789F4217D1977807
:10175000674514D1D778AF4211D101EB810006EB78
:101760004000808888F80200127A89F800202078EA
:1017700020F00C0040F001002070617019E0491C5D
:10178000C9B20F29D8D3BF2B16D010206070C0B2B9
:1017900000EB800006EB4000017A89F8001005F0AC
:1017A0000F0088F80200207820F00C0040F02100A3
:1017B00020700120BDE8F8830F20E7E710B500F0A6
:1017C0008EFC01280ED900231A4620216248FFF71B
:1017D00006FFFFF798FF002803D00020FFF725FF42
:1017E000012010BD002010BDE8E710B5FFF710FF85
:1017F00000F03C00800810BD70B50007850EFFF7B3
:1018000007FF20F03C042C432046FFF70EFF504911
:10181000C91F0978C90703D02046BDE8704004E716
:1018200070BD10B5FFF7F4FEC007FBD110BD4848EE
:1018300010B50078C00703D1FFF7C0FF002804D01F
:10184000434808388078401C000410BD2DE9F74358
:1018500084B00C0090465FD00620FFF7A4FE3C4801
:10186000394901254078B23100EBC00001EB40005E
:10187000C0798DF80400FFF7DAFF9DF812109DF88B
:1018800011209DF81030B0F1807F07D28DF805103F
:101890008DF806208DF8073004210AE09DF813002A
:1018A0008DF805008DF806108DF807208DF80830AA
:1018B00005210020F02C0ED266180090012301AA09
:1018C0003046FFF77CFE0023424621463046009515
:1018D000FFF775FE1EE01D4E204F214A33681A6047
:1018E000009001F10800012301AA8146FFF767FE7D
:1018F00000234246082148460095FFF760FEA4F108
:101900000801012308F1080208460095FFF757FE79
:1019100030680760FFF785FF07B0BDE8F0830C482B
:1019200010B508384168002920D1012141600078B4
:10193000810717D5C0F383000121FFF70FFEBDE833
:101940001040002071E60000F0220D0038250D0047
:1019500034250D0000243500001BB70020023300A1
:1019600020821200BDE81040002045E710BDF7B509
:10197000FF4884B00E4600781546C0070CD056B11B
:10198000FFF7CDFFFA4CE41F2078C00606D55020A3
:10199000FFF709FE09E0002007B0F0BD0620FFF7C1
:1019A00002FEFFF735FE8007FBD52078400605D5FF
:1019B0002A4631460498FFF749FF30E00220002410
:1019C0008DF80400012725E00620FFF7ECFD9DF8C7
:1019D00012008DF805009DF811008DF806009DF8A5
:1019E00010008DF8070015F8010B8DF80800049819
:1019F000401C0490FFF70CFE8007FBD50521012356
:101A000001AA08460097FFF7DAFDFFF701FEC007BD
:101A1000FBD1641CB442D7D30420FFF7C4FD304689
:101A2000BAE72DE9F74F84B0D14D02910C462878E2
:101A30001646C00703D1FFF7C1FE00280DD05CB1E8
:101A4000CB4FDFF830A3A9464FF0807BFF1FE8465D
:101A5000C82C05D2254604E0002007B0BDE8F08F71
:101A6000C82538788006002899F8010000EBC001ED
:101A70000AEB410001DA807900E040798DF800003E
:101A8000FFF7D5FE58450DD29DF812008DF80100E4
:101A90009DF811008DF802009DF810008DF80300EC
:101AA000042010E09DF813008DF801009DF812004D
:101AB0008DF802009DF811008DF803009DF81000CC
:101AC0008DF8040005203978890604D5552208F8D8
:101AD0000020401CC0B233462A466946FFF778FD15
:101AE00004982E4428440490641BB1D10298B4E7B2
:101AF00010B59F4C2078C00702D1FFF75FFE48B1B8
:101B000060789C4900EB8000AA3901EB40008079A5
:101B1000000310BD4FF4805010BDF3B5944D83B059
:101B20000F462878C00703D1FFF748FE002869D088
:101B3000FFF7F5FE0620FFF736FD68788D4C01268D
:101B40000E280CD0B7F5805F0DD800EBC00104EB78
:101B50004101097BFF2906D08DF804101BE0854860
:101B600090F80A0115E0B7F5004F06D800EBC00069
:101B700004EB4000807BFF280BD1FFF7B9FFB84290
:101B8000687800EBC00004EB400001D3407B00E02C
:101B9000C07B8DF8040069789DF8042001EBC10139
:101BA00004EB41010120C97B8A421DD0FFF73FFEB3
:101BB0009DF80E109DF80D209DF80C30B0F1807F3F
:101BC00007D28DF805108DF806208DF80730042017
:101BD0000AE09DF80F008DF805008DF806108DF8CD
:101BE00007208DF808300520012301AA0146009640
:101BF000FFF7E5FCFFF70CFDC007FBD10420FFF762
:101C0000D2FC012005B0F0BDF0B5594F06460D4697
:101C10003878A1B01446C1071FD040F004003870D6
:101C20000BE080212846FFF7FCFE6A468021304603
:101C3000FFF79DFE80368035803C802C6A46F0D8C8
:101C400021462846FFF7EDFE38786A4620F004006A
:101C5000387021463046FFF78AFE21B0F0BD444976
:101C600010B50A78D0072FD0C81F007800062BD5F2
:101C70004FF4481000683F4C00F00F030846AA3CA0
:101C80004078092B00EB800004EB40002FD2DFE806
:101C900003F0050B1C2E222E2E2E2800C079C01E0C
:101CA00000EB4000000102E0C07940018038C3171A
:101CB00000EB93708010488000B2002801DA002009
:101CC000488042F01000087010BDC079801F00EB02
:101CD0004000C000EBE7C0790C3800EB400080000A
:101CE000E5E7C079183800EB40004000DFE7C07935
:101CF00000019038DBE71E490878C20706D0CA1FEA
:101D00001278120602D520F01000087070472DE9F5
:101D1000F0470D461649074616460878A0B04FF022
:101D2000FF34C2072ED040F004008A460870DFF866
:101D30004890E84615E06A4680213846FFF771FE74
:101D400080281FD1002041464A460B5C401C63405E
:101D5000DBB2802852F8233083EA1424F5D380378D
:101D6000803D802DE7D8FDB16A462946384605E01A
:101D700034250D00A2230D003C250D00FFF751FE78
:101D8000A84203D0002020B0BDE8F08700204146E3
:101D90004A4607E00B5C6340DBB2401C52F823303C
:101DA00083EA1424A842F5D3E0433070010A71702D
:101DB000010CB170000EF0709AF80010012021F0B3
:101DC00004018AF80010DEE74FF4002141627047F9
:101DD000416A0903FCD570474FF400224A6248600B
:101DE000486A0003FCD57047016821F4F0410160A6
:101DF0007047016841F4006101607047016841F477
:101E0000405101607047016841F4605101607047C2
:101E1000016841F4B041016070470346002002466A
:101E200003E0D1F88000521CC0B29A42F9D3704747
:101E300040F001020A6000228A62B44A914203D152
:101E4000B34B40221A600FE0B24A91420CD14FF4DA
:101E50005412136B23F0180313630823D36218235F
:101E6000D36393632023D36008604FF0FF30486250
:101E7000704730B5044641EA0200A7491843039D64
:101E800008432946FFF7D4FFA448844201D101202A
:101E900010E0A349C8018C4201D20C4602E0844202
:101EA00000D90446B0FBF4F0401E00F03F004100B2
:101EB00041EAC010286330BD70B40C46DDE903511F
:101EC000002817D0002C15D01BB10B6823F4F04369
:101ED0000B60002304E012F8016BC1F8C0605B1CCA
:101EE000A342F8D3002D05D00A6842F400620A60CC
:101EF00070BC71E770BC70471CB50C460121CDE980
:101F000000120B4622460146FFF7D6FF1CBD03B563
:101F10000A4669460120FFF7EFFF0CBD08B50A46E7
:101F20008DF80000000A8DF8010069460220FFF7D5
:101F3000E3FF08BD08B5030A8DF80000020C8DF818
:101F400001308DF80220000E8DF803000A46694624
:101F50000420FFF7D1FF08BDF0B50600059C174629
:101F60001D4623D0002F21D0206820F4F0402060AF
:101F7000002004E011F8012BC4F8C020401CB0423E
:101F8000F8D3206840F460502060F0192146FFF734
:101F900023FF21463046FFF740FF002004E0D4F83D
:101FA000801005F8011B401CB842F8D3F0BD30B5D5
:101FB0000500084614461DD0196821F4F041196047
:101FC000002104E010F8012BC3F8C020491CA942ED
:101FD000F8D3186840F4B040186019462846FFF757
:101FE000FBFE002004E0D3F8801004F8011B401C25
:101FF000A842F8D330BD70B506000D46144614D083
:10200000206820F4F0402060206840F440502060B8
:1020100021463046FFF7E0FE002304E0D4F88000BC
:1020200005F8010B5B1CB342F8D370BD016841F4A5
:10203000006101607047016821F400610160704730
:10204000016841F4805101607047016821F48051BA
:10205000016070470843104340F490101946E7E6CA
:1020600010B5002304E011F8014BC2F8C0405B1C1E
:102070008342F8D310BDC1F8C0007047C2B2C1F8A6
:10208000C020000AC1F8C0007047C2B2C1F8C02029
:10209000C0F30722C1F8C020C0F30742C1F8C02036
:1020A000000EC1F8C00070478068C0F30A00704796
:1020B00010B59369C3F30A03834201D2012010BD16
:1020C000002304E0D2F8804001F8014B5B1C8342FE
:1020D000F8D3002010BD8069C0F30A00704770B5C6
:1020E0000A490C310B680B4C0C3422680020012586
:1020F0000D600E68012E00D101200B602560216863
:10210000012901D140F00200226070BD00063600B6
:1021100000013200002435000002330000366E0159
:10212000366E01006748016841F0400101600168B6
:1021300041F020010160016841F002010160614944
:1021400000201031086070475F49B1FBF0F101F0E9
:102150001F01103900D54942102902D15B4988423C
:1021600002D35B49884201D20220704701207047A8
:10217000584901228A6008604A60704730B5564D60
:10218000022B07D06C0114446408B4FBF2F4012B59
:1021900002D002E0514CF6E74C4DAA4203D962420C
:1021A0000A7000210CE00022A2EB14120A7004F065
:1021B0000F014A0801F0010303EB510141EA02114A
:1021C000017030BD2DE9FC43DFF8F880D8F80070CD
:1021D000A8F10409D9F800C044083F4D404E2046FC
:1021E000FFF7B2FF0346FFF7C3FF012B01D16D00DC
:1021F0007600AC4202D947F0080001E027F0080061
:10220000B44202D34CF0010101E02CF00101C8F806
:102210000000C9F80010224601A96846FFF7AEFF8A
:1022200028499DF804001C390860091F9DF800002A
:1022300008600120BDE8FC8370B5224901200C3103
:10224000086008254FF45814FEF7EFFCC4F88450DA
:10225000D4F884000007F7D4E069C0B270BD10B5AF
:10226000FFF7EAFF012802D1BDE81040E4E710BD06
:10227000144901200C3108601A48082101600068E7
:1022800040F3C00000F10100704730B502244FF464
:102290005813C3F88440D3F88450AD07F9D52AB158
:1022A0000425DD6102E010F8012BDA610A00A1F1DA
:1022B000010189B2F7D1C3F88440D3F884008007C4
:1022C000F9D530BD2004360000C0C62DC0C62D0093
:1022D00040420F00B400320060E3160000366E0189
:1022E000689D2900840036000108000106000000F6
:1022F00000C0320000B0320003C220140F000103FE
:10230000EC00031F66010100011E6D00031F650044
:102310000000011EEE0002BF4800000001FF300077
:1023200002BF4900010001FF300003C2201000007D
:102330000103EC00031C311101000103EC00033721
:10234000301201000103B000033730110100010316
:10235000B0000337301001000103B000031F42003A
:102360000F00011EEC00031F43010F00011EEC00D3
:10237000031F44020F00011EEC0003010220FF03B3
:10238000401E6C00032020130700011EEC0003BF59
:10239000FF140F00011E30000320FF140F00011E68
:1023A000EC0006049F0501030B0202FFFFFF20D88B
:1023B000D8C7B9AB06049F0501030B0202FFFFFF5C
:1023C00020D8D8C7FFFF060415050103FF0202FF4E
:1023D000FFFF20525262B9AB0604900501030B02C5
:1023E00002AF50FFFF20D8C7FFFF0604900501038E
:1023F000FF0202AF50FFFF20D8C7FFFF06049F0572
:1024000001030B0202FFFFFF20D8D8C7B9AB0604B7
:102410009F0501030B0202FFFFFFFF20D8C7B9ABE6
:1024200006049F0501030B0202FFFFFFFF20D8C730
:10243000B9AB06049F0501030B0202FFFFFFFF205B
:10244000D8C7B9AB06049F0501030B0202FFFFFFCB
:10245000FF20D8C7B9AB06049F0501030B0202FF9A
:10246000FFFF20D8D8C7B9AB06049F0501030B02B4
:1024700002FFFFFF20D8D8C7B9AB06049F050103B0
:102480000B0202FFFFFF20D8D8C7B9AB06049F0597
:1024900001130C1212FFFFFFFFDCFFC7FFFF060452
:1024A0009F0501030B0A02FFFFFF20D8D8C7B9AB75
:1024B00006049F0501030B0202AD50FF202020C738
:1024C000FFFF06049F0501030B0202FFFFFF20D858
:1024D000D8C7B9AB000000000000000000000000F9
:1024E00000000000000000000000000000000000EC
:1024F00000000000000000000000000000000000DC
:1025000000000000000000000000000000000000CB
:1025100000000000000000000000000000000000BB
:102520000000000000000000FFFFFFFF00000000AF
:0C2530000000000000000000000000009F
:04000005000D0201E7
:00000001FF
