$
:02000004000DED
:2002000010B581B06A4800F0D1F8002369490B6069490B6000F028FB01F0E0FA002803D047
:2002200001236648037001E000F06AFD00F054FF02F076F9002362490B606248037801211D
:200240000B43037002F07EF95F4908705D490B78802213400B7000235C490B800D28ECD077
:200260000A28EAD05A4C3A2805D100F0D4F8002800D18CE030E04C2805D100F060F90028C8
:2002800000D184E028E04D2804D100F0CEF900287DD021E04E2804D100F078F9002876D090
:2002A0001AE0CE2804D100F0EBF900286FD013E05E2804D100F037FA002868D00CE0E52876
:2002C00004D100F067FA002861D005E057285ED180233C480370B0E736480368002B07D1EF
:2002E0003A480388002B03D03A4803683148036000F06EFA00284AD000F0C5FB002846D0A2
:20030000314908783A2801D040280DD168460330012100F0D6FA002839D06A46D0782E4A06
:20032000117843181B0632D127490878572807D157232370201C0022012102F01BF97CE778
:200340003A2801D12E23F4E74C2805D123484C23C37001220621F0E7CE2803D05E2801D0A5
:20036000E5280BD11D4CE070FF232371201C0122062102F0FFF8FC2323715EE74D2800D178
:200380005BE7CC2800D158E7ED2800D155E758232370201C0022012102F0ECF80022D0435C
:2003A0000123111C00F053FC01B010BD18E0C046D8290D00DC290D00E0290D00202A0D00A4
:2003C000E4290D00212A0D00222A0D00182A0D00232A0D00E8290D00242A0D00252A0D00D4
:2003E0008546F7467047011C0020B34B994208D9B24B994205D35A1C8B1A0322120693426A
:2004000006D2002904D04A1C02D0CB0700D501200006000E7047F0B5A94C201C042100F051
:2004200050FA002800D181E0A64EA74D21786278A778E0785318FB18C3182B70A34B1980CB
:2004400012023A43A24B1A60002871D0022816D1002A6BD1022969D1201C00F032FA0028DF
:2004600064D02178627853182878C01828700B0310011843306000239448038058E004286A
:2004800018D1002A52D1022950D1201C00F019FA002805D16078217843182878C0182870C1
:2004A000207803066078000418433060002387490B803DE005281AD1002A37D1042935D1BC
:2004C000201C00F0FEF9002830D021786278A778E0785318FB18C3182C78E4182C700B0641
:2004E000110419433B02194301433160C3E701281CD10A431AD1201C012100F0E2F90028D4
:2005000014D02378FF2B11D100F0CFFA00280DD070482E2303700022012102F02BF800229B
:20052000D0430123111C00F092FB01E0002005E06748036831685B1803600120F0BD30B5B8
:2005400002F008F8FC2805D102F004F85F490880042801D2002018E05D4C01F0FBFF051CC5
:20056000256001F0F7FF03021D43256001F0F2FF03041D43256001F0EDFF00062843206089
:2005800052480388043B0380012030BD70B500F08CFA002809D001F0DDFFFC2805D101F012
:2005A000D9FF4A490880042801D000203CE0484C01F0D0FF061C266001F0CCFF03021E43F1
:2005C000266001F0C7FF03041E43266001F0C2FF000630432060404840490B78C37001225B
:2005E000062101F0C7FF3E480568FF2000062B1A0120000683420ED33A482B1A0320000603
:20060000834202D2374B9D4205D86868FFF7EBFE002800D0256023685A682260281C0123A0
:20062000002100F014FB012070BD30B500F03DFA002807D001F08EFFFC2803D101F08AFF51
:20064000052801D000201AE0214C01F083FF051C256001F07FFF03021D43256001F07AFF39
:2006600003041D43256001F075FF03061D43256001F070FF011C281C00F06CFA012030BD16
:2006800030B501F067FFFF2849D101F063FF042845D10F4D01F05EFF041C2C6001F05AFFA8
:2006A00003021C432C6001F055FF03041C432C6001F050FF18E0C046FFBF0500FFFFFFFB1A
:2006C0002B2A0D00E0290D00242A0D00182A0D00E8290D00232A0D00252A0D00222A0D00CB
:2006E000DC290D00000000FC03061C432C60534B9C4201D1524C2C605148231A0320000681
:20070000834206D200204F4B0021195401300B28F9DB201C002100F06CFA002801D10020EF
:2007200000E0012030BD30B501F014FFFF282DD101F010FF042829D1434D01F00BFF041CEC
:200740002C6001F007FF03021C432C6001F002FF03041C432C6001F0FDFE03061C432C6062
:200760000020230B1B038100384A5158090B09038B4202D1334B0021195401300B28F0DB66
:20078000201C012100F035FA002801D1002000E0012030BD00B501F0DDFEFF2814D101F056
:2007A000D9FE012810D12A480378002B06D001F0D1FE01F026F8002806D007E001F0CAFEFD
:2007C00000F0A5FA002801D1002000E0012000BD00B581B029E01F4803784C2B04D101F0A4
:2007E000B9FE6946C87006E068460330012100F068F800280BD06A46D178174803785B18D9
:200800000370114A106800F0F6F8002801D1002010E00D4803680133036010480388013B34
:2008200003800F480368013303600C480388002BD1D1012001B000BD14E0C046EFEEBEFC10
:20084000000000FC2F2A0D00E8290D0008260D00202A0D00222A0D00242A0D00182A0D0083
:20086000E4290D0000477047002001239E4A13709E4B9F4A13809F4940230B7030234B7078
:2008800031238B709C490E230B7004234B7001238B70FC230B714871011C984B5854013145
:2008A0000B29FADB964908709649087096490870964908600021CB4395490B609549087015
:2008C000704770B5051C0E1C30E001F043FE031C303B0A2B01D230210AE0031C413B062B16
:2008E00001D2372104E0031C613B062B17D25721401A0407240E01F02DFE031C303B0A2B2A
:2009000001D230210DE0031C413B062B01D2372107E0031C613B062B01D2572101E00020B0
:2009200007E0431A1C432C700135013E002ECCD1012070BD30B5002406E0035D0D5DAB4244
:2009400001D0002003E001349442F6DB012030BD10B5002416E06A490B786C490868201867
:20096000002B06D06C4B195D00F077FF002806D007E0694B195D00F0D6F9002801D10020FB
:2009800005E00134624803689C42E4DB012010BDF0B55F4E5D4B1A68002A03D1021C1A608B
:2009A000002333603568002D23DB032D21D05A4F79550024AB1898420ED16A1C5749381C07
:2009C000FFF7B8FF002806D16A1C5549381CFFF7B1FF002800D00124200603D0691C316021
:2009E000012007E0002D01DDFFF7B2FF0021C94331600020F0BD30B5041C0D1CFF2000065F
:200A0000231A01200006834215D201233D4A1370201CFFF7BDFF002801D0012032E0384AFC
:200A20001378291C201C002B02D000F016FF29E000F079F926E03F208006231A03200006EC
:200A4000834219D201232F490B70002083003549C9588C4208D1344B195C8D4204D1274BDC
:200A600001211954081C0DE001300B28EEDB291C201C00F06BFB05E0257023780020AB42B0
:200A800000D1012030BD10B5002400F075F9002808D000F0B8FE002804D000F009FC002871
:200AA00000D001242006000E10BD30B50024134D2B5D002B08D01C4B195DA000194A105804
:200AC00000F044FB00280CD000232B5501340B2CEDDB00F0EDFB002803D0FFF739FF0028E3
:200AE00024D1002035E0C046212A0D00204E00001A2A0D003A2A0D00252A0D002F2A0D007C
:200B0000202A0D003D2A0D001E2A0D00EC290D00F0290D001F2A0D003E2A0D0000260D006F
:200B200003260D0008260D0034260D00002400F023F9002804D000F066FE002800D0012440
:200B40002406240E63480378002B01D000F0E6FE201C30BD10B5C1B00C1CFF2109060E235C
:200B60006A461370FB2C30D8231D5370012393704D23D370FC2301AA137000235370431AA6
:200B800001221206934211D25248191C0378221C68460630002B04D000F08CFE002814D071
:200BA0001FE000F01EF900280FD01AE03F218906431A032109068B4209D2221C011C6846FE
:200BC000063000F0A0FA00280BD100200FE0002105E06A468A180378013093710131A14225
:200BE000F7D3A11D6846012201F0C4FC012041B010BD00B5384A831A01221206934215D241
:200C00000023364A1360DB43354A1360314A1378002B04D0304A801A00F060FE16E0002928
:200C200013D10120C00300F0F9F80FE03F229206831A03221206934207D2002902D000F0B0
:200C40003DFC03E000F005FD00E0002000BD00B57D20C0010138FDD1002B00D11A1C214913
:200C60000B68222083430B6001201043FFF7E4FD00BD00B51C4B1D4803601D480378002B97
:200C800003D01C4B1C48038012E01B4908880138088000040CD11948582303700022012118
:200CA00001F068FC0022D0430123111CFFF7CFFF00BD30B5051C002408E0002101317D23D3
:200CC0001B019942FAD3FFF7D4FF0134AC42F4D330BD7047202A0D00000000FFEC290D0081
:200CE000F0290D00200436000024F40000903200212A0D00204E00001A2A0D00232A0D0029
:200D000000B500F0CEF800235F490B7000BD00B581B000F0DBF8684603300122002100F0A7
:200D200060F801B000BDF0B5061C0F1C564C574D2078002809D0296843189E4206D000F08A
:200D40001BF8002812D0002020702E6021784B1C237020784E4B5F5429684318190701D0E4
:200D6000062807D100F008F8002801D1002002E0002323700120F0BD10B583B04248017802
:200D8000002901D1012017E0404A1068020A02ACA270E07001230193A0200090A21C3C48D8
:200DA000022300F0D6F8032801D1002004E0002335490B7000F002F803B010BD10B50024E0
:200DC00006E001347D231B019C4201D1002007E0A0220221002000F04DF90328F1D001203D
:200DE00010BD30B581B0041C151C080A6A469070D170A02268460230022100F03BF90128AA
:200E000009D1A022291C201C00F03FF9012802D10006000E00E0002001B030BD30B581B0C9
:200E2000051CFF210020FFF77EFF012427E0201C01340021FFF777FF00280ED0630602D172
:200E4000144B15480380A30519D16846013001220021FFF7C6FF002801D1002012E0684629
:200E60004378002B0DD0FF2369464B7001238B70CE23CB70481C0122032101F07BFBAC42D8
:200E8000D5D3012001B030BD1F2A0D00FC290D00422A0D00204E00001A2A0D000138FDD223
:200EA00070477F490B68772083430B607D490B687D4803407D481843086000237C490B605C
:200EC0007C490B7010237C490B7070477A490B7830229343184308707047754A1368190657
:200EE000090E0220084019D0002313604B0701D5032013E071480378002B0ED0002008E06F
:200F00006F490B6881006F4A895C195401300006000E6A490B789842F2D30120704710B563
:200F2000002404E00134630701D1FFF7A2FEFFF7D4FF0028F6D010BD00B55D480368DB0777
:200F400006D5FFF7ECFF60490870012359490B7000BDF0B583B002900C1C151C1F1C09A807
:200F600000780990FFF7E8FF38E008210998012803D10823D91B0906090E8C4201D2210697
:200F8000090E0E1C0998019008A8007800903B1C2A1C029800F027F8FFF7C1FF0006000E16
:200FA00001281ED1029880190290A41B2404240C391C13D0FF310906090E6A5C92196A5480
:200FC0006A5CB24208D309E0FF310906090E6A5C01326A54120601D10029F5D1002CC4D1EC
:200FE000012003B0F0BDF0B581B01C1C374E384B0025B56006AD2D781D60002C0BD000271D
:2010000007E0BB00334D5D19D35D2B7001373F063F0EA742F5D307AA1278002A0DD1284A3D
:201020001060264A11700D1C0120002C19D02B011C4325062D0E032013E000271F4A1770D2
:2010400065182D062D0E09E03B199B00214A02B4C15D995402BC01373F063F0E8F42F3D382
:20106000002015490B781843356070600120B06001B0F0BD00B582B00123019300920023CC
:201080001A1CFFF766FF02B000BD00B582B00023019300921A1CFFF75CFF02B000BDC04624
:2010A0008C00320074003200FFFFC0C000000A0A0C0B3600482A0D00492A0D004A2A0D006D
:2010C000002A0D00100B36004B2A0D00040B3600000A3600040A360000209D4B00211954A7
:2010E00001302028F9D300239A490B709A490B709A4B9B490B609B490B685B095B011E2043
:2011000018430860704706E00B78037001300131FF321206120E002AF6D10120704730B5FF
:201120000022151C04880C800388A34201D1013202E01C1C0C80002201358B4B9D4201D14A
:20114000002002E0642AEFD3012030BDF0B581B0051C0F1C00267F4C207800280BD0834AB4
:20116000116843189D421CD000F0A2F8002829D00021217015D17E480670EB070FD5013D3D
:2011800069460231281CFFF7CAFF00281AD06846438878480370012323707548037073480A
:2011A000056021784B1C23702078724B5F546F4A11684318190501D0202806D100F078F834
:2011C000002801D1002001E02670012001B0F0BD30B5614D2B78002B52D13F24A4062088C6
:2011E0006188654B2380654A62802388624A934204D12080618004232B7041E0902000F01D
:2012000015F92088BF2816D1902000F00FF960885B4B18404F23DB01984209D0594B98423D
:2012200006D0594B984203D09D239B01984202D1012028703BE0902000F001F9208801283F
:2012400020D1902000F0FBF860884D4B18404F4B984210D08B239B01984208D102232B7021
:2012600001234B490B704B4B4B490B6008E089239B01984206D102232B70002344490B70DA
:20128000012014E0902000F0DAF844490888F02323801C280AD1902000F0D1F86088F02371
:2012A00023803F4B984201D10323E5E7002030BDF0B582B0274D002201922878002800D1BD
:2012C0009CE02C4E294FC30712D5694602313A688318581EFFF723FF002800D18AE028783F
:2012E0006A4651880B1233540130287001200190FFF76EFF00287DD017490878012803D092
:20130000022801D003285FD138683F218906431A1A0BD10820296DD20D4B5207520F0124CE
:201320009440595C214011D100F0C8F8002861D00F480378002B01D0FF2333700198002884
:2013400004D0731E2878C018FF230370002437E04C2A0D001E2A0D006C2A0D0002030A0A4C
:201360007000320064003200C0270900042A0D006D2A0D006E2A0D003412000078560000AD
:20138000E0FF00002027000060530000A02200008E2A0D0000C00FFC082A0D00000200FCE5
:2013A000BA220000A01940780302315D19436A4651803868201800F067F800281AD0023401
:2013C0002B789C42EED317E0042813D100240DE0A01940780302315D19436A465180386832
:2013E0000153035B5088834204D102342B789C42EED301E0002002E000232B70012002B0DD
:20140000F0BD00B5F0233F2292061380A74A1178012902D100F00AF807E0022901D0032953
:2014200002D100F00CF800E0FEE700BDAA23A0490B8055239F490B809D4908807047AA2345
:201440009D490B8055239D490B809B490880704730B593009A1A01E0013A0ED080230B40FB
:20146000048880252C40A342F6D1F0233F24A4062380052203E0013A01D1002003E00388BB
:201480009942F8D1012030BD30B5041C0D1CA020FFF7B7FF258085490A78012A05D11422D4
:2014A000291C201CFFF7D4FF07E0022A01D0032A02D1FF226932F3E7002030BDF0B581B085
:2014C000051CFFF785FE002800D1BFE0774E3378042B00D1BAE02B051B0DED1A3F239B066E
:2014E000E91A00910C0BA310580F0319DF10202F00DBABE08020FFF784FF3078012802D1AA
:201500006B4A6C4906E0022802D0032800D09DE0694A6A49AA23138055230B8030232B8040
:20152000012815D1664A6749281CFFF791FF00280ED06548A310590F0B19D910CB00E11AD1
:201540000122131C8B40C15D1943C155101C7EE03078022801D0032878D15C4A1378002BE1
:201560000DD10099574A531C99422CD25B10994222D25B10994212D2042600242BE0544AB0
:2015800011688D4206D304266310990F0B1999108B001EE0012292038B1A9D4207D3022651
:2015A000E30F19194B105900631AE41A13E0032292038B1A9D4206D30826A310590F0B1961
:2015C000D910CB0005E01026E310190F0B1919110B01E11A641A02281AD13E4A3949281CEB
:2015E000FFF736FF002831D03748A310590F0B19DF10A310590F0B19D910CB00E11A0122D9
:201600008A40C15D1143C1550134013EECD11BE003281BD1304A2B49281CFFF719FF0028CD
:2016200014D02948A310590F0B19DF10A310590F0B19D910CB00E11A01228A40C15D1143DA
:20164000C1550134013EECD1012000E0002001B0F0BD30B53F25AD06FFF7BAFD00286ED0B5
:20166000124C2378042B6AD08020FFF7CAFE2078012805D1AA230E4A13800E4A0C4908E0C6
:20168000022801D003285AD1AA230B4A13800B4A09495523138010230B8001282AD10F4A57
:2016A0000849281CFFF7D4FE1AE0C0466C2A0D00AAAA00FC545500FCAA0A00FC540500FC30
:2016C000A8610000FFFF00004C2A0D008E2A0D00082A0D0080841E0080969800A086010085
:2016E000002807D00020174BFF21195401302028F9D322E02378022B0ED1134A1349281CF1
:20170000FFF7A6FE002807D000200E4BFF21195401302028F9D310E02378032B0FD10C4AF6
:201720000A49281CFFF794FE002808D00020054BFF21195401302028F9D3012000E0002027
:2017400030BDC0464C2A0D0080969800FFFF000000E1F5050021744B585401314029FAD398
:20176000704710B5000BC2084007400F012383401806000E6C4CA35C002901D0034300E098
:201780008343A35410BDF0B581B0051C0E1C20E0290B0091CF084807400F012383401C065B
:2017A000240E6149C85D204009D1281C012100F095F8002810D05C48C35D2343C355009A27
:2017C000531C1B03581E431B591CB14203D2761A451C002EDCD1012001B0F0BD10B500203B
:2017E0005249087052490880FFF7B4FF00F005F900F072F90406240E01D0FFF76AFA201C1E
:2018000010BD0120704730B548480378002B14D1474D2988002901D101201DE0454A1468BA
:201820004548231A01200006834201D2424BE41A201CFFF7A8FF002801D100200CE03F4A2C
:201840002988201C00F0F2F92988884201D0002000E0012000232B8030BDF0B5061C0F1CA6
:2018600032480378002B1FD1314C324D2088002809D0296843189E4206D0FFF7C4FF002830
:2018800012D0002020802E6021884B1C238020882A4B5F5429684318190501D0402807D17A
:2018A000FFF7B1FF002801D1002002E0002323800120F0BD70B5051C0C1C161C00201B49CE
:2018C0000B78002B09D12A1C311C201C00F06FFAB04201D0002000E0012070BD10B5041C62
:2018E00012480378002B12D1201C00290AD00121090300F007FB002809D0201C0121FFF751
:2019000030FF09E00E4900F0FDFA002801D1002003E0FF20FFF71EFF012010BD00B500F0AF
:201920003DF9012000BDC0468F2A0D00CF2A0D001C2A0D000C2A0D00000000FFD02A0D0025
:20194000FFFFFF0F43075B0F01229A40C3089B009548C35890001B180020002900D0101C64
:201960001860704710B5C3089B008F4CE45801239B02E4188B00E11843075B0F0120984008
:201980000B68012A01D1034300E083430B6010BD00B5864A116800F071FC00BD00B5834A19
:2019A000116800F077FC00BD00B5804A116800F07FFC00BDF0B582B01C1C7C4D2B6801936F
:2019C000079B0093231C00F084FC02B0F0BD30B581B01C1C754D2B680093231C00F09BFCC8
:2019E00001B030BD30B581B01C1C704D2B680093231C00F01EFC01B030BD6D48FF238733A0
:201A000083700123C3706B4B684A136003780122FD218B4303700023437067480370036841
:201A20003F218B4313430360101C704700B500F053F800BDF0B581B05D4C237801218B4325
:201A40002370684600F0F0F9002843D0051C00205A4AC300D1180B78AB421CD14B786F46CB
:201A60003E78B34217D18B787E78B34213D1CB786F46BE78B3420ED10B79514A13708B7959
:201A8000504A137023780C218B430122134323706070101C1EE001300006000E0E28D7D368
:201AA0000F2069460B78BF2B00D10E206070C300D018837943490B706946887803071B0F7B
:201AC0003F490B7023780C2083430121212003432370081C01B0F0BD00B500F002FD0128EB
:201AE0000BD92021384800231A1CFFF77BFFFFF7A1FF002801D0012000E0002000BD30B526
:201B0000051C304C2378DB0603D55020FFF740FF06E00620FFF73CFF00F018F88007FBD59B
:201B200023781B0703D500F011F8C007FBD42B02012119430804000CFFF730FF23781B07DC
:201B400003D500F003F8C007FBD430BD10B581B005236C46E370A31CE11C0122101CFFF71B
:201B600036FFA07801B010BD00B5FFF7EFFF3C210840801000BD10B503079C0EFFF7E6FFBB
:201B80003C2188430443201CFFF7B9FF0D4A1378DB0702D5201CFFF7B2FF10BD00B5FFF7F6
:201BA000D5FFC007FBD400BD40280D00102A0D00102B0D0000243500142A0D0080260D00A3
:201BC000142B0D00152B0D00001BB70030B583B002900C1C151C002C26D00620FFF7D8FE83
:201BE00002A801780906427812041143827813021943B748427814235343B64A9A18D279A1
:201C0000114301910023009301AA201D01230421FFF7D0FE012300932A1C211C201D002399
:201C2000FFF7C8FEFFF7BAFF03B030BDF0B587B001900C1C161CA6480378DB0701D5002C85
:201C400001D1002085E000F09BF8A3490B68DB0702D500F072FA0EE0A0480378DB0603D52C
:201C60005020FFF795FE06E00620FFF791FEFFF76DFF8107FBD599490878430630D5FF274A
:201C80000137830700D58027019D291C381C00F0AFFC3A1A0292A24200D902940298211A24
:201CA000381C00F089FC04910390321C0299281CFFF78CFF019D02996D18761805E0391CFF
:201CC000FFF784FF019DED19F6190195321C281C039901390391F2D20499FFF777FF2FE06A
:201CE000022305A80370002525E00620FFF750FE01AA937805AA537001AA537805AA9370BB
:201D000001AA137805AAD3703178013606AA1170019B01330193FFF719FF8107FBD501239C
:201D2000009305AA0521081CFFF744FEFFF70EFFC107FBD40135A542D7D30420FFF728FE3E
:201D400065490B68DB0701D500F0D5F900F003F8201C07B0F0BD00B5604803781B060ED585
:201D60005B490878830805211940042907D1B920FFF70EFE56490B78082003430B7000BD8D
:201D800010B5534C23781B0710D5AB20FFF700FE002000E001300322A1560902A2780A43BF
:201DA0009042F7D3237808208343237010BDF0B583B000900E1C151C341C45480378DB07A1
:201DC00003D4FFF789FE002801D0002E01D1002028E0FFF7D5FF371CC82E00D3C82768460B
:201DE000837801A94B7043788B700378CB703B4803789B0605D50B230B70552302A90520AD
:201E000001E0032304200B702B1C3A1C01A9FFF7DEFD009BDB190093ED19F61BDBD1FFF729
:201E20009AFF201C03B0F0BD70B583B0051C9F23684683701523C37090230293002D00D1E0
:201E400001ADFFF79DFF02242B1C6946023103220120FFF7BCFD2878002803D0FF2801D06B
:201E6000032033E02B1C6946033102220120FFF7AEFD0023AB702878002801D0FF280CD141
:201E80002B1C02A902220420FFF7A1FD0023AB702878002803D0FF2801D0022016E0AB20C0
:201EA000FFF776FD002002E001300004000C0C4E002171560902033EB2780A439042F3DBD1
:201EC000013C2404240CBFD12006000E03B070BD102B0D0000270D00142A0D00152B0D00B5
:201EE000132B0D0000B59E480378DB0703D4FFF7F3FD002805D09B49087803040120000455
:201F0000181800BDF0B581B000900C1C94480378DB0703D4FFF7E0FD002859D0FFF730FFED
:201F2000914E3368DB0701D500F007F98F4D0620FFF72EFD8A4A51780D2925D001231B0352
:201F40009C4210D86F463A7810067C7824042043BB781B02184314234B435919097B08430E
:201F6000FFF722FD25E0DB009C421CD86F463A7810067C7824042043BB781B0218431423BC
:201F80004B435919497BEAE76B46197808065A78120410439A7813021843FF220532AB1884
:201FA0009A7B1043DCE714224A435119C87BFFF7EFFCFFF7CBFDC107FBD43368DB0701D5FD
:201FC00000F099F80420FFF7E3FCFFF7C4FE012001B0F0BDF0B5A0B0061C0F1C151C604C31
:201FE0002078C3071FD5031C0420034323700AE08021FFF7DCFE6A468021301CFFF716FE6D
:2020000080368037803D6A46381C802DF0D8291CFFF7CDFE23780420834323706A46291C0A
:20202000301CFFF703FE20B0F0BD00B54C490B78DB074ED54E4803781B064AD54D481923EC
:202040005B041A681207120F012A07D30CD0022A11D0042A15D0082A19D01FE04B78DB00AC
:20206000C0184079302217E04B78DB00C01840794001803818E04B78DB00C01840791822FD
:202080000AE04B78DB00C01840790C2204E04B78DB00C01840790622504304E04B78DB00A9
:2020A000C01840790001903843109A0F1318981088708B78000AC87000060014034302D583
:2020C00000238B70CB700B78102003430B70FFF742FE00BD00B522480378DB070AD5244879
:2020E00003781B0606D5FFF74BFE1D490B78102083430B7000BD10B519494B789B001E4828
:20210000C05C194C23689B0714D58300802018430006000EFFF7F3FC23689B06180F01223B
:202120000021FFF71FFC23689B06180F0021FFF709FC01E0FFF71FFD10BD00B50A480168CE
:202140008B0708D58B06180F0121FFF7FBFB0020FFF7D5FC02E00020FFF70DFD00BDC0469E
:20216000102B0D00142B0D00142A0D0000270D00152B0D0080260D0040260D000123DB04D6
:2021800043627047436A1B03FCD5704730B5051C0C1C201CFFF7F2FF6560201CFFF7F2FF57
:2021A00030BD036894490B400360704703680121C9020B43036070470368032109030B43DC
:2021C0000360704703680721C9020B430360704703680B21C9020B430360704710B5021C72
:2021E000002404E0802043581806000E01349442F8D310BD10B5012404430C6000238B6220
:202200007E4B994202D140237D4A0CE07D4A7E4B994209D1546A18239C43546208241462BC
:202220001363D3622023136008600022D2434A6210BD70B5041C049E744D0B431343181CA5
:20224000734B1843311CFFF7D5FF6B009C4201D1012011E01B129C4201D21C1C02E0AC423B
:2022600000D92C1C291C201C00F0A6F93F308006800E4300C0011843306370BD00B581B0A5
:202280006A46D0700A1C69460331012000F096F801B000BD00B581B06A469070000AD07058
:2022A0000A1C69460231022000F088F801B000BD10B581B06C462070020A6270020CA270E0
:2022C000030EE3700A1C6946042000F077F801B010BDF0B5071C0E1C141C069D002F19D0E7
:2022E000002E17D0002B02D0281CFFF75AFF002004E021780134C02251510130B042F8D3F5
:202300000598002806D0281CFFF750FF291C381CFFF73CFFF0BDF0B581B0051C0091161C68
:202320001F1C069C002D23D0002E21D0201CFFF738FF002006E000990A7801310091C02153
:202340000A510130A842F6D3201CFFF73BFF211C7019FFF71BFF211C281CFFF73FFF002027
:2023600004E080210A593A7001370130B042F8D301B0F0BDF0B5051C0E1C171C1C1C002DBF
:202380001BD0201CFFF70DFF002004E031780136C02211510130A842F8D3201CFFF718FFBD
:2023A000211C281CFFF7F2FE002004E080221159397001370130A842F8D3F0BD00B582B04B
:2023C0000192012300930A1C011CFFF782FF02B000BD70B5051C0E1C141C002D21D0201C90
:2023E000FFF7DFFE201CFFF7E7FE211C281CFFF7CDFE002013E0C046FF87FFFF00063600D8
:20240000000132000C00350000243500001BB7000002330080221159317001360130A842E9
:20242000F8D370BD03680121C9020B4303607047036837490B4003607047036801210903FB
:202440000B4303607047036832490B400360704700B502430A43092040041043191CFFF797
:20246000C9FE00BD30B5002304E00C780131C025AC5001338342F8D330BDC022505070476B
:2024800003061B0EC02253500304180E5050704710B503061B0EC024635003041A0E625092
:2024A00003021A0E6250030E635010BD80684005400D704730B593695B055B0D834201D23A
:2024C000012009E0002304E08025AC580C70013101338342F8D3002030BD80694005400D48
:2024E000704770B50C4900200C4E34680D68012333603268012A00D1101C084A14600123BD
:202500000B600B68012B01D1022210430D6070BDFFF7FFFFFFEFFFFF0C2435000C06360041
:2025200021490B68402003430B600B68202003430B600B6802210B431B490B6000231B490F
:202540000B60704700B500F005F8012801D100F001F800BD10B5164C012316480360FEF715
:2025600088FB0820A066A36E1B07F8D423681806000E10BD10B50E4C0223A366A36E9B0727
:20258000FAD5002A07D0042204E001390904090C0278013022600029F7D10220A066A36EAE
:2025A0009B07FAD510BDC04620043600300436001C0036002C04360030B400230124021C11
:2025C00004D10E4A002A10D030BC1047914207D3891A1B194D08AA42F8D252006400F5E760
:2025E000012C02D052086408F0E7181C30BC704700B5FFF7E1FF081C08BC18470000000096
:02000004000DED
:202600000108000106000000C80000FCE81000FCE88000FC00E003FC00F003FC00E007FCDD
:2026200000F007FC00E009FC00F009FC00E00FFC00F00FFC43434301010101010101010016
:20264000030000000300000003000000030000000300000003000000030000000300000062
:202660000300000003000000010000000F0000000F0000000300000003000000030000002C
:2026800003C220140F03EC00031F6601011E6D00031F6500001EEE0002BF480000FF300063
:2026A00002BF490001FF300003C220100003EC00031C31110103EC00033730120103B0007B
:2026C000033730110103B000033730100103B000031F42000F1EEC00031F43010F1EEC00A1
:2026E000031F44020F1EEC0003202013071EEC0003BFFF140F1E30000320FF140F1EEC0071
:2027000006049F0501030B0202FFFFFF20D8D8C7B9AB000006049F0501030B0202FFFFFF42
:2027200020D8D8C7FFFF0000060415050103FF0202FFFFFF20525262B9AB000006049005B3
:2027400001030B0202AF50FFFF20D8C7FFFF0000060490050103FF0202AF50FFFF20D8C74A
:20276000FFFF000006049F0501030B0202FFFFFF20D8D8C7B9AB000006049F0501030B02E3
:2027800002FFFFFFFF20D8C7B9AB000006049F0501030B0202FFFFFFFF20D8C7B9AB000038
:2027A00006049F0501030B0202FFFFFFFF20D8C7B9AB000006049F0501030B0202FFFFFF7B
:2027C000FF20D8C7B9AB000006049F0501030B0202FFFFFF20D8D8C7B9AB000006049F0570
:2027E00001030B0202FFFFFF20D8D8C7B9AB000006049F0501030B0202FFFFFF20D8D8C779
:20280000B9AB000006049F0501030B0A02FFFFFF20D8D8C7B9AB000006049F0501030B02D4
:2028200002AD50FF202020C7FFFF000006049F0501030B0202FFFFFF20D8D8C7B9AB0000BC
:0828400000C0320000B03200BC
:00020001FD
