:02000004000DED
:10020000F8B5664800F0CEF8654C0025E561E5627A
:1002100000F0D2FC01F0A1F810B10120A07001E0C3
:1002200000F038FD00F046FD01F066FF00F0A5FC8F
:100230005B4FA5627F1C07F12F06207840F001007C
:10024000207001F0F6FFE07021780D2801F08001A8
:1002500021702581F1D00A28EFD03A2812D04C28FD
:1002600013D04D2814D04E2815D0CE2816D05E2895
:1002700017D0E52818D0CC2819D018281AD057281C
:100280001ED050E000F0E7FB16E000F0BDFB13E0ED
:1002900000F08EFB10E000F0F5FA0DE000F0AFFA90
:1002A0000AE000F07CFA07E000F03EFA04E000F01B
:1002B00009FA01E000F091F9A8B3E06918B106E08D
:1002C00080202070B9E7208908B1606AE06100F001
:1002D00057F940B300F0BAF828B3E0783A2801D0D3
:1002E00040280BD10121684600F077F8D8B1207979
:1002F0009DF80010084410F0FF0F14D1E078572843
:1003000023D03A2820D04C2827D0CE282BD05E28C6
:1003100029D0E52827D0182831D04D288DD0CC28D9
:100320008BD0ED2889D0582038701D48002201213B
:10033000401C01F087FF01B00022BDE8F04001231E
:100340001146501E00F038B82E2038701448002294
:100350000121401C01F076FF6FE7F0701048012288
:1003600006213030F6E7F070FF2030710C48012292
:100370000621303001F066FFFC2030715DE7F0703F
:10038000074801220621303001F05CFF206901F0AE
:1003900003FF0028C7D025614FE70000882A0D0021
:1003A000A0240D00854670470047EFF3108072B619
:1003B000704780F31088704700204FF47A51401C3A
:1003C0008842FCD303B90022FA48016821F02201D7
:1003D000016042F00100FFF7E7BF70B504460D462B
:1003E0002EE001F013FFA0F13001092901D800012E
:1003F0000EE0A0F14101052903D80001A0F55C70D1
:1004000006E0A0F1610105291ED80001A0F5AE604B
:10041000C6B201F0FBFEA0F13001092901D80E435C
:100420000BE0A0F14101052901D8373804E0A0F123
:100430006101052908D85738064304F8016B6D1E81
:10044000002DCED1012070BD002070BD10B500F090
:1004500026FC38B100F094FF20B100F0E9FD08B1AE
:10046000012010BD002010BD70B5D34E0024A6F1B0
:100470000D050DE0A878315D00286869204402D0A0
:1004800000F0A4FF01E000F008FC002804D0641C88
:10049000A8698442EEDB012070BD30B5002306E080
:1004A000C45CCD5CAC4201D0002030BD5B1C9342EB
:1004B000F6DB012030BD10B5BF4C0D3C62692AB19E
:1004C000A269002A12DB032A10D002E00022C4E94C
:1004D0000502B94B995461691144814212D1521CF1
:1004E000B6491846FFF7D9FF50B901E0002010BD0A
:1004F000A269B249521CC91CAF48FFF7CEFF08B130
:10050000012000E000200028A06903D0401CA06169
:10051000012010BD002801DDFFF7A6FF4FF0FF30DE
:10052000A061E3E770B50E46A34D044600F180716B
:1005300001200D3DB1F1807F12D268713146204615
:10054000FFF7B9FFD0B9A87831460028204603D07C
:10055000BDE8704000F03ABFBDE8704000F09DBBC0
:1005600004F18061B1F1407F06D2687131462046C6
:10057000BDE8704000F0E2BD26702078012070BD1B
:1005800038B58D4C44F620650D3C1CE0E580E078E4
:100590004C281DD001216846FFF71FFF002816D008
:1005A00020799DF8001008442071606AFFF7BAFFB7
:1005B00000280CD0606A401C60622089401E2081A7
:1005C000A06A401CA06220890028DFD1012038BD2C
:1005D00001F01CFE8DF80000E2E710B501F016FEF8
:1005E000FC2824D101F012FE062820D101F00EFED5
:1005F00001F00CFE01F00AFE6F4C0D3C206101F091
:1006000005FE216941EA0020206101F0FFFD21691A
:1006100041EA0040206101F0F9FD216941EA0060F2
:1006200020616749401E884201D2012010BD002090
:1006300010BD00B589B00A460E218DF800100821C2
:100640008DF8011001218DF80210CC218DF80310D6
:10065000FC218DF8041000218DF8051010F1807137
:1006600014D355480D3883780DF1060013B100F00E
:10067000EFFE01E000F019FB002805D001220A215D
:10068000684601F0DFFD012009B000BD0020FBE756
:1006900010B500F0CDFC002813D0FFF7E5FE0028D0
:1006A0000FD000F0FCFA20B100F06AFE08B101247E
:1006B00000E0002440490D39897809B100F0D7FEE7
:1006C000204610BD70B5FFF7E3FF002808D001F009
:1006D0009DFDFC2803D101F099FD082801D00020E0
:1006E00070BD01F093FD044601F090FD44EA002442
:1006F00001F08CFD44EA004401F088FD44EA006406
:1007000001F084FD054601F081FD45EA002501F078
:100710007DFD45EA004501F079FD45EA006120468E
:10072000FFF787FFC0B270BD10B501F06FFDFF2865
:1007300003D101F06BFD012801D0002010BD1E483F
:100740000D38807820B101F061FD00F017FE03E064
:1007500001F05CFD00F09FFA0028EFD0012010BDF1
:1007600010F180720FD3144800230D3843615B1ED3
:100770008361807810B1104600F09ABD69B94FF4DA
:10078000004000F094BA00F18062B2F1407F04D2E0
:1007900009B100F08DBB00F008BD0020704710B516
:1007A00001F034FDFF2803D101F030FD042809D009
:1007B000002010BD20043600AD240D00A0220D0045
:1007C000FF117A0001F022FDF64C606201F01EFD7F
:1007D000616A41EA0020606201F018FD616A41EA45
:1007E0000040606201F012FD616A41EA006001218F
:1007F0006062FFF7B5FF0028DBD00120D9E710B514
:1008000001F004FDFF2803D101F000FD042801D010
:100810000020CEE701F0FAFCE24C606201F0F6FC49
:10082000616A41EA0020606201F0F0FC616A41EA1D
:100830000040606201F0EAFC616A41EA0060DA4966
:100840006062884202D14FF07C4060620021FFF775
:1008500087FF0028ADD00120ABE7B0F5B82F08D353
:10086000D24A411E914204D300F18061B1F1407F30
:1008700006D228B1411C03D0C00701D00120704727
:100880000020704710B5FFF703FF002891D001F05A
:10089000BDFCFC2805D101F0B9FCC24C0428208124
:1008A00001D0002085E701F0B1FC606201F0AEFCF0
:1008B000616A41EA0020606201F0A8FC616A41EAD5
:1008C0000040606201F0A2FC616A012241EA00601E
:1008D0006062B448E1783030C170062101F0B2FCAA
:1008E000E06900F18071B1F1807F0DD300F180618A
:1008F000B1F1407F02D2B0F17C4F05D84068FFF7DC
:10090000ACFF08B1E0696062606A012300214268BF
:100910006262E069FFF750FD01204AE730B50C46FE
:10092000C1B00E218DF80010FB2C02D9002041B07F
:1009300030BD211D8DF8011001218DF802104D21CF
:100940008DF80310FC218DF8041000218DF805109E
:1009500000F180716B46B1F1807F0CD29148224644
:100960008078002803F1060002D000F05FFD0CE063
:1009700000F099F909E000F18061B1F1407F07D200
:1009800001462246981D00F0AAF90028CFD008E0C1
:10099000002104E05D1810F8012BAA71491CA14246
:1009A000F8D30122A11D684601F04CFC0120BEE7EE
:1009B00010B5FFF76DFE002808D001F027FCFC28D9
:1009C00003D101F023FC052801D00020F1E601F05D
:1009D0001DFC744C606201F019FC616A41EA002060
:1009E000606201F013FC616A41EA0040606201F05C
:1009F0000DFC616A41EA0060606201F007FC01469B
:100A0000606ABDE8104089E710B501F0FFFBFC28E3
:100A100005D101F0FBFB634C0428208101D20020AA
:100A2000C7E601F0F3FB606201F0F0FB616A41EAA6
:100A30000020606201F0EAFB616A41EA0040606206
:100A400001F0E4FB616A41EA006060622089001FF6
:100A500020810120ADE670B5524804212030FFF717
:100A6000BCFC00286ED04F4C4E4D2034207861786D
:100A7000A378E27801441344194429712881B4F819
:100A80000110002A49BA696271D00026022A06D0F4
:100A9000042A18D0052A2AD0012A46D051E0E9BB01
:100AA00002284ED13F4802212030FFF796FC002853
:100AB00048D0207861782B7942181A4400032A71B3
:100AC00040EA011011E049BB02283AD13548022121
:100AD0002030FFF782FC28B9207861780844297912
:100AE00008442871208840BA0004E8621BE0A9B9D4
:100AF000042826D12B4804212030FFF76EFC002863
:100B000020D020786178A2780144E0780244114432
:100B10002A7911442971216809BA00E011E021F015
:100B2000FF010143E9622E8121E0014309D11D4803
:100B300001212030FFF751FC002803D02078FF2846
:100B400001D0002070BDFFF7A3FD0028FAD01549A1
:100B50002E20491C0022087012480121401C01F07F
:100B600071FB002201231146501EFFF725FCE96AA4
:100B7000686A08446862012070BD30B50C4B0D4CAA
:100B8000002108460022C50702D083EA500000E099
:100B90004008521C082AF6D344F82100491CFF29BA
:100BA000EFD930BDA0240D00EFEEBEFCFEFFFFFB31
:100BB0002083B8EDF8240D003248012244F620616C
:100BC0000270C18000F10A0140230B7030234B708A
:100BD00031238B7026310E230B7004234B708A70E7
:100BE000FC220A7100224A712749827042710A7000
:100BF000511EC0E905217047254910B523480860FA
:100C00002049087818B144F62060C880D1E5C8882A
:100C1000401E0004000CC880F8D11A495A20491C13
:100C20000022087017480121401C01F00BFB002234
:100C30000123BDE810401146501EFFF7BDBB70B543
:100C4000054600244FF4FA6606E00021491CB14233
:100C5000FCD3FFF7D1FF641CAC42F6D370BD10B5D6
:100C600000F07BFB00280BD0064901208870002192
:100C7000084600F01DFBBDE81040002000F063BDF9
:100C800097E50000A0240D00DB240D000024F400F3
:100C9000009032007047012070470120704701200A
:100CA00070470120704701207047012070470120E4
:100CB000704700000020FF4A01461154401C2028C4
:100CC000FBD3FD48C17041704FF44810FB490167E8
:100CD000416E21F01F0141F01E014166704705E0A1
:100CE00011F8013B521E00F8013BD2B2002AF7D1A5
:100CF0000120704770B500220488F14D13460C8026
:100D000004880E88A64201D1521C01E00C8000220A
:100D10005B1CAB4201D1002070BD642AF0D30120DE
:100D200070BD10B502EB420201F0800301E0521EDB
:100D300011D0048804F08004A342F8D14FF07C4322
:100D4000F0221A80052201E0521E04D003888B4253
:100D5000FAD1012010BD002010BDDA49AA220A8074
:100D6000D94B55221A8008807047D849AA220A8098
:100D7000D74B55221A80088070474FF07C42F021F3
:100D80001180CD494978012904D0022903D00329D3
:100D900001D0FEE7E9E7E0E730B505460C46A020C4
:100DA000FFF7EBFFC4482C804278012A05D0022AC5
:100DB00005D0032A03D0002030BD142201E04FF4F7
:100DC000B47221462846BDE83040AAE7F0B5BA4CD7
:100DD0006078002868D14FF07C452888698841F206
:100DE00034222A8045F278636B802B88934204D1A9
:100DF000288069800420607056E09020FFF7B5FFDE
:100E000028880126BF2818D19020FFF7AEFF6888F8
:100E10004FF49E71B1EB501F0DD0C91EB1EB501FA6
:100E200009D040F29B21B1EB501F04D04FF49D71CB
:100E3000B1EB501F01D1667036E09020FFF78DFFB7
:100E40002888002701281AD19020FFF786FF68889C
:100E500040F215120221B2EB501F01D1617022E065
:100E60004FF48B72B2EB501F04D16170A670994899
:100E7000A06019E04FF48972B2EB501FEED09020C1
:100E8000FFF76BFFB5F80002F0262E801C280DD16D
:100E90009020FFF762FF68882E80A0F50851BA39CC
:100EA00004D103206070A7700120F0BD0020F0BDC8
:100EB0002DE9F0430446FFF789FF002875D07E4FE7
:100EC0007878042813D0C4F30B00261A06F1806545
:100ED0002C0BFF2C0BDC8020FFF74FFF7878AA2229
:100EE0005521012804D0022806D0032804D09DE013
:100EF000764B1A80764A02E0724B1A80724A118051
:100F00003021B8460127DFF8ACC131804FF6FF79B8
:100F1000012813D146F2A81249463046FFF701FFD7
:100F200060B1E01704EB50700CEBE00120F007001B
:100F30000A78201A87403A430A7074E098F8010052
:100F40004146022801D0032870D18A7852B1D8F8DE
:100F500008108E422DD30425E11704EB917121F086
:100F600003011BE0B5F5803F06D31025E11704EB24
:100F7000117121F00F0111E0B5F5004F06D30825DE
:100F8000E11704EB517121F0070107E0B5F5804F3F
:100F90000CD304EBD471022521F00101611A641A0B
:100FA00002280FD0032826D040E03DE0042500248D
:100FB000F6E7A1F580429642EBD2A1F540418E4280
:100FC000DDD2D2E7444A49463046FFF7AAFE78B957
:100FD0002CE0E01704EB50720CEBE20022F0070269
:100FE000A21A017807FA02F21143641C01706D1E07
:100FF000002DEED117E0394A49463046FFF791FE01
:1010000078B913E0E01704EB50720CEBE20022F029
:101010000702A21A017807FA02F21143641C017058
:101020006D1E002DEED10120BDE8F0830020FBE70E
:1010300078B5214E0024F07810B31E4DC107A5F1FC
:1010400020050FD071680844401E6946FFF752FE24
:10105000002816D0BDF800000124010AF0782954B8
:10106000401CF070FFF7B2FE00280AD0707801280B
:1010700008D0022806D0032804D0042847D05BE01B
:10108000012078BD706800F18061090BFF2953D8F9
:10109000084A01F0070302EBD102012112789940BE
:1010A0000A4223D1FFF704FF0028EAD03178FF205D
:1010B000B9B115E0AC2A0D00D8240D0002030A0ACC
:1010C000C0270900AA0A00FC540500FCAAAA00FCDB
:1010D000545500FC00C00FFC80841E0080969800D0
:1010E00028701CB1F178294401F8010C00240AE0B1
:1010F00028190188ADF8001070682044FFF74CFEF5
:101100000028BED0A41CF0788442F1D311E0002066
:1011100073680BE029180A881918ADF800200A80B6
:101120000988BDF80020914206D1801CF1788842E0
:10113000F0D30020F070A3E7002078BD2DE9F8413E
:10114000444E0446444FF0788846002540B171680B
:101150000844A04215D0FFF76BFF002823D0F5709C
:101160003570E0070CD0641E69462046FFF7C2FDCB
:10117000002818D0BDF8000038700120F0703070E1
:101180007460F07807F80080401CC0B2F07071689D
:101190000144090501D0202804D1FFF749FF0028A8
:1011A00001D0F5700120BDE8F881F0B5FFF70EFE23
:1011B00000284CD0274E7078042849D08020FFF7B3
:1011C000DCFD254D7078AA2155221023FF242035FF
:1011D0004FF6FF774FF07C4C012804D0022813D043
:1011E000032811D034E01D4801801D490A80038086
:1011F0001C4A39466046FFF794FD50B100202C543C
:10120000401C2028FBD321E01748018017490A80A1
:101210000380707802280BD1154A39466046FFF7E3
:1012200080FD28B100202C54401C2028FBD30DE069
:10123000707803280CD10F4A39466046FFF771FDDC
:1012400030B100202C54401C2028FBD30120F0BDDD
:101250000020F0BDD8240D008C2A0D00AAAA00FCA5
:10126000545500FCA0860100AA0A00FC540500FCAD
:101270008096980000E1F5057F4A00215054491CF2
:101280004029FBD3704770B505460C4600F0DBFBE8
:10129000B5FBF0F2D00802F0070101228A4076493E
:1012A000D2B20B5C0CB1134300E093430B5470BDFE
:1012B00010B504467148007808B1002010BD61B136
:1012C00000F0C1FB0146204600F0D2FB0028F5D01B
:1012D00001212046FFF7D7FF09E06FF0704120465B
:1012E00000F0C6FB0028E9D0FF20FFF7C5FF012072
:1012F00010BD2DE9F04707460C46DFF87C9127E04A
:1013000000F0A1FBB7FBF0F5EE0805F007000121A6
:10131000814019F8060001F0FF0810EA080F0BD110
:1013200001213846FFF7C4FF002814D019F8061031
:1013300041EA080109F8061000F085FB6D1C6843BE
:10134000401EC11B4A1CA24204D2641A641E471CE0
:10135000002CD5D10120BDE8F08710B5474C002006
:1013600020706080FFF788FF00F0D2F800F0CDF920
:1013700010F0FF0001D10120207010BD0120704746
:1013800070B53E4D287808B1002070BD6988B9B1AC
:101390006C68204604F18074B4F1807F00D3044669
:1013A0002046FFF7A6FF0028EFD0334A6988403A6D
:1013B000204600F04BFA6988884203D1012002E000
:1013C000012070BD00200021698070BD2DE9F04131
:1013D0002A4C07460E46207810B10020BDE8F08167
:1013E0006088002540B161680844B84205D0FFF725
:1013F000C7FF0028F2D0658067601F4960884039C8
:101400000E54401C608000F01EFB618862680A4434
:10141000B2FBF0F300FB132008B1402904D1FFF721
:10142000AFFF0028DAD065800120D7E770B5054608
:1014300012480B461446007840B92A462146184601
:1014400000F096FAA04201D1012070BD002070BDCD
:1014500010B5044609480B461146007808B1002033
:1014600010BD2246184600F03BFCC0B210BD10B5BE
:1014700000F07EF9012010BD0C2B0D00E4240D00BE
:1014800000F0070301229A40FB4BC00853F82000EC
:1014900000EB820009B102607047002101607047D3
:1014A00010B5F54CC30854F8233003F5806303EB03
:1014B000810100F0070301209840012A0A6802D048
:1014C00082430A6010BD0243FBE7EC49096800F063
:1014D00008BDEA49096800F00BBDE849096800F059
:1014E00013BD7CB5E54D069C2D68CDE9004500F0A7
:1014F000CDFC7CBD38B5E14C2468009400F016FDAD
:1015000038BD38B5DD4C2468009400F09CFC38BD33
:10151000DB484FF4C371D94A4180DA491160017840
:1015200021F0FD01017000214170C11E01200870F1
:1015300070471CB505208DF8040001226B4601A9F7
:101540001046FFF7D7FF9DF800001CBD70B5CC4CCE
:101550000546A41E2078C00603D55020FFF7B5FF2E
:1015600006E00620FFF7B1FFFFF7E3FF8007FBD59A
:101570002078000703D5FFF7DCFFC007FBD101206F
:1015800000EB0520FFF7A5FF2078000703D5FFF744
:10159000D0FFC007FBD170BD10B5B94C2078000753
:1015A0000DD5AB20FFF791FF0020B4F9021000E049
:1015B000401C8142FCD8207820F00800207010BD2B
:1015C0007FB504004FF09F008DF800004FF015002C
:1015D0008DF804004FF09000029000D103ACFFF7AB
:1015E000DBFF022500262346032269460120FFF780
:1015F00081FF207820B1FF2802D0032004B070BD05
:101600002346022201A90120FFF774FFA67020786B
:1016100008B1FF280AD12346022202A90420FFF7BD
:1016200069FFA670207818B1FF2801D00220E5E7F5
:10163000AB20FFF74AFF92490020B1F9021001E008
:10164000401C80B28142FBDC6D1E2D042D0CCAD1E2
:101650000020D3E72DE9F843894C207820F00100E1
:1016600020706846FFF7ACFF00284AD0824E002168
:101670009DF800309DF801C09DF80250A4F10308C8
:10168000A4F10209083601EB810216F812708742B4
:101690001CD106EB420257789F4217D197786745D5
:1016A00014D1D778AF4211D101EB810006EB400095
:1016B000808888F80200127A89F80020207820F0CB
:1016C0000C0040F001002070617019E0491CC9B2A3
:1016D0000F29D8D3BF2B16D010206070C0B200EBFA
:1016E000800006EB4000017A89F8001005F00F0039
:1016F00088F80200207820F00C0040F021002070D3
:101700000120BDE8F8830F20E7E710B500F0D1FC19
:1017100001280ED900231A4620215B48FFF7F1FE6D
:10172000FFF798FF002803D00020FFF70FFF0120EC
:1017300010BD002010BDE8E710B5FFF7FAFE00F07D
:101740003C00800810BD70B50007850EFFF7F1FE64
:1017500020F03C042C432046FFF7F8FE4849891E40
:101760000978C90703D02046BDE87040EEE670BD99
:1017700010B5FFF7DEFEC007FBD110BD404810B525
:101780000078C00703D1FFF7C0FF002804D03C4811
:10179000C01E8078401C000410BDF7B584B00C005A
:1017A00017463DD00620FFF790FE35483249012606
:1017B0004078B23100EBC00001EB4000C0798DF8F9
:1017C0000400FFF7DBFF9DF812109DF811209DF833
:1017D0001030B0F1807F07D28DF805108DF806200B
:1017E0008DF8073004210AE09DF813008DF80500FC
:1017F0008DF806108DF807208DF80830052100209F
:1018000065180090012301AA2846FFF76AFE00230D
:101810003A46214628460096FFF763FEFFF7A8FFE9
:1018200007B0F0BD164810B5801E007800060CD534
:10183000134C2078C10608D5400706D4B920FFF71D
:1018400044FE207840F00800207010BD2DE9F743D9
:101850000B4884B00E4600781546C00717D0AEB1CD
:10186000FFF79AFE064CA41E2078C00612D5502021
:10187000FFF72BFE15E00000A8220D00F4240D0058
:10188000EF240D0000243500001BB700002007B036
:10189000BDE8F0830620FFF718FEFFF74AFE800739
:1018A000FBD5207841062ED5800701D5802401E0A4
:1018B0004FF480740498B0FBF4F104FB1100271A74
:1018C000B74200D93746F01BB0FBF4F804FB180907
:1018D0002A4639460498FFF760FF04983D4438448F
:1018E000049007E021460498FFF757FF0498254429
:1018F00020440490B8F101082A46F3D249460498DE
:10190000FFF74BFF30E0022000248DF80400012790
:1019100025E00620FFF7D9FD9DF812008DF805009F
:101920009DF811008DF806009DF810008DF8070055
:1019300015F8010B8DF808000498401C0490FFF77F
:10194000F8FD8007FBD50521012301AA0846009771
:10195000FFF7C7FDFFF7EDFDC007FBD1641CB442E4
:10196000D7D30420FFF7B1FDFFF75CFF30468EE7C9
:101970002DE9F74F84B0F84D02910C4628781646B1
:10198000C00703D1FFF7C1FE00280FD06CB1FFF7ED
:1019900003FEF14FDFF8C4A3A9464FF0807BBF1EC2
:1019A000E846C82C05D2254604E0002007B0BDE873
:1019B000F08FC82538788006002899F8010000EBE0
:1019C000C0010AEB410001DA807900E040798DF82E
:1019D0000000FFF7D3FE58450DD29DF812008DF898
:1019E00001009DF811008DF802009DF810008DF89F
:1019F0000300042010E09DF813008DF801009DF80D
:101A000012008DF802009DF811008DF803009DF87A
:101A100010008DF8040005203978890604D5552278
:101A200008F80020401CC0B233462A466946FFF73A
:101A300061FD04982E4428440490641BB1D1FFF743
:101A4000F1FE0298B2E710B5C34C2078C00702D16E
:101A5000FFF75BFE48B16078C04900EB8000AA390F
:101A600001EB40008079000310BD4FF4805010BDA1
:101A7000F3B5B94D83B00F462878C00703D1FFF7FF
:101A800044FE00286BD0FFF787FD0620FFF71DFD01
:101A90006878B24C01260E280CD0B7F5805F0DD8BF
:101AA00000EBC00104EB4101097BFF2906D08DF852
:101AB00004101BE0A94890F80A0115E0B7F5004FA3
:101AC00006D800EBC00004EB4000807BFF280BD160
:101AD000FFF7B9FFB842687800EBC00004EB4000A4
:101AE00001D3407B00E0C07B8DF8040069789DF84D
:101AF000042001EBC10104EB41010120C97B8A42B2
:101B00001DD0FFF73BFE9DF80E109DF80D209DF8AF
:101B10000C30B0F1807F07D28DF805108DF80620CB
:101B20008DF8073004200AE09DF80F008DF80500BD
:101B30008DF806108DF807208DF808300520012358
:101B400001AA01460096FFF7CCFCFFF7F2FCC007A4
:101B5000FBD10420FFF7B9FCFFF764FE012005B0BC
:101B6000F0BDF0B57C4F06460D463878A1B014465E
:101B7000C1071FD040F0040038700BE080212846D8
:101B8000FFF7F6FE6A4680213046FFF75FFE80369B
:101B90008035803C802C6A46F0D821462846FFF7E5
:101BA000E7FE38786A4620F0040038702146304657
:101BB000FFF74CFE21B0F0BD674930B40A78D0077A
:101BC00047D0881E0078000643D54FF448100068BF
:101BD000624C00F00F030846AA3C4078092B00EB4A
:101BE000800004EB400030D2DFE803F0050B1D2F2E
:101BF000232F2F2F2900C079C01E00EB40000001C9
:101C000002E0C07940018038C31700EB9370801068
:101C1000488000B2002801DA0020488042F010001D
:101C2000087030BCFEE5C079801F00EB4000C000AA
:101C3000EAE7C0790C3800EB40008000E4E7C079A7
:101C4000183800EB40004000DEE7C0790001903812
:101C5000DAE730BC704710B53F4C2078C00709D098
:101C6000A01E0078000605D5FFF796FC207820F02E
:101C70001000207010BD10B537483949364C4078F7
:101C8000E41E085C2178890714D5802141EA800090
:101C9000C0B2FFF75BFC20780122C0F38300002173
:101CA000FFF7FEFB2078BDE81040C0F38300002161
:101CB000FFF7E6BBBDE8104045E5274810B5C01E5C
:101CC0000078810708D5C0F383000121FFF7D8FB16
:101CD000BDE81040002039E4BDE81040002032E5A6
:101CE0002DE9F0470D461C49074616460878A0B076
:101CF0004FF0FF34C20727D040F004008A46087036
:101D0000DFF86090E84615E06A4680213846FFF724
:101D10002FFE802818D1002041464A460B5C401C0B
:101D20006340DBB2802852F8233083EA1424F5D3D1
:101D30008037803D802DE7D805B36A46294638466E
:101D4000FFF716FEA84203D0002020B0BDE8F087C0
:101D5000002041464A460FE0EF240D005A230D00B3
:101D60008C240D00F8240D000B5C6340DBB2401C9A
:101D700052F8233083EA1424A842F5D3E0433070AC
:101D8000010A7170010CB170000EF0709AF8001029
:101D9000012021F004018AF80010D6E74FF4002159
:101DA00041627047416A0903FCD570474FF4002235
:101DB0004A624860486A0003FCD57047016821F414
:101DC000F04101607047016841F4006101607047B3
:101DD000016841F4405101607047016841F460516D
:101DE00001607047016841F4B041016070470346EB
:101DF0000020024603E0D1F88000521CC0B29A4293
:101E0000F9D3704740F001020A6000228A62B44AA6
:101E1000914203D1B34B40221A600FE0B24A914283
:101E20000CD14FF45412136B23F0180313630823DF
:101E3000D3621823D36393632023D36008604FF0E9
:101E4000FF304862704730B5044641EA0200A749B6
:101E50001843039D08432946FFF7D4FFA448844252
:101E600001D1012010E0A349C8018C4201D20C46E7
:101E700002E0844200D90446B0FBF4F0401E00F0BA
:101E80003F00410041EAC010286330BD70B40C46E9
:101E9000DDE90351002817D0002C15D01BB10B68C9
:101EA00023F4F0430B60002304E012F8016BC1F847
:101EB000C0605B1CA342F8D3002D05D00A6842F431
:101EC00000620A6070BC71E770BC70471CB50C46BC
:101ED0000121CDE900120B4622460146FFF7D6FF4D
:101EE0001CBD03B50A4669460120FFF7EFFF0CBD94
:101EF00008B50A468DF80000000A8DF80100694611
:101F00000220FFF7E3FF08BD08B5030A8DF80000C3
:101F1000020C8DF801308DF80220000E8DF80300C0
:101F20000A4669460420FFF7D1FF08BDF0B5060058
:101F3000059C17461D4623D0002F21D0206820F491
:101F4000F0402060002004E011F8012BC4F8C0200C
:101F5000401CB042F8D3206840F460502060F01973
:101F60002146FFF723FF21463046FFF740FF0020C0
:101F700004E0D4F8801005F8011B401CB842F8D3E7
:101F8000F0BD30B50500084614461DD0196821F48F
:101F9000F0411960002104E010F8012BC3F8C020C3
:101FA000491CA942F8D3186840F4B040186019469B
:101FB0002846FFF7FBFE002004E0D3F8801004F869
:101FC000011B401CA842F8D330BD70B506000D4679
:101FD000144614D0206820F4F0402060206840F4BB
:101FE0004050206021463046FFF7E0FE002304E029
:101FF000D4F8800005F8010B5B1CB342F8D370BD28
:10200000016841F4006101607047016821F40061DA
:1020100001607047016841F48051016070470168B8
:1020200021F48051016070470843104340F4901040
:102030001946E7E610B5002304E011F8014BC2F899
:10204000C0405B1C8342F8D310BDC1F8C00070478C
:10205000C2B2C1F8C020000AC1F8C0007047C2B2C5
:10206000C1F8C020C0F30722C1F8C020C0F3074266
:10207000C1F8C020000EC1F8C00070478068C0F3EE
:102080000A00704710B59369C3F30A03834201D273
:10209000012010BD002304E0D2F8804001F8014B7C
:1020A0005B1C8342F8D3002010BD8069C0F30A0096
:1020B000704770B50A490C310B680B4C0C34226820
:1020C000002001250D600E68012E00D101200B605B
:1020D00025602168012901D140F00200226070BD15
:1020E00000063600000132000024350000023300F3
:1020F00000366E01366E01006148016841F0400112
:102100000160016841F020010160016841F00201B5
:1021100001605B4900201031086070475949B1FBEC
:10212000F0F101F01F01103900D54942102902D108
:102130005549884202D35549884201D2022070474E
:1021400001207047524901228A6008604A60704746
:1021500030B5504D022B07D06C0114446408B4FB19
:10216000F2F4012B02D002E04B4CF6E7464DAA42B6
:1021700003D962420A7000210CE00022A2EB141283
:102180000A7004F00F014A0801F0010303EB51014A
:1021900041EA0211017030BD2DE9FC43DFF8E08017
:1021A000D8F80070A8F10409D9F800C04408394DE6
:1021B0003A4E2046FFF7B2FF0346FFF7C3FF012B5D
:1021C00001D16D007600AC4202D947F0080001E071
:1021D00027F00800B44202D34CF0010101E02CF0DA
:1021E0000101C8F80000C9F80010224601A968469C
:1021F000FFF7AEFF22499DF804001C390860091F53
:102200009DF8000008600120BDE8FC8370B51C4902
:1022100001200C31086008254FF45814FEF7ECFC3F
:10222000C4F88450D4F884000007F7D4E069C0B241
:1022300070BD10B5FFF7EAFF012802D1BDE81040DC
:10224000E4E710BD30B502244FF45813C3F88440BE
:10225000D3F88450AD07F9D52AB10425DD6102E039
:1022600010F8012BDA610A00A1F1010189B2F7D15E
:10227000C3F88440D3F884008007F9D530BD00004E
:102280002004360000C0C62DC0C62D0040420F00FD
:10229000B400320060E3160000366E01689D29002C
:1022A000010800010600000000C0320000B032004A
:1022B00003C220140F000103EC00031F660101009C
:1022C000011E6D00031F65000000011EEE0002BF2D
:1022D0004800000001FF300002BF4900010001FF7B
:1022E000300003C2201000000103EC00031C311178
:1022F00001000103EC000337301201000103B000BC
:102300000337301101000103B00003373010010022
:102310000103B000031F42000F00011EEC00031F69
:1023200043010F00011EEC00031F44020F00011EB9
:10233000EC0003010220FF03401E6C000320201369
:102340000700011EEC0003BFFF140F00011E300048
:102350000320FF140F00011EEC0006049F0501037B
:102360000B0202FFFFFF20D8D8C7B9AB06049F05B8
:1023700001030B0202FFFFFF20D8D8C7FFFF0604AE
:1023800015050103FF0202FFFFFF20525262B9ABA5
:102390000604900501030B0202AF50FFFF20D8C7CF
:1023A000FFFF060490050103FF0202AF50FFFF206C
:1023B000D8C7FFFF06049F0501030B0202FFFFFFC2
:1023C00020D8D8C7B9AB06049F0501030B0202FF52
:1023D000FFFFFF20D8C7B9AB06049F0501030B021E
:1023E00002FFFFFFFF20D8C7B9AB06049F0501031A
:1023F0000B0202FFFFFFFF20D8C7B9AB06049F0501
:1024000001030B0202FFFFFFFF20D8C7B9AB060490
:102410009F0501030B0202FFFFFF20D8D8C7B9AB0D
:1024200006049F0501030B0202FFFFFF20D8D8C757
:10243000B9AB06049F0501030B0202FFFFFF20D882
:10244000D8C7B9AB06049F0501130C1212FFFFFF9A
:10245000FFDCFFC7FFFF06049F0501030B0A02FF15
:10246000FFFF20D8D8C7B9AB06049F0501030B02B4
:1024700002AD50FF202020C7FFFF06049F05010387
:102480000B0202FFFFFF20D8D8C7B9AB0303030339
:10249000030303030303010F0F0303030000000002
:1024A000000000000000000000000000000000002C
:1024B000000000000000000000000000000000001C
:1024C000000000000000000000000000000000000C
:1024D00000000000000000000000000000000000FC
:1024E00000000000000000000000000000000000EC
:0824F0000000000000000000E4
:04000005000D0201E7
:00000001FF
